{
  "_format": "hh-sol-artifact-1",
  "contractName": "NFTManager",
  "sourceName": "contracts/NFT.sol",
  "abi": [
    {
      "inputs": [
        {
          "internalType": "string",
          "name": "name",
          "type": "string"
        },
        {
          "internalType": "string",
          "name": "uri",
          "type": "string"
        },
        {
          "internalType": "address",
          "name": "_feeRecipient",
          "type": "address"
        },
        {
          "internalType": "uint256",
          "name": "_feePercentage",
          "type": "uint256"
        },
        {
          "internalType": "uint256",
          "name": "_maxSupply",
          "type": "uint256"
        },
        {
          "internalType": "uint256",
          "name": "_mintLimit",
          "type": "uint256"
        },
        {
          "internalType": "uint256",
          "name": "_mintPrice",
          "type": "uint256"
        }
      ],
      "stateMutability": "nonpayable",
      "type": "constructor"
    },
    {
      "inputs": [],
      "name": "ECDSAInvalidSignature",
      "type": "error"
    },
    {
      "inputs": [
        {
          "internalType": "uint256",
          "name": "length",
          "type": "uint256"
        }
      ],
      "name": "ECDSAInvalidSignatureLength",
      "type": "error"
    },
    {
      "inputs": [
        {
          "internalType": "bytes32",
          "name": "s",
          "type": "bytes32"
        }
      ],
      "name": "ECDSAInvalidSignatureS",
      "type": "error"
    },
    {
      "inputs": [
        {
          "internalType": "address",
          "name": "sender",
          "type": "address"
        },
        {
          "internalType": "uint256",
          "name": "balance",
          "type": "uint256"
        },
        {
          "internalType": "uint256",
          "name": "needed",
          "type": "uint256"
        },
        {
          "internalType": "uint256",
          "name": "tokenId",
          "type": "uint256"
        }
      ],
      "name": "ERC1155InsufficientBalance",
      "type": "error"
    },
    {
      "inputs": [
        {
          "internalType": "address",
          "name": "approver",
          "type": "address"
        }
      ],
      "name": "ERC1155InvalidApprover",
      "type": "error"
    },
    {
      "inputs": [
        {
          "internalType": "uint256",
          "name": "idsLength",
          "type": "uint256"
        },
        {
          "internalType": "uint256",
          "name": "valuesLength",
          "type": "uint256"
        }
      ],
      "name": "ERC1155InvalidArrayLength",
      "type": "error"
    },
    {
      "inputs": [
        {
          "internalType": "address",
          "name": "operator",
          "type": "address"
        }
      ],
      "name": "ERC1155InvalidOperator",
      "type": "error"
    },
    {
      "inputs": [
        {
          "internalType": "address",
          "name": "receiver",
          "type": "address"
        }
      ],
      "name": "ERC1155InvalidReceiver",
      "type": "error"
    },
    {
      "inputs": [
        {
          "internalType": "address",
          "name": "sender",
          "type": "address"
        }
      ],
      "name": "ERC1155InvalidSender",
      "type": "error"
    },
    {
      "inputs": [
        {
          "internalType": "address",
          "name": "operator",
          "type": "address"
        },
        {
          "internalType": "address",
          "name": "owner",
          "type": "address"
        }
      ],
      "name": "ERC1155MissingApprovalForAll",
      "type": "error"
    },
    {
      "inputs": [
        {
          "internalType": "address",
          "name": "owner",
          "type": "address"
        }
      ],
      "name": "OwnableInvalidOwner",
      "type": "error"
    },
    {
      "inputs": [
        {
          "internalType": "address",
          "name": "account",
          "type": "address"
        }
      ],
      "name": "OwnableUnauthorizedAccount",
      "type": "error"
    },
    {
      "anonymous": false,
      "inputs": [
        {
          "indexed": true,
          "internalType": "address",
          "name": "account",
          "type": "address"
        },
        {
          "indexed": true,
          "internalType": "address",
          "name": "operator",
          "type": "address"
        },
        {
          "indexed": false,
          "internalType": "bool",
          "name": "approved",
          "type": "bool"
        }
      ],
      "name": "ApprovalForAll",
      "type": "event"
    },
    {
      "anonymous": false,
      "inputs": [
        {
          "indexed": true,
          "internalType": "uint256",
          "name": "auctionId",
          "type": "uint256"
        },
        {
          "indexed": false,
          "internalType": "uint256",
          "name": "tokenId",
          "type": "uint256"
        },
        {
          "indexed": false,
          "internalType": "uint256",
          "name": "amount",
          "type": "uint256"
        },
        {
          "indexed": false,
          "internalType": "uint256",
          "name": "minBid",
          "type": "uint256"
        },
        {
          "indexed": false,
          "internalType": "uint256",
          "name": "endTime",
          "type": "uint256"
        }
      ],
      "name": "AuctionCreated",
      "type": "event"
    },
    {
      "anonymous": false,
      "inputs": [
        {
          "indexed": true,
          "internalType": "uint256",
          "name": "auctionId",
          "type": "uint256"
        },
        {
          "indexed": false,
          "internalType": "address",
          "name": "winner",
          "type": "address"
        },
        {
          "indexed": false,
          "internalType": "uint256",
          "name": "amount",
          "type": "uint256"
        }
      ],
      "name": "AuctionEnded",
      "type": "event"
    },
    {
      "anonymous": false,
      "inputs": [
        {
          "indexed": true,
          "internalType": "uint256",
          "name": "auctionId",
          "type": "uint256"
        },
        {
          "indexed": false,
          "internalType": "address",
          "name": "bidder",
          "type": "address"
        },
        {
          "indexed": false,
          "internalType": "uint256",
          "name": "amount",
          "type": "uint256"
        }
      ],
      "name": "BidPlaced",
      "type": "event"
    },
    {
      "anonymous": false,
      "inputs": [
        {
          "indexed": true,
          "internalType": "address",
          "name": "buyer",
          "type": "address"
        },
        {
          "indexed": false,
          "internalType": "uint256",
          "name": "amount",
          "type": "uint256"
        },
        {
          "indexed": false,
          "internalType": "string",
          "name": "uri",
          "type": "string"
        }
      ],
      "name": "LazyMinted",
      "type": "event"
    },
    {
      "anonymous": false,
      "inputs": [
        {
          "indexed": true,
          "internalType": "address",
          "name": "recipient",
          "type": "address"
        },
        {
          "indexed": false,
          "internalType": "uint256",
          "name": "amount",
          "type": "uint256"
        },
        {
          "indexed": false,
          "internalType": "string",
          "name": "uri",
          "type": "string"
        }
      ],
      "name": "NFTMinted",
      "type": "event"
    },
    {
      "anonymous": false,
      "inputs": [
        {
          "indexed": true,
          "internalType": "address",
          "name": "previousOwner",
          "type": "address"
        },
        {
          "indexed": true,
          "internalType": "address",
          "name": "newOwner",
          "type": "address"
        }
      ],
      "name": "OwnershipTransferred",
      "type": "event"
    },
    {
      "anonymous": false,
      "inputs": [
        {
          "indexed": true,
          "internalType": "address",
          "name": "operator",
          "type": "address"
        },
        {
          "indexed": true,
          "internalType": "address",
          "name": "from",
          "type": "address"
        },
        {
          "indexed": true,
          "internalType": "address",
          "name": "to",
          "type": "address"
        },
        {
          "indexed": false,
          "internalType": "uint256[]",
          "name": "ids",
          "type": "uint256[]"
        },
        {
          "indexed": false,
          "internalType": "uint256[]",
          "name": "values",
          "type": "uint256[]"
        }
      ],
      "name": "TransferBatch",
      "type": "event"
    },
    {
      "anonymous": false,
      "inputs": [
        {
          "indexed": true,
          "internalType": "address",
          "name": "operator",
          "type": "address"
        },
        {
          "indexed": true,
          "internalType": "address",
          "name": "from",
          "type": "address"
        },
        {
          "indexed": true,
          "internalType": "address",
          "name": "to",
          "type": "address"
        },
        {
          "indexed": false,
          "internalType": "uint256",
          "name": "id",
          "type": "uint256"
        },
        {
          "indexed": false,
          "internalType": "uint256",
          "name": "value",
          "type": "uint256"
        }
      ],
      "name": "TransferSingle",
      "type": "event"
    },
    {
      "anonymous": false,
      "inputs": [
        {
          "indexed": false,
          "internalType": "string",
          "name": "value",
          "type": "string"
        },
        {
          "indexed": true,
          "internalType": "uint256",
          "name": "id",
          "type": "uint256"
        }
      ],
      "name": "URI",
      "type": "event"
    },
    {
      "inputs": [],
      "name": "auctionCount",
      "outputs": [
        {
          "internalType": "uint256",
          "name": "",
          "type": "uint256"
        }
      ],
      "stateMutability": "view",
      "type": "function"
    },
    {
      "inputs": [
        {
          "internalType": "uint256",
          "name": "",
          "type": "uint256"
        }
      ],
      "name": "auctions",
      "outputs": [
        {
          "internalType": "uint256",
          "name": "tokenId",
          "type": "uint256"
        },
        {
          "internalType": "address",
          "name": "seller",
          "type": "address"
        },
        {
          "internalType": "uint256",
          "name": "amount",
          "type": "uint256"
        },
        {
          "internalType": "uint256",
          "name": "minBid",
          "type": "uint256"
        },
        {
          "internalType": "uint256",
          "name": "highestBid",
          "type": "uint256"
        },
        {
          "internalType": "address",
          "name": "highestBidder",
          "type": "address"
        },
        {
          "internalType": "uint256",
          "name": "endTime",
          "type": "uint256"
        },
        {
          "internalType": "bool",
          "name": "ended",
          "type": "bool"
        }
      ],
      "stateMutability": "view",
      "type": "function"
    },
    {
      "inputs": [
        {
          "internalType": "address",
          "name": "account",
          "type": "address"
        },
        {
          "internalType": "uint256",
          "name": "id",
          "type": "uint256"
        }
      ],
      "name": "balanceOf",
      "outputs": [
        {
          "internalType": "uint256",
          "name": "",
          "type": "uint256"
        }
      ],
      "stateMutability": "view",
      "type": "function"
    },
    {
      "inputs": [
        {
          "internalType": "address[]",
          "name": "accounts",
          "type": "address[]"
        },
        {
          "internalType": "uint256[]",
          "name": "ids",
          "type": "uint256[]"
        }
      ],
      "name": "balanceOfBatch",
      "outputs": [
        {
          "internalType": "uint256[]",
          "name": "",
          "type": "uint256[]"
        }
      ],
      "stateMutability": "view",
      "type": "function"
    },
    {
      "inputs": [
        {
          "internalType": "address",
          "name": "to",
          "type": "address"
        },
        {
          "internalType": "uint256",
          "name": "amount",
          "type": "uint256"
        }
      ],
      "name": "bulkMint",
      "outputs": [],
      "stateMutability": "nonpayable",
      "type": "function"
    },
    {
      "inputs": [
        {
          "internalType": "uint256",
          "name": "amount",
          "type": "uint256"
        },
        {
          "internalType": "uint256",
          "name": "minBid",
          "type": "uint256"
        },
        {
          "internalType": "uint256",
          "name": "duration",
          "type": "uint256"
        }
      ],
      "name": "createAuction",
      "outputs": [],
      "stateMutability": "nonpayable",
      "type": "function"
    },
    {
      "inputs": [
        {
          "internalType": "uint256",
          "name": "auctionId",
          "type": "uint256"
        }
      ],
      "name": "endAuction",
      "outputs": [],
      "stateMutability": "nonpayable",
      "type": "function"
    },
    {
      "inputs": [
        {
          "internalType": "address",
          "name": "account",
          "type": "address"
        },
        {
          "internalType": "address",
          "name": "operator",
          "type": "address"
        }
      ],
      "name": "isApprovedForAll",
      "outputs": [
        {
          "internalType": "bool",
          "name": "",
          "type": "bool"
        }
      ],
      "stateMutability": "view",
      "type": "function"
    },
    {
      "inputs": [
        {
          "internalType": "address",
          "name": "buyer",
          "type": "address"
        },
        {
          "internalType": "uint256",
          "name": "amount",
          "type": "uint256"
        },
        {
          "internalType": "bytes",
          "name": "signature",
          "type": "bytes"
        }
      ],
      "name": "lazyMint",
      "outputs": [],
      "stateMutability": "nonpayable",
      "type": "function"
    },
    {
      "inputs": [],
      "name": "marketplaceFeePercentage",
      "outputs": [
        {
          "internalType": "uint256",
          "name": "",
          "type": "uint256"
        }
      ],
      "stateMutability": "view",
      "type": "function"
    },
    {
      "inputs": [],
      "name": "marketplaceFeeRecipient",
      "outputs": [
        {
          "internalType": "address",
          "name": "",
          "type": "address"
        }
      ],
      "stateMutability": "view",
      "type": "function"
    },
    {
      "inputs": [],
      "name": "maxSupply",
      "outputs": [
        {
          "internalType": "uint256",
          "name": "",
          "type": "uint256"
        }
      ],
      "stateMutability": "view",
      "type": "function"
    },
    {
      "inputs": [
        {
          "internalType": "address",
          "name": "",
          "type": "address"
        }
      ],
      "name": "mintCountPerWallet",
      "outputs": [
        {
          "internalType": "uint256",
          "name": "",
          "type": "uint256"
        }
      ],
      "stateMutability": "view",
      "type": "function"
    },
    {
      "inputs": [],
      "name": "mintLimit",
      "outputs": [
        {
          "internalType": "uint256",
          "name": "",
          "type": "uint256"
        }
      ],
      "stateMutability": "view",
      "type": "function"
    },
    {
      "inputs": [
        {
          "internalType": "uint256",
          "name": "amount",
          "type": "uint256"
        }
      ],
      "name": "mintNFT",
      "outputs": [
        {
          "internalType": "uint256",
          "name": "",
          "type": "uint256"
        }
      ],
      "stateMutability": "payable",
      "type": "function"
    },
    {
      "inputs": [],
      "name": "mintPrice",
      "outputs": [
        {
          "internalType": "uint256",
          "name": "",
          "type": "uint256"
        }
      ],
      "stateMutability": "view",
      "type": "function"
    },
    {
      "inputs": [
        {
          "internalType": "address",
          "name": "",
          "type": "address"
        },
        {
          "internalType": "address",
          "name": "",
          "type": "address"
        },
        {
          "internalType": "uint256[]",
          "name": "",
          "type": "uint256[]"
        },
        {
          "internalType": "uint256[]",
          "name": "",
          "type": "uint256[]"
        },
        {
          "internalType": "bytes",
          "name": "",
          "type": "bytes"
        }
      ],
      "name": "onERC1155BatchReceived",
      "outputs": [
        {
          "internalType": "bytes4",
          "name": "",
          "type": "bytes4"
        }
      ],
      "stateMutability": "pure",
      "type": "function"
    },
    {
      "inputs": [
        {
          "internalType": "address",
          "name": "",
          "type": "address"
        },
        {
          "internalType": "address",
          "name": "",
          "type": "address"
        },
        {
          "internalType": "uint256",
          "name": "",
          "type": "uint256"
        },
        {
          "internalType": "uint256",
          "name": "",
          "type": "uint256"
        },
        {
          "internalType": "bytes",
          "name": "",
          "type": "bytes"
        }
      ],
      "name": "onERC1155Received",
      "outputs": [
        {
          "internalType": "bytes4",
          "name": "",
          "type": "bytes4"
        }
      ],
      "stateMutability": "pure",
      "type": "function"
    },
    {
      "inputs": [],
      "name": "owner",
      "outputs": [
        {
          "internalType": "address",
          "name": "",
          "type": "address"
        }
      ],
      "stateMutability": "view",
      "type": "function"
    },
    {
      "inputs": [
        {
          "internalType": "uint256",
          "name": "auctionId",
          "type": "uint256"
        }
      ],
      "name": "placeBid",
      "outputs": [],
      "stateMutability": "payable",
      "type": "function"
    },
    {
      "inputs": [],
      "name": "renounceOwnership",
      "outputs": [],
      "stateMutability": "nonpayable",
      "type": "function"
    },
    {
      "inputs": [
        {
          "internalType": "uint256",
          "name": "",
          "type": "uint256"
        },
        {
          "internalType": "uint256",
          "name": "salePrice",
          "type": "uint256"
        }
      ],
      "name": "royaltyInfo",
      "outputs": [
        {
          "internalType": "address",
          "name": "",
          "type": "address"
        },
        {
          "internalType": "uint256",
          "name": "",
          "type": "uint256"
        }
      ],
      "stateMutability": "view",
      "type": "function"
    },
    {
      "inputs": [],
      "name": "royaltyPercentage",
      "outputs": [
        {
          "internalType": "uint256",
          "name": "",
          "type": "uint256"
        }
      ],
      "stateMutability": "view",
      "type": "function"
    },
    {
      "inputs": [],
      "name": "royaltyRecipient",
      "outputs": [
        {
          "internalType": "address",
          "name": "",
          "type": "address"
        }
      ],
      "stateMutability": "view",
      "type": "function"
    },
    {
      "inputs": [
        {
          "internalType": "address",
          "name": "from",
          "type": "address"
        },
        {
          "internalType": "address",
          "name": "to",
          "type": "address"
        },
        {
          "internalType": "uint256[]",
          "name": "ids",
          "type": "uint256[]"
        },
        {
          "internalType": "uint256[]",
          "name": "values",
          "type": "uint256[]"
        },
        {
          "internalType": "bytes",
          "name": "data",
          "type": "bytes"
        }
      ],
      "name": "safeBatchTransferFrom",
      "outputs": [],
      "stateMutability": "nonpayable",
      "type": "function"
    },
    {
      "inputs": [
        {
          "internalType": "address",
          "name": "from",
          "type": "address"
        },
        {
          "internalType": "address",
          "name": "to",
          "type": "address"
        },
        {
          "internalType": "uint256",
          "name": "id",
          "type": "uint256"
        },
        {
          "internalType": "uint256",
          "name": "value",
          "type": "uint256"
        },
        {
          "internalType": "bytes",
          "name": "data",
          "type": "bytes"
        }
      ],
      "name": "safeTransferFrom",
      "outputs": [],
      "stateMutability": "nonpayable",
      "type": "function"
    },
    {
      "inputs": [
        {
          "internalType": "address",
          "name": "operator",
          "type": "address"
        },
        {
          "internalType": "bool",
          "name": "approved",
          "type": "bool"
        }
      ],
      "name": "setApprovalForAll",
      "outputs": [],
      "stateMutability": "nonpayable",
      "type": "function"
    },
    {
      "inputs": [
        {
          "internalType": "address",
          "name": "recipient",
          "type": "address"
        },
        {
          "internalType": "uint256",
          "name": "percentage",
          "type": "uint256"
        }
      ],
      "name": "setRoyalty",
      "outputs": [],
      "stateMutability": "nonpayable",
      "type": "function"
    },
    {
      "inputs": [
        {
          "internalType": "string",
          "name": "newUri",
          "type": "string"
        }
      ],
      "name": "setURI",
      "outputs": [],
      "stateMutability": "nonpayable",
      "type": "function"
    },
    {
      "inputs": [
        {
          "internalType": "bytes4",
          "name": "interfaceId",
          "type": "bytes4"
        }
      ],
      "name": "supportsInterface",
      "outputs": [
        {
          "internalType": "bool",
          "name": "",
          "type": "bool"
        }
      ],
      "stateMutability": "view",
      "type": "function"
    },
    {
      "inputs": [
        {
          "internalType": "address",
          "name": "newOwner",
          "type": "address"
        }
      ],
      "name": "transferOwnership",
      "outputs": [],
      "stateMutability": "nonpayable",
      "type": "function"
    },
    {
      "inputs": [
        {
          "internalType": "uint256",
          "name": "",
          "type": "uint256"
        }
      ],
      "name": "uri",
      "outputs": [
        {
          "internalType": "string",
          "name": "",
          "type": "string"
        }
      ],
      "stateMutability": "view",
      "type": "function"
    }
  ],
  "bytecode": "0x608060405234801561001057600080fd5b5060405161547e38038061547e83398181016040528101906100329190610463565b33866100438161018160201b60201c565b50600073ffffffffffffffffffffffffffffffffffffffff168173ffffffffffffffffffffffffffffffffffffffff16036100b65760006040517f1e4fbdf70000000000000000000000000000000000000000000000000000000081526004016100ad919061054c565b60405180910390fd5b6100c58161019460201b60201c565b5084600560006101000a81548173ffffffffffffffffffffffffffffffffffffffff021916908373ffffffffffffffffffffffffffffffffffffffff160217905550836006819055508260098190555081600a8190555080600b8190555033600760006101000a81548173ffffffffffffffffffffffffffffffffffffffff021916908373ffffffffffffffffffffffffffffffffffffffff1602179055506103e8600881905550600060048190555050505050505050610850565b8060029081610190919061077e565b5050565b6000600360009054906101000a900473ffffffffffffffffffffffffffffffffffffffff16905081600360006101000a81548173ffffffffffffffffffffffffffffffffffffffff021916908373ffffffffffffffffffffffffffffffffffffffff1602179055508173ffffffffffffffffffffffffffffffffffffffff168173ffffffffffffffffffffffffffffffffffffffff167f8be0079c531659141344cd1fd0a4f28419497f9722a3daafe3b4186f6b6457e060405160405180910390a35050565b6000604051905090565b600080fd5b600080fd5b600080fd5b600080fd5b6000601f19601f8301169050919050565b7f4e487b7100000000000000000000000000000000000000000000000000000000600052604160045260246000fd5b6102c182610278565b810181811067ffffffffffffffff821117156102e0576102df610289565b5b80604052505050565b60006102f361025a565b90506102ff82826102b8565b919050565b600067ffffffffffffffff82111561031f5761031e610289565b5b61032882610278565b9050602081019050919050565b60005b83811015610353578082015181840152602081019050610338565b60008484015250505050565b600061037261036d84610304565b6102e9565b90508281526020810184848401111561038e5761038d610273565b5b610399848285610335565b509392505050565b600082601f8301126103b6576103b561026e565b5b81516103c684826020860161035f565b91505092915050565b600073ffffffffffffffffffffffffffffffffffffffff82169050919050565b60006103fa826103cf565b9050919050565b61040a816103ef565b811461041557600080fd5b50565b60008151905061042781610401565b92915050565b6000819050919050565b6104408161042d565b811461044b57600080fd5b50565b60008151905061045d81610437565b92915050565b600080600080600080600060e0888a03121561048257610481610264565b5b600088015167ffffffffffffffff8111156104a05761049f610269565b5b6104ac8a828b016103a1565b975050602088015167ffffffffffffffff8111156104cd576104cc610269565b5b6104d98a828b016103a1565b96505060406104ea8a828b01610418565b95505060606104fb8a828b0161044e565b945050608061050c8a828b0161044e565b93505060a061051d8a828b0161044e565b92505060c061052e8a828b0161044e565b91505092959891949750929550565b610546816103ef565b82525050565b6000602082019050610561600083018461053d565b92915050565b600081519050919050565b7f4e487b7100000000000000000000000000000000000000000000000000000000600052602260045260246000fd5b600060028204905060018216806105b957607f821691505b6020821081036105cc576105cb610572565b5b50919050565b60008190508160005260206000209050919050565b60006020601f8301049050919050565b600082821b905092915050565b6000600883026106347fffffffffffffffffffffffffffffffffffffffffffffffffffffffffffffffff826105f7565b61063e86836105f7565b95508019841693508086168417925050509392505050565b6000819050919050565b600061067b6106766106718461042d565b610656565b61042d565b9050919050565b6000819050919050565b61069583610660565b6106a96106a182610682565b848454610604565b825550505050565b600090565b6106be6106b1565b6106c981848461068c565b505050565b5b818110156106ed576106e26000826106b6565b6001810190506106cf565b5050565b601f82111561073257610703816105d2565b61070c846105e7565b8101602085101561071b578190505b61072f610727856105e7565b8301826106ce565b50505b505050565b600082821c905092915050565b600061075560001984600802610737565b1980831691505092915050565b600061076e8383610744565b9150826002028217905092915050565b61078782610567565b67ffffffffffffffff8111156107a05761079f610289565b5b6107aa82546105a1565b6107b58282856106f1565b600060209050601f8311600181146107e857600084156107d6578287015190505b6107e08582610762565b865550610848565b601f1984166107f6866105d2565b60005b8281101561081e578489015182556001820191506020850194506020810190506107f9565b8683101561083b5784890151610837601f891682610744565b8355505b6001600288020188555050505b505050505050565b614c1f8061085f6000396000f3fe6080604052600436106101e25760003560e01c80639264274411610102578063cda4beef11610095578063f23a6e6111610064578063f23a6e6114610705578063f242432a14610742578063f2fde38b1461076b578063f335eac914610794576101e2565b8063cda4beef1461064b578063d5abeb0114610674578063db470f6f1461069f578063e985e9c5146106c8576101e2565b8063a8c90cb2116100d1578063a8c90cb214610591578063b9a2de3a146105ba578063bc197c81146105e3578063c49d91de14610620576101e2565b806392642744146104f1578063996517cf146105215780639979ef451461054c578063a22cb46514610568576101e2565b80634adadddf1161017a5780636817c76c116101495780636817c76c14610459578063715018a6146104845780638a71bb2d1461049b5780638da5cb5b146104c6576101e2565b80634adadddf146103825780634c00de82146103ad5780634e1273f4146103d8578063571a26a014610415576101e2565b806310fd332b116101b657806310fd332b146102c75780632a55205a146102f05780632ad715731461032e5780632eb2c2d614610359576101e2565b8062fdd58e146101e757806301ffc9a71461022457806302fe5305146102615780630e89341c1461028a575b600080fd5b3480156101f357600080fd5b5061020e60048036038101906102099190613051565b6107d1565b60405161021b91906130a0565b60405180910390f35b34801561023057600080fd5b5061024b60048036038101906102469190613113565b61082b565b604051610258919061315b565b60405180910390f35b34801561026d57600080fd5b50610288600480360381019061028391906132bc565b61090d565b005b34801561029657600080fd5b506102b160048036038101906102ac9190613305565b610921565b6040516102be91906133b1565b60405180910390f35b3480156102d357600080fd5b506102ee60048036038101906102e99190613051565b6109b5565b005b3480156102fc57600080fd5b50610317600480360381019061031291906133d3565b610a4e565b604051610325929190613422565b60405180910390f35b34801561033a57600080fd5b50610343610aa0565b60405161035091906130a0565b60405180910390f35b34801561036557600080fd5b50610380600480360381019061037b91906135b4565b610aa6565b005b34801561038e57600080fd5b50610397610b4e565b6040516103a491906130a0565b60405180910390f35b3480156103b957600080fd5b506103c2610b54565b6040516103cf9190613683565b60405180910390f35b3480156103e457600080fd5b506103ff60048036038101906103fa9190613761565b610b7a565b60405161040c9190613897565b60405180910390f35b34801561042157600080fd5b5061043c60048036038101906104379190613305565b610c83565b6040516104509897969594939291906138b9565b60405180910390f35b34801561046557600080fd5b5061046e610d18565b60405161047b91906130a0565b60405180910390f35b34801561049057600080fd5b50610499610d1e565b005b3480156104a757600080fd5b506104b0610d32565b6040516104bd91906130a0565b60405180910390f35b3480156104d257600080fd5b506104db610d38565b6040516104e89190613683565b60405180910390f35b61050b60048036038101906105069190613305565b610d62565b60405161051891906130a0565b60405180910390f35b34801561052d57600080fd5b50610536610f82565b60405161054391906130a0565b60405180910390f35b61056660048036038101906105619190613305565b610f88565b005b34801561057457600080fd5b5061058f600480360381019061058a9190613963565b6111df565b005b34801561059d57600080fd5b506105b860048036038101906105b39190613051565b6111f5565b005b3480156105c657600080fd5b506105e160048036038101906105dc9190613305565b6112e1565b005b3480156105ef57600080fd5b5061060a60048036038101906106059190613a54565b6116a1565b6040516106179190613b3f565b60405180910390f35b34801561062c57600080fd5b506106356116b9565b6040516106429190613683565b60405180910390f35b34801561065757600080fd5b50610672600480360381019061066d9190613b5a565b6116df565b005b34801561068057600080fd5b50610689611968565b60405161069691906130a0565b60405180910390f35b3480156106ab57600080fd5b506106c660048036038101906106c19190613bad565b61196e565b005b3480156106d457600080fd5b506106ef60048036038101906106ea9190613c1c565b611bc9565b6040516106fc919061315b565b60405180910390f35b34801561071157600080fd5b5061072c60048036038101906107279190613c5c565b611c5d565b6040516107399190613b3f565b60405180910390f35b34801561074e57600080fd5b5061076960048036038101906107649190613cf6565b611c73565b005b34801561077757600080fd5b50610792600480360381019061078d9190613d8d565b611d1b565b005b3480156107a057600080fd5b506107bb60048036038101906107b69190613d8d565b611da1565b6040516107c891906130a0565b60405180910390f35b600080600083815260200190815260200160002060008473ffffffffffffffffffffffffffffffffffffffff1673ffffffffffffffffffffffffffffffffffffffff16815260200190815260200160002054905092915050565b60007f2a55205a000000000000000000000000000000000000000000000000000000007bffffffffffffffffffffffffffffffffffffffffffffffffffffffff1916827bffffffffffffffffffffffffffffffffffffffffffffffffffffffff191614806108f657507f4e2312e0000000000000000000000000000000000000000000000000000000007bffffffffffffffffffffffffffffffffffffffffffffffffffffffff1916827bffffffffffffffffffffffffffffffffffffffffffffffffffffffff1916145b80610906575061090582611db9565b5b9050919050565b610915611e9b565b61091e81611f22565b50565b60606002805461093090613de9565b80601f016020809104026020016040519081016040528092919081815260200182805461095c90613de9565b80156109a95780601f1061097e576101008083540402835291602001916109a9565b820191906000526020600020905b81548152906001019060200180831161098c57829003601f168201915b50505050509050919050565b6109bd611e9b565b612710811115610a02576040517f08c379a00000000000000000000000000000000000000000000000000000000081526004016109f990613e66565b60405180910390fd5b81600760006101000a81548173ffffffffffffffffffffffffffffffffffffffff021916908373ffffffffffffffffffffffffffffffffffffffff160217905550806008819055505050565b600080600061271060085485610a649190613eb5565b610a6e9190613f26565b9050600760009054906101000a900473ffffffffffffffffffffffffffffffffffffffff168192509250509250929050565b600e5481565b6000610ab0611f35565b90508073ffffffffffffffffffffffffffffffffffffffff168673ffffffffffffffffffffffffffffffffffffffff1614158015610af55750610af38682611bc9565b155b15610b395780866040517fe237d922000000000000000000000000000000000000000000000000000000008152600401610b30929190613f57565b60405180910390fd5b610b468686868686611f3d565b505050505050565b60065481565b600760009054906101000a900473ffffffffffffffffffffffffffffffffffffffff1681565b60608151835114610bc657815183516040517f5b059991000000000000000000000000000000000000000000000000000000008152600401610bbd929190613f80565b60405180910390fd5b6000835167ffffffffffffffff811115610be357610be2613191565b5b604051908082528060200260200182016040528015610c115781602001602082028036833780820191505090505b50905060005b8451811015610c7857610c4e610c36828761203590919063ffffffff16565b610c49838761204990919063ffffffff16565b6107d1565b828281518110610c6157610c60613fa9565b5b602002602001018181525050806001019050610c17565b508091505092915050565b600d6020528060005260406000206000915090508060000154908060010160009054906101000a900473ffffffffffffffffffffffffffffffffffffffff16908060020154908060030154908060040154908060050160009054906101000a900473ffffffffffffffffffffffffffffffffffffffff16908060060154908060070160009054906101000a900460ff16905088565b600b5481565b610d26611e9b565b610d30600061205d565b565b60085481565b6000600360009054906101000a900473ffffffffffffffffffffffffffffffffffffffff16905090565b600060095482600454610d759190613fd8565b1115610db6576040517f08c379a0000000000000000000000000000000000000000000000000000000008152600401610dad90614058565b60405180910390fd5b81600b54610dc49190613eb5565b341015610e06576040517f08c379a0000000000000000000000000000000000000000000000000000000008152600401610dfd906140c4565b60405180910390fd5b600a5482600c60003373ffffffffffffffffffffffffffffffffffffffff1673ffffffffffffffffffffffffffffffffffffffff16815260200190815260200160002054610e549190613fd8565b1115610e95576040517f08c379a0000000000000000000000000000000000000000000000000000000008152600401610e8c90614130565b60405180910390fd5b610eb13360018460405180602001604052806000815250612123565b8160046000828254610ec39190613fd8565b9250508190555081600c60003373ffffffffffffffffffffffffffffffffffffffff1673ffffffffffffffffffffffffffffffffffffffff1681526020019081526020016000206000828254610f199190613fd8565b925050819055503373ffffffffffffffffffffffffffffffffffffffff167fd35bb95e09c04b219e35047ce7b7b300e3384264ef84a40456943dbc0fc17c1483610f636001610921565b604051610f71929190614150565b60405180910390a260019050919050565b600a5481565b6000600d6000838152602001908152602001600020905080600601544210610fe5576040517f08c379a0000000000000000000000000000000000000000000000000000000008152600401610fdc906141cc565b60405180910390fd5b806004015434118015610ffc575080600301543410155b61103b576040517f08c379a000000000000000000000000000000000000000000000000000000000815260040161103290614238565b60405180910390fd5b8060070160009054906101000a900460ff161561108d576040517f08c379a0000000000000000000000000000000000000000000000000000000008152600401611084906142a4565b60405180910390fd5b600073ffffffffffffffffffffffffffffffffffffffff168160050160009054906101000a900473ffffffffffffffffffffffffffffffffffffffff1673ffffffffffffffffffffffffffffffffffffffff1614611155578060050160009054906101000a900473ffffffffffffffffffffffffffffffffffffffff1673ffffffffffffffffffffffffffffffffffffffff166108fc82600401549081150290604051600060405180830381858888f19350505050158015611153573d6000803e3d6000fd5b505b348160040181905550338160050160006101000a81548173ffffffffffffffffffffffffffffffffffffffff021916908373ffffffffffffffffffffffffffffffffffffffff160217905550817f0e54eff26401bf69b81b26f60bd85ef47f5d85275c1d268d84f68d6897431c4733346040516111d3929190613422565b60405180910390a25050565b6111f16111ea611f35565b83836121bc565b5050565b6111fd611e9b565b6009548160045461120e9190613fd8565b111561124f576040517f08c379a000000000000000000000000000000000000000000000000000000000815260040161124690614058565b60405180910390fd5b61126b8260018360405180602001604052806000815250612123565b806004600082825461127d9190613fd8565b925050819055508173ffffffffffffffffffffffffffffffffffffffff167fd35bb95e09c04b219e35047ce7b7b300e3384264ef84a40456943dbc0fc17c14826112c76001610921565b6040516112d5929190614150565b60405180910390a25050565b6000600d60008381526020019081526020016000209050806006015442101561133f576040517f08c379a000000000000000000000000000000000000000000000000000000000815260040161133690614310565b60405180910390fd5b8060070160009054906101000a900460ff1615611391576040517f08c379a0000000000000000000000000000000000000000000000000000000008152600401611388906142a4565b60405180910390fd5b60018160070160006101000a81548160ff021916908315150217905550600073ffffffffffffffffffffffffffffffffffffffff168160050160009054906101000a900473ffffffffffffffffffffffffffffffffffffffff1673ffffffffffffffffffffffffffffffffffffffff16146115f5576000612710600654836004015461141d9190613eb5565b6114279190613f26565b9050600061271060085484600401546114409190613eb5565b61144a9190613f26565b905060008183856004015461145f9190614330565b6114699190614330565b9050600560009054906101000a900473ffffffffffffffffffffffffffffffffffffffff1673ffffffffffffffffffffffffffffffffffffffff166108fc849081150290604051600060405180830381858888f193505050501580156114d3573d6000803e3d6000fd5b50600760009054906101000a900473ffffffffffffffffffffffffffffffffffffffff1673ffffffffffffffffffffffffffffffffffffffff166108fc839081150290604051600060405180830381858888f1935050505015801561153c573d6000803e3d6000fd5b508360010160009054906101000a900473ffffffffffffffffffffffffffffffffffffffff1673ffffffffffffffffffffffffffffffffffffffff166108fc829081150290604051600060405180830381858888f193505050501580156115a7573d6000803e3d6000fd5b506115ed308560050160009054906101000a900473ffffffffffffffffffffffffffffffffffffffff16600187600201546040518060200160405280600081525061232c565b50505061163b565b61163a308260010160009054906101000a900473ffffffffffffffffffffffffffffffffffffffff16600184600201546040518060200160405280600081525061232c565b5b817fd2aa34a4fdbbc6dff6a3e56f46e0f3ae2a31d7785ff3487aa5c95c642acea5018260050160009054906101000a900473ffffffffffffffffffffffffffffffffffffffff168360040154604051611695929190613422565b60405180910390a25050565b600063bc197c8160e01b905098975050505050505050565b600560009054906101000a900473ffffffffffffffffffffffffffffffffffffffff1681565b826116eb3360016107d1565b101561172c576040517f08c379a0000000000000000000000000000000000000000000000000000000008152600401611723906143b0565b60405180910390fd5b6000831161176f576040517f08c379a00000000000000000000000000000000000000000000000000000000081526004016117669061441c565b60405180910390fd5b600e60008154809291906117829061443c565b91905055506000600e5490506117ab33306001876040518060200160405280600081525061232c565b604051806101000160405280600181526020013373ffffffffffffffffffffffffffffffffffffffff16815260200185815260200184815260200160008152602001600073ffffffffffffffffffffffffffffffffffffffff16815260200183426118169190613fd8565b815260200160001515815250600d60008381526020019081526020016000206000820151816000015560208201518160010160006101000a81548173ffffffffffffffffffffffffffffffffffffffff021916908373ffffffffffffffffffffffffffffffffffffffff16021790555060408201518160020155606082015181600301556080820151816004015560a08201518160050160006101000a81548173ffffffffffffffffffffffffffffffffffffffff021916908373ffffffffffffffffffffffffffffffffffffffff16021790555060c0820151816006015560e08201518160070160006101000a81548160ff021916908315150217905550905050807f8867cbc05eea5a895d1a2e08b969e1284f9aa3f38535dacee9b49baa35c61da760018686864261194a9190613fd8565b60405161195a9493929190614484565b60405180910390a250505050565b60095481565b611976611e9b565b600954826004546119879190613fd8565b11156119c8576040517f08c379a00000000000000000000000000000000000000000000000000000000081526004016119bf90614058565b60405180910390fd5b600083836119d66001610921565b6040516020016119e89392919061456e565b6040516020818303038152906040528051906020012090506000611a0b82612437565b90506000611a19828561246d565b9050611a23610d38565b73ffffffffffffffffffffffffffffffffffffffff168173ffffffffffffffffffffffffffffffffffffffff1614611a90576040517f08c379a0000000000000000000000000000000000000000000000000000000008152600401611a87906145f3565b60405180910390fd5b600f84604051611aa0919061465a565b908152602001604051809103902060009054906101000a900460ff1615611afc576040517f08c379a0000000000000000000000000000000000000000000000000000000008152600401611af3906146bd565b60405180910390fd5b6001600f85604051611b0e919061465a565b908152602001604051809103902060006101000a81548160ff021916908315150217905550611b4f8660018760405180602001604052806000815250612123565b8460046000828254611b619190613fd8565b925050819055508573ffffffffffffffffffffffffffffffffffffffff167f666d876a6c9ee9bb9db67db408ed7bac0280cc2abd6fc47dcf589c6a46e2ef1f86611bab6001610921565b604051611bb9929190614150565b60405180910390a2505050505050565b6000600160008473ffffffffffffffffffffffffffffffffffffffff1673ffffffffffffffffffffffffffffffffffffffff16815260200190815260200160002060008373ffffffffffffffffffffffffffffffffffffffff1673ffffffffffffffffffffffffffffffffffffffff16815260200190815260200160002060009054906101000a900460ff16905092915050565b600063f23a6e6160e01b90509695505050505050565b6000611c7d611f35565b90508073ffffffffffffffffffffffffffffffffffffffff168673ffffffffffffffffffffffffffffffffffffffff1614158015611cc25750611cc08682611bc9565b155b15611d065780866040517fe237d922000000000000000000000000000000000000000000000000000000008152600401611cfd929190613f57565b60405180910390fd5b611d13868686868661232c565b505050505050565b611d23611e9b565b600073ffffffffffffffffffffffffffffffffffffffff168173ffffffffffffffffffffffffffffffffffffffff1603611d955760006040517f1e4fbdf7000000000000000000000000000000000000000000000000000000008152600401611d8c9190613683565b60405180910390fd5b611d9e8161205d565b50565b600c6020528060005260406000206000915090505481565b60007fd9b67a26000000000000000000000000000000000000000000000000000000007bffffffffffffffffffffffffffffffffffffffffffffffffffffffff1916827bffffffffffffffffffffffffffffffffffffffffffffffffffffffff19161480611e8457507f0e89341c000000000000000000000000000000000000000000000000000000007bffffffffffffffffffffffffffffffffffffffffffffffffffffffff1916827bffffffffffffffffffffffffffffffffffffffffffffffffffffffff1916145b80611e945750611e9382612499565b5b9050919050565b611ea3611f35565b73ffffffffffffffffffffffffffffffffffffffff16611ec1610d38565b73ffffffffffffffffffffffffffffffffffffffff1614611f2057611ee4611f35565b6040517f118cdaa7000000000000000000000000000000000000000000000000000000008152600401611f179190613683565b60405180910390fd5b565b8060029081611f319190614889565b5050565b600033905090565b600073ffffffffffffffffffffffffffffffffffffffff168473ffffffffffffffffffffffffffffffffffffffff1603611faf5760006040517f57f447ce000000000000000000000000000000000000000000000000000000008152600401611fa69190613683565b60405180910390fd5b600073ffffffffffffffffffffffffffffffffffffffff168573ffffffffffffffffffffffffffffffffffffffff16036120215760006040517f01a835140000000000000000000000000000000000000000000000000000000081526004016120189190613683565b60405180910390fd5b61202e8585858585612503565b5050505050565b600060208202602084010151905092915050565b600060208202602084010151905092915050565b6000600360009054906101000a900473ffffffffffffffffffffffffffffffffffffffff16905081600360006101000a81548173ffffffffffffffffffffffffffffffffffffffff021916908373ffffffffffffffffffffffffffffffffffffffff1602179055508173ffffffffffffffffffffffffffffffffffffffff168173ffffffffffffffffffffffffffffffffffffffff167f8be0079c531659141344cd1fd0a4f28419497f9722a3daafe3b4186f6b6457e060405160405180910390a35050565b600073ffffffffffffffffffffffffffffffffffffffff168473ffffffffffffffffffffffffffffffffffffffff16036121955760006040517f57f447ce00000000000000000000000000000000000000000000000000000000815260040161218c9190613683565b60405180910390fd5b6000806121a285856125b5565b915091506121b4600087848487612503565b505050505050565b600073ffffffffffffffffffffffffffffffffffffffff168273ffffffffffffffffffffffffffffffffffffffff160361222e5760006040517fced3e1000000000000000000000000000000000000000000000000000000000081526004016122259190613683565b60405180910390fd5b80600160008573ffffffffffffffffffffffffffffffffffffffff1673ffffffffffffffffffffffffffffffffffffffff16815260200190815260200160002060008473ffffffffffffffffffffffffffffffffffffffff1673ffffffffffffffffffffffffffffffffffffffff16815260200190815260200160002060006101000a81548160ff0219169083151502179055508173ffffffffffffffffffffffffffffffffffffffff168373ffffffffffffffffffffffffffffffffffffffff167f17307eab39ab6107e8899845ad3d59bd9653f200f220920489ca2b5937696c318360405161231f919061315b565b60405180910390a3505050565b600073ffffffffffffffffffffffffffffffffffffffff168473ffffffffffffffffffffffffffffffffffffffff160361239e5760006040517f57f447ce0000000000000000000000000000000000000000000000000000000081526004016123959190613683565b60405180910390fd5b600073ffffffffffffffffffffffffffffffffffffffff168573ffffffffffffffffffffffffffffffffffffffff16036124105760006040517f01a835140000000000000000000000000000000000000000000000000000000081526004016124079190613683565b60405180910390fd5b60008061241d85856125b5565b9150915061242e8787848487612503565b50505050505050565b60007f19457468657265756d205369676e6564204d6573736167653a0a33320000000060005281601c52603c6000209050919050565b60008060008061247d86866125e5565b92509250925061248d8282612641565b82935050505092915050565b60007f01ffc9a7000000000000000000000000000000000000000000000000000000007bffffffffffffffffffffffffffffffffffffffffffffffffffffffff1916827bffffffffffffffffffffffffffffffffffffffffffffffffffffffff1916149050919050565b61250f858585856127a5565b600073ffffffffffffffffffffffffffffffffffffffff168473ffffffffffffffffffffffffffffffffffffffff16146125ae57600061254d611f35565b9050600184510361259d57600061256e60008661204990919063ffffffff16565b9050600061258660008661204990919063ffffffff16565b9050612596838989858589612b4d565b50506125ac565b6125ab818787878787612d01565b5b505b5050505050565b60608060405191506001825283602083015260408201905060018152826020820152604081016040529250929050565b6000806000604184510361262a5760008060006020870151925060408701519150606087015160001a905061261c88828585612eb5565b95509550955050505061263a565b60006002855160001b9250925092505b9250925092565b600060038111156126555761265461495b565b5b8260038111156126685761266761495b565b5b03156127a157600160038111156126825761268161495b565b5b8260038111156126955761269461495b565b5b036126cc576040517ff645eedf00000000000000000000000000000000000000000000000000000000815260040160405180910390fd5b600260038111156126e0576126df61495b565b5b8260038111156126f3576126f261495b565b5b03612738578060001c6040517ffce698f700000000000000000000000000000000000000000000000000000000815260040161272f91906130a0565b60405180910390fd5b60038081111561274b5761274a61495b565b5b82600381111561275e5761275d61495b565b5b036127a057806040517fd78bce0c00000000000000000000000000000000000000000000000000000000815260040161279791906149a3565b60405180910390fd5b5b5050565b80518251146127ef57815181516040517f5b0599910000000000000000000000000000000000000000000000000000000081526004016127e6929190613f80565b60405180910390fd5b60006127f9611f35565b905060005b8351811015612a0857600061281c828661204990919063ffffffff16565b90506000612833838661204990919063ffffffff16565b9050600073ffffffffffffffffffffffffffffffffffffffff168873ffffffffffffffffffffffffffffffffffffffff161461296057600080600084815260200190815260200160002060008a73ffffffffffffffffffffffffffffffffffffffff1673ffffffffffffffffffffffffffffffffffffffff1681526020019081526020016000205490508181101561290857888183856040517f03dee4c50000000000000000000000000000000000000000000000000000000081526004016128ff94939291906149be565b60405180910390fd5b81810360008085815260200190815260200160002060008b73ffffffffffffffffffffffffffffffffffffffff1673ffffffffffffffffffffffffffffffffffffffff16815260200190815260200160002081905550505b600073ffffffffffffffffffffffffffffffffffffffff168773ffffffffffffffffffffffffffffffffffffffff16146129fb578060008084815260200190815260200160002060008973ffffffffffffffffffffffffffffffffffffffff1673ffffffffffffffffffffffffffffffffffffffff16815260200190815260200160002060008282546129f39190613fd8565b925050819055505b50508060010190506127fe565b506001835103612ac7576000612a2860008561204990919063ffffffff16565b90506000612a4060008561204990919063ffffffff16565b90508573ffffffffffffffffffffffffffffffffffffffff168773ffffffffffffffffffffffffffffffffffffffff168473ffffffffffffffffffffffffffffffffffffffff167fc3d58168c5ae7397731d063d5bbf3d657854427343f4c083240f7aacaa2d0f628585604051612ab8929190613f80565b60405180910390a45050612b46565b8373ffffffffffffffffffffffffffffffffffffffff168573ffffffffffffffffffffffffffffffffffffffff168273ffffffffffffffffffffffffffffffffffffffff167f4a39dc06d4c0dbc64b70af90fd698a233a518aa5d07e595d983b8c0526c8f7fb8686604051612b3d929190614a03565b60405180910390a45b5050505050565b60008473ffffffffffffffffffffffffffffffffffffffff163b1115612cf9578373ffffffffffffffffffffffffffffffffffffffff1663f23a6e6187878686866040518663ffffffff1660e01b8152600401612bae959493929190614a84565b6020604051808303816000875af1925050508015612bea57506040513d601f19601f82011682018060405250810190612be79190614af3565b60015b612c6e573d8060008114612c1a576040519150601f19603f3d011682016040523d82523d6000602084013e612c1f565b606091505b506000815103612c6657846040517f57f447ce000000000000000000000000000000000000000000000000000000008152600401612c5d9190613683565b60405180910390fd5b805181602001fd5b63f23a6e6160e01b7bffffffffffffffffffffffffffffffffffffffffffffffffffffffff1916817bffffffffffffffffffffffffffffffffffffffffffffffffffffffff191614612cf757846040517f57f447ce000000000000000000000000000000000000000000000000000000008152600401612cee9190613683565b60405180910390fd5b505b505050505050565b60008473ffffffffffffffffffffffffffffffffffffffff163b1115612ead578373ffffffffffffffffffffffffffffffffffffffff1663bc197c8187878686866040518663ffffffff1660e01b8152600401612d62959493929190614b20565b6020604051808303816000875af1925050508015612d9e57506040513d601f19601f82011682018060405250810190612d9b9190614af3565b60015b612e22573d8060008114612dce576040519150601f19603f3d011682016040523d82523d6000602084013e612dd3565b606091505b506000815103612e1a57846040517f57f447ce000000000000000000000000000000000000000000000000000000008152600401612e119190613683565b60405180910390fd5b805181602001fd5b63bc197c8160e01b7bffffffffffffffffffffffffffffffffffffffffffffffffffffffff1916817bffffffffffffffffffffffffffffffffffffffffffffffffffffffff191614612eab57846040517f57f447ce000000000000000000000000000000000000000000000000000000008152600401612ea29190613683565b60405180910390fd5b505b505050505050565b60008060007f7fffffffffffffffffffffffffffffff5d576e7357a4501ddfe92f46681b20a08460001c1115612ef5576000600385925092509250612f9f565b600060018888888860405160008152602001604052604051612f1a9493929190614ba4565b6020604051602081039080840390855afa158015612f3c573d6000803e3d6000fd5b505050602060405103519050600073ffffffffffffffffffffffffffffffffffffffff168173ffffffffffffffffffffffffffffffffffffffff1603612f9057600060016000801b93509350935050612f9f565b8060008060001b935093509350505b9450945094915050565b6000604051905090565b600080fd5b600080fd5b600073ffffffffffffffffffffffffffffffffffffffff82169050919050565b6000612fe882612fbd565b9050919050565b612ff881612fdd565b811461300357600080fd5b50565b60008135905061301581612fef565b92915050565b6000819050919050565b61302e8161301b565b811461303957600080fd5b50565b60008135905061304b81613025565b92915050565b6000806040838503121561306857613067612fb3565b5b600061307685828601613006565b92505060206130878582860161303c565b9150509250929050565b61309a8161301b565b82525050565b60006020820190506130b56000830184613091565b92915050565b60007fffffffff0000000000000000000000000000000000000000000000000000000082169050919050565b6130f0816130bb565b81146130fb57600080fd5b50565b60008135905061310d816130e7565b92915050565b60006020828403121561312957613128612fb3565b5b6000613137848285016130fe565b91505092915050565b60008115159050919050565b61315581613140565b82525050565b6000602082019050613170600083018461314c565b92915050565b600080fd5b600080fd5b6000601f19601f8301169050919050565b7f4e487b7100000000000000000000000000000000000000000000000000000000600052604160045260246000fd5b6131c982613180565b810181811067ffffffffffffffff821117156131e8576131e7613191565b5b80604052505050565b60006131fb612fa9565b905061320782826131c0565b919050565b600067ffffffffffffffff82111561322757613226613191565b5b61323082613180565b9050602081019050919050565b82818337600083830152505050565b600061325f61325a8461320c565b6131f1565b90508281526020810184848401111561327b5761327a61317b565b5b61328684828561323d565b509392505050565b600082601f8301126132a3576132a2613176565b5b81356132b384826020860161324c565b91505092915050565b6000602082840312156132d2576132d1612fb3565b5b600082013567ffffffffffffffff8111156132f0576132ef612fb8565b5b6132fc8482850161328e565b91505092915050565b60006020828403121561331b5761331a612fb3565b5b60006133298482850161303c565b91505092915050565b600081519050919050565b600082825260208201905092915050565b60005b8381101561336c578082015181840152602081019050613351565b60008484015250505050565b600061338382613332565b61338d818561333d565b935061339d81856020860161334e565b6133a681613180565b840191505092915050565b600060208201905081810360008301526133cb8184613378565b905092915050565b600080604083850312156133ea576133e9612fb3565b5b60006133f88582860161303c565b92505060206134098582860161303c565b9150509250929050565b61341c81612fdd565b82525050565b60006040820190506134376000830185613413565b6134446020830184613091565b9392505050565b600067ffffffffffffffff82111561346657613465613191565b5b602082029050602081019050919050565b600080fd5b600061348f61348a8461344b565b6131f1565b905080838252602082019050602084028301858111156134b2576134b1613477565b5b835b818110156134db57806134c7888261303c565b8452602084019350506020810190506134b4565b5050509392505050565b600082601f8301126134fa576134f9613176565b5b813561350a84826020860161347c565b91505092915050565b600067ffffffffffffffff82111561352e5761352d613191565b5b61353782613180565b9050602081019050919050565b600061355761355284613513565b6131f1565b9050828152602081018484840111156135735761357261317b565b5b61357e84828561323d565b509392505050565b600082601f83011261359b5761359a613176565b5b81356135ab848260208601613544565b91505092915050565b600080600080600060a086880312156135d0576135cf612fb3565b5b60006135de88828901613006565b95505060206135ef88828901613006565b945050604086013567ffffffffffffffff8111156136105761360f612fb8565b5b61361c888289016134e5565b935050606086013567ffffffffffffffff81111561363d5761363c612fb8565b5b613649888289016134e5565b925050608086013567ffffffffffffffff81111561366a57613669612fb8565b5b61367688828901613586565b9150509295509295909350565b60006020820190506136986000830184613413565b92915050565b600067ffffffffffffffff8211156136b9576136b8613191565b5b602082029050602081019050919050565b60006136dd6136d88461369e565b6131f1565b90508083825260208201905060208402830185811115613700576136ff613477565b5b835b8181101561372957806137158882613006565b845260208401935050602081019050613702565b5050509392505050565b600082601f83011261374857613747613176565b5b81356137588482602086016136ca565b91505092915050565b6000806040838503121561377857613777612fb3565b5b600083013567ffffffffffffffff81111561379657613795612fb8565b5b6137a285828601613733565b925050602083013567ffffffffffffffff8111156137c3576137c2612fb8565b5b6137cf858286016134e5565b9150509250929050565b600081519050919050565b600082825260208201905092915050565b6000819050602082019050919050565b61380e8161301b565b82525050565b60006138208383613805565b60208301905092915050565b6000602082019050919050565b6000613844826137d9565b61384e81856137e4565b9350613859836137f5565b8060005b8381101561388a5781516138718882613814565b975061387c8361382c565b92505060018101905061385d565b5085935050505092915050565b600060208201905081810360008301526138b18184613839565b905092915050565b6000610100820190506138cf600083018b613091565b6138dc602083018a613413565b6138e96040830189613091565b6138f66060830188613091565b6139036080830187613091565b61391060a0830186613413565b61391d60c0830185613091565b61392a60e083018461314c565b9998505050505050505050565b61394081613140565b811461394b57600080fd5b50565b60008135905061395d81613937565b92915050565b6000806040838503121561397a57613979612fb3565b5b600061398885828601613006565b92505060206139998582860161394e565b9150509250929050565b600080fd5b60008083601f8401126139be576139bd613176565b5b8235905067ffffffffffffffff8111156139db576139da6139a3565b5b6020830191508360208202830111156139f7576139f6613477565b5b9250929050565b60008083601f840112613a1457613a13613176565b5b8235905067ffffffffffffffff811115613a3157613a306139a3565b5b602083019150836001820283011115613a4d57613a4c613477565b5b9250929050565b60008060008060008060008060a0898b031215613a7457613a73612fb3565b5b6000613a828b828c01613006565b9850506020613a938b828c01613006565b975050604089013567ffffffffffffffff811115613ab457613ab3612fb8565b5b613ac08b828c016139a8565b9650965050606089013567ffffffffffffffff811115613ae357613ae2612fb8565b5b613aef8b828c016139a8565b9450945050608089013567ffffffffffffffff811115613b1257613b11612fb8565b5b613b1e8b828c016139fe565b92509250509295985092959890939650565b613b39816130bb565b82525050565b6000602082019050613b546000830184613b30565b92915050565b600080600060608486031215613b7357613b72612fb3565b5b6000613b818682870161303c565b9350506020613b928682870161303c565b9250506040613ba38682870161303c565b9150509250925092565b600080600060608486031215613bc657613bc5612fb3565b5b6000613bd486828701613006565b9350506020613be58682870161303c565b925050604084013567ffffffffffffffff811115613c0657613c05612fb8565b5b613c1286828701613586565b9150509250925092565b60008060408385031215613c3357613c32612fb3565b5b6000613c4185828601613006565b9250506020613c5285828601613006565b9150509250929050565b60008060008060008060a08789031215613c7957613c78612fb3565b5b6000613c8789828a01613006565b9650506020613c9889828a01613006565b9550506040613ca989828a0161303c565b9450506060613cba89828a0161303c565b935050608087013567ffffffffffffffff811115613cdb57613cda612fb8565b5b613ce789828a016139fe565b92509250509295509295509295565b600080600080600060a08688031215613d1257613d11612fb3565b5b6000613d2088828901613006565b9550506020613d3188828901613006565b9450506040613d428882890161303c565b9350506060613d538882890161303c565b925050608086013567ffffffffffffffff811115613d7457613d73612fb8565b5b613d8088828901613586565b9150509295509295909350565b600060208284031215613da357613da2612fb3565b5b6000613db184828501613006565b91505092915050565b7f4e487b7100000000000000000000000000000000000000000000000000000000600052602260045260246000fd5b60006002820490506001821680613e0157607f821691505b602082108103613e1457613e13613dba565b5b50919050565b7f526f79616c747920746f6f206869676800000000000000000000000000000000600082015250565b6000613e5060108361333d565b9150613e5b82613e1a565b602082019050919050565b60006020820190508181036000830152613e7f81613e43565b9050919050565b7f4e487b7100000000000000000000000000000000000000000000000000000000600052601160045260246000fd5b6000613ec08261301b565b9150613ecb8361301b565b9250828202613ed98161301b565b91508282048414831517613ef057613eef613e86565b5b5092915050565b7f4e487b7100000000000000000000000000000000000000000000000000000000600052601260045260246000fd5b6000613f318261301b565b9150613f3c8361301b565b925082613f4c57613f4b613ef7565b5b828204905092915050565b6000604082019050613f6c6000830185613413565b613f796020830184613413565b9392505050565b6000604082019050613f956000830185613091565b613fa26020830184613091565b9392505050565b7f4e487b7100000000000000000000000000000000000000000000000000000000600052603260045260246000fd5b6000613fe38261301b565b9150613fee8361301b565b925082820190508082111561400657614005613e86565b5b92915050565b7f45786365656473206d617820737570706c790000000000000000000000000000600082015250565b600061404260128361333d565b915061404d8261400c565b602082019050919050565b6000602082019050818103600083015261407181614035565b9050919050565b7f496e73756666696369656e74207061796d656e74000000000000000000000000600082015250565b60006140ae60148361333d565b91506140b982614078565b602082019050919050565b600060208201905081810360008301526140dd816140a1565b9050919050565b7f45786365656473206d696e74206c696d6974207065722077616c6c6574000000600082015250565b600061411a601d8361333d565b9150614125826140e4565b602082019050919050565b600060208201905081810360008301526141498161410d565b9050919050565b60006040820190506141656000830185613091565b81810360208301526141778184613378565b90509392505050565b7f41756374696f6e20656e64656400000000000000000000000000000000000000600082015250565b60006141b6600d8361333d565b91506141c182614180565b602082019050919050565b600060208201905081810360008301526141e5816141a9565b9050919050565b7f42696420746f6f206c6f77000000000000000000000000000000000000000000600082015250565b6000614222600b8361333d565b915061422d826141ec565b602082019050919050565b6000602082019050818103600083015261425181614215565b9050919050565b7f41756374696f6e20616c726561647920656e6465640000000000000000000000600082015250565b600061428e60158361333d565b915061429982614258565b602082019050919050565b600060208201905081810360008301526142bd81614281565b9050919050565b7f41756374696f6e206e6f742079657420656e6465640000000000000000000000600082015250565b60006142fa60158361333d565b9150614305826142c4565b602082019050919050565b60006020820190508181036000830152614329816142ed565b9050919050565b600061433b8261301b565b91506143468361301b565b925082820390508181111561435e5761435d613e86565b5b92915050565b7f496e73756666696369656e742062616c616e6365000000000000000000000000600082015250565b600061439a60148361333d565b91506143a582614364565b602082019050919050565b600060208201905081810360008301526143c98161438d565b9050919050565b7f416d6f756e74206d7573742062652067726561746572207468616e2030000000600082015250565b6000614406601d8361333d565b9150614411826143d0565b602082019050919050565b60006020820190508181036000830152614435816143f9565b9050919050565b60006144478261301b565b91507fffffffffffffffffffffffffffffffffffffffffffffffffffffffffffffffff820361447957614478613e86565b5b600182019050919050565b60006080820190506144996000830187613091565b6144a66020830186613091565b6144b36040830185613091565b6144c06060830184613091565b95945050505050565b60008160601b9050919050565b60006144e1826144c9565b9050919050565b60006144f3826144d6565b9050919050565b61450b61450682612fdd565b6144e8565b82525050565b6000819050919050565b61452c6145278261301b565b614511565b82525050565b600081905092915050565b600061454882613332565b6145528185614532565b935061456281856020860161334e565b80840191505092915050565b600061457a82866144fa565b60148201915061458a828561451b565b60208201915061459a828461453d565b9150819050949350505050565b7f496e76616c6964207369676e6174757265000000000000000000000000000000600082015250565b60006145dd60118361333d565b91506145e8826145a7565b602082019050919050565b6000602082019050818103600083015261460c816145d0565b9050919050565b600081519050919050565b600081905092915050565b600061463482614613565b61463e818561461e565b935061464e81856020860161334e565b80840191505092915050565b60006146668284614629565b915081905092915050565b7f5369676e617475726520616c7265616479207573656400000000000000000000600082015250565b60006146a760168361333d565b91506146b282614671565b602082019050919050565b600060208201905081810360008301526146d68161469a565b9050919050565b60008190508160005260206000209050919050565b60006020601f8301049050919050565b600082821b905092915050565b60006008830261473f7fffffffffffffffffffffffffffffffffffffffffffffffffffffffffffffffff82614702565b6147498683614702565b95508019841693508086168417925050509392505050565b6000819050919050565b600061478661478161477c8461301b565b614761565b61301b565b9050919050565b6000819050919050565b6147a08361476b565b6147b46147ac8261478d565b84845461470f565b825550505050565b600090565b6147c96147bc565b6147d4818484614797565b505050565b5b818110156147f8576147ed6000826147c1565b6001810190506147da565b5050565b601f82111561483d5761480e816146dd565b614817846146f2565b81016020851015614826578190505b61483a614832856146f2565b8301826147d9565b50505b505050565b600082821c905092915050565b600061486060001984600802614842565b1980831691505092915050565b6000614879838361484f565b9150826002028217905092915050565b61489282613332565b67ffffffffffffffff8111156148ab576148aa613191565b5b6148b58254613de9565b6148c08282856147fc565b600060209050601f8311600181146148f357600084156148e1578287015190505b6148eb858261486d565b865550614953565b601f198416614901866146dd565b60005b8281101561492957848901518255600182019150602085019450602081019050614904565b868310156149465784890151614942601f89168261484f565b8355505b6001600288020188555050505b505050505050565b7f4e487b7100000000000000000000000000000000000000000000000000000000600052602160045260246000fd5b6000819050919050565b61499d8161498a565b82525050565b60006020820190506149b86000830184614994565b92915050565b60006080820190506149d36000830187613413565b6149e06020830186613091565b6149ed6040830185613091565b6149fa6060830184613091565b95945050505050565b60006040820190508181036000830152614a1d8185613839565b90508181036020830152614a318184613839565b90509392505050565b600082825260208201905092915050565b6000614a5682614613565b614a608185614a3a565b9350614a7081856020860161334e565b614a7981613180565b840191505092915050565b600060a082019050614a996000830188613413565b614aa66020830187613413565b614ab36040830186613091565b614ac06060830185613091565b8181036080830152614ad28184614a4b565b90509695505050505050565b600081519050614aed816130e7565b92915050565b600060208284031215614b0957614b08612fb3565b5b6000614b1784828501614ade565b91505092915050565b600060a082019050614b356000830188613413565b614b426020830187613413565b8181036040830152614b548186613839565b90508181036060830152614b688185613839565b90508181036080830152614b7c8184614a4b565b90509695505050505050565b600060ff82169050919050565b614b9e81614b88565b82525050565b6000608082019050614bb96000830187614994565b614bc66020830186614b95565b614bd36040830185614994565b614be06060830184614994565b9594505050505056fea2646970667358221220e3e85714a36d72816b4eab0f4903b385d5ca28492768a7862694cb8014eef85c64736f6c634300081c0033",
  "linkReferences": {},
  "deployedLinkReferences": {}
}