{
  "_format": "hh-sol-artifact-1",
  "contractName": "NFTManager",
  "sourceName": "contracts/NFTManager.sol",
  "abi": [
    {
      "inputs": [
        {
          "internalType": "string",
          "name": "name",
          "type": "string"
        },
        {
          "internalType": "string",
          "name": "uri",
          "type": "string"
        },
        {
          "internalType": "address",
          "name": "_feeRecipient",
          "type": "address"
        },
        {
          "internalType": "uint256",
          "name": "_feePercentage",
          "type": "uint256"
        },
        {
          "internalType": "uint256",
          "name": "_maxSupply",
          "type": "uint256"
        },
        {
          "internalType": "uint256",
          "name": "_mintLimit",
          "type": "uint256"
        },
        {
          "internalType": "uint256",
          "name": "_mintPrice",
          "type": "uint256"
        }
      ],
      "stateMutability": "nonpayable",
      "type": "constructor"
    },
    {
      "inputs": [
        {
          "internalType": "address",
          "name": "sender",
          "type": "address"
        },
        {
          "internalType": "uint256",
          "name": "balance",
          "type": "uint256"
        },
        {
          "internalType": "uint256",
          "name": "needed",
          "type": "uint256"
        },
        {
          "internalType": "uint256",
          "name": "tokenId",
          "type": "uint256"
        }
      ],
      "name": "ERC1155InsufficientBalance",
      "type": "error"
    },
    {
      "inputs": [
        {
          "internalType": "address",
          "name": "approver",
          "type": "address"
        }
      ],
      "name": "ERC1155InvalidApprover",
      "type": "error"
    },
    {
      "inputs": [
        {
          "internalType": "uint256",
          "name": "idsLength",
          "type": "uint256"
        },
        {
          "internalType": "uint256",
          "name": "valuesLength",
          "type": "uint256"
        }
      ],
      "name": "ERC1155InvalidArrayLength",
      "type": "error"
    },
    {
      "inputs": [
        {
          "internalType": "address",
          "name": "operator",
          "type": "address"
        }
      ],
      "name": "ERC1155InvalidOperator",
      "type": "error"
    },
    {
      "inputs": [
        {
          "internalType": "address",
          "name": "receiver",
          "type": "address"
        }
      ],
      "name": "ERC1155InvalidReceiver",
      "type": "error"
    },
    {
      "inputs": [
        {
          "internalType": "address",
          "name": "sender",
          "type": "address"
        }
      ],
      "name": "ERC1155InvalidSender",
      "type": "error"
    },
    {
      "inputs": [
        {
          "internalType": "address",
          "name": "operator",
          "type": "address"
        },
        {
          "internalType": "address",
          "name": "owner",
          "type": "address"
        }
      ],
      "name": "ERC1155MissingApprovalForAll",
      "type": "error"
    },
    {
      "inputs": [
        {
          "internalType": "address",
          "name": "owner",
          "type": "address"
        }
      ],
      "name": "OwnableInvalidOwner",
      "type": "error"
    },
    {
      "inputs": [
        {
          "internalType": "address",
          "name": "account",
          "type": "address"
        }
      ],
      "name": "OwnableUnauthorizedAccount",
      "type": "error"
    },
    {
      "anonymous": false,
      "inputs": [
        {
          "indexed": false,
          "internalType": "uint256",
          "name": "stageId",
          "type": "uint256"
        },
        {
          "indexed": false,
          "internalType": "uint256",
          "name": "mintPrice",
          "type": "uint256"
        },
        {
          "indexed": false,
          "internalType": "uint256",
          "name": "startTime",
          "type": "uint256"
        },
        {
          "indexed": false,
          "internalType": "uint256",
          "name": "endTime",
          "type": "uint256"
        }
      ],
      "name": "AllowlistStageAdded",
      "type": "event"
    },
    {
      "anonymous": false,
      "inputs": [
        {
          "indexed": true,
          "internalType": "address",
          "name": "account",
          "type": "address"
        },
        {
          "indexed": true,
          "internalType": "address",
          "name": "operator",
          "type": "address"
        },
        {
          "indexed": false,
          "internalType": "bool",
          "name": "approved",
          "type": "bool"
        }
      ],
      "name": "ApprovalForAll",
      "type": "event"
    },
    {
      "anonymous": false,
      "inputs": [
        {
          "indexed": true,
          "internalType": "address",
          "name": "recipient",
          "type": "address"
        },
        {
          "indexed": false,
          "internalType": "uint256",
          "name": "amount",
          "type": "uint256"
        },
        {
          "indexed": false,
          "internalType": "string",
          "name": "uri",
          "type": "string"
        }
      ],
      "name": "NFTMinted",
      "type": "event"
    },
    {
      "anonymous": false,
      "inputs": [
        {
          "indexed": true,
          "internalType": "address",
          "name": "previousOwner",
          "type": "address"
        },
        {
          "indexed": true,
          "internalType": "address",
          "name": "newOwner",
          "type": "address"
        }
      ],
      "name": "OwnershipTransferred",
      "type": "event"
    },
    {
      "anonymous": false,
      "inputs": [
        {
          "indexed": true,
          "internalType": "address",
          "name": "operator",
          "type": "address"
        },
        {
          "indexed": true,
          "internalType": "address",
          "name": "from",
          "type": "address"
        },
        {
          "indexed": true,
          "internalType": "address",
          "name": "to",
          "type": "address"
        },
        {
          "indexed": false,
          "internalType": "uint256[]",
          "name": "ids",
          "type": "uint256[]"
        },
        {
          "indexed": false,
          "internalType": "uint256[]",
          "name": "values",
          "type": "uint256[]"
        }
      ],
      "name": "TransferBatch",
      "type": "event"
    },
    {
      "anonymous": false,
      "inputs": [
        {
          "indexed": true,
          "internalType": "address",
          "name": "operator",
          "type": "address"
        },
        {
          "indexed": true,
          "internalType": "address",
          "name": "from",
          "type": "address"
        },
        {
          "indexed": true,
          "internalType": "address",
          "name": "to",
          "type": "address"
        },
        {
          "indexed": false,
          "internalType": "uint256",
          "name": "id",
          "type": "uint256"
        },
        {
          "indexed": false,
          "internalType": "uint256",
          "name": "value",
          "type": "uint256"
        }
      ],
      "name": "TransferSingle",
      "type": "event"
    },
    {
      "anonymous": false,
      "inputs": [
        {
          "indexed": false,
          "internalType": "string",
          "name": "value",
          "type": "string"
        },
        {
          "indexed": true,
          "internalType": "uint256",
          "name": "id",
          "type": "uint256"
        }
      ],
      "name": "URI",
      "type": "event"
    },
    {
      "inputs": [
        {
          "internalType": "uint256",
          "name": "stageId",
          "type": "uint256"
        },
        {
          "internalType": "uint256",
          "name": "stageMintPrice",
          "type": "uint256"
        },
        {
          "internalType": "uint256",
          "name": "startTime",
          "type": "uint256"
        },
        {
          "internalType": "uint256",
          "name": "duration",
          "type": "uint256"
        },
        {
          "internalType": "address[]",
          "name": "wallets",
          "type": "address[]"
        }
      ],
      "name": "addAllowlistStage",
      "outputs": [],
      "stateMutability": "nonpayable",
      "type": "function"
    },
    {
      "inputs": [
        {
          "internalType": "uint256",
          "name": "",
          "type": "uint256"
        }
      ],
      "name": "allowlistStages",
      "outputs": [
        {
          "internalType": "uint256",
          "name": "mintPrice",
          "type": "uint256"
        },
        {
          "internalType": "uint256",
          "name": "startTime",
          "type": "uint256"
        },
        {
          "internalType": "uint256",
          "name": "endTime",
          "type": "uint256"
        }
      ],
      "stateMutability": "view",
      "type": "function"
    },
    {
      "inputs": [
        {
          "internalType": "address",
          "name": "account",
          "type": "address"
        },
        {
          "internalType": "uint256",
          "name": "id",
          "type": "uint256"
        }
      ],
      "name": "balanceOf",
      "outputs": [
        {
          "internalType": "uint256",
          "name": "",
          "type": "uint256"
        }
      ],
      "stateMutability": "view",
      "type": "function"
    },
    {
      "inputs": [
        {
          "internalType": "address[]",
          "name": "accounts",
          "type": "address[]"
        },
        {
          "internalType": "uint256[]",
          "name": "ids",
          "type": "uint256[]"
        }
      ],
      "name": "balanceOfBatch",
      "outputs": [
        {
          "internalType": "uint256[]",
          "name": "",
          "type": "uint256[]"
        }
      ],
      "stateMutability": "view",
      "type": "function"
    },
    {
      "inputs": [
        {
          "internalType": "address",
          "name": "account",
          "type": "address"
        },
        {
          "internalType": "address",
          "name": "operator",
          "type": "address"
        }
      ],
      "name": "isApprovedForAll",
      "outputs": [
        {
          "internalType": "bool",
          "name": "",
          "type": "bool"
        }
      ],
      "stateMutability": "view",
      "type": "function"
    },
    {
      "inputs": [],
      "name": "marketplaceFeePercentage",
      "outputs": [
        {
          "internalType": "uint256",
          "name": "",
          "type": "uint256"
        }
      ],
      "stateMutability": "view",
      "type": "function"
    },
    {
      "inputs": [],
      "name": "marketplaceFeeRecipient",
      "outputs": [
        {
          "internalType": "address",
          "name": "",
          "type": "address"
        }
      ],
      "stateMutability": "view",
      "type": "function"
    },
    {
      "inputs": [],
      "name": "maxSupply",
      "outputs": [
        {
          "internalType": "uint256",
          "name": "",
          "type": "uint256"
        }
      ],
      "stateMutability": "view",
      "type": "function"
    },
    {
      "inputs": [
        {
          "internalType": "address",
          "name": "",
          "type": "address"
        }
      ],
      "name": "mintCountPerWallet",
      "outputs": [
        {
          "internalType": "uint256",
          "name": "",
          "type": "uint256"
        }
      ],
      "stateMutability": "view",
      "type": "function"
    },
    {
      "inputs": [],
      "name": "mintLimit",
      "outputs": [
        {
          "internalType": "uint256",
          "name": "",
          "type": "uint256"
        }
      ],
      "stateMutability": "view",
      "type": "function"
    },
    {
      "inputs": [
        {
          "internalType": "uint256",
          "name": "amount",
          "type": "uint256"
        },
        {
          "internalType": "uint256",
          "name": "stageId",
          "type": "uint256"
        }
      ],
      "name": "mintNFT",
      "outputs": [
        {
          "internalType": "uint256",
          "name": "",
          "type": "uint256"
        }
      ],
      "stateMutability": "payable",
      "type": "function"
    },
    {
      "inputs": [],
      "name": "mintPrice",
      "outputs": [
        {
          "internalType": "uint256",
          "name": "",
          "type": "uint256"
        }
      ],
      "stateMutability": "view",
      "type": "function"
    },
    {
      "inputs": [
        {
          "internalType": "address",
          "name": "",
          "type": "address"
        },
        {
          "internalType": "address",
          "name": "",
          "type": "address"
        },
        {
          "internalType": "uint256[]",
          "name": "",
          "type": "uint256[]"
        },
        {
          "internalType": "uint256[]",
          "name": "",
          "type": "uint256[]"
        },
        {
          "internalType": "bytes",
          "name": "",
          "type": "bytes"
        }
      ],
      "name": "onERC1155BatchReceived",
      "outputs": [
        {
          "internalType": "bytes4",
          "name": "",
          "type": "bytes4"
        }
      ],
      "stateMutability": "pure",
      "type": "function"
    },
    {
      "inputs": [
        {
          "internalType": "address",
          "name": "",
          "type": "address"
        },
        {
          "internalType": "address",
          "name": "",
          "type": "address"
        },
        {
          "internalType": "uint256",
          "name": "",
          "type": "uint256"
        },
        {
          "internalType": "uint256",
          "name": "",
          "type": "uint256"
        },
        {
          "internalType": "bytes",
          "name": "",
          "type": "bytes"
        }
      ],
      "name": "onERC1155Received",
      "outputs": [
        {
          "internalType": "bytes4",
          "name": "",
          "type": "bytes4"
        }
      ],
      "stateMutability": "pure",
      "type": "function"
    },
    {
      "inputs": [],
      "name": "owner",
      "outputs": [
        {
          "internalType": "address",
          "name": "",
          "type": "address"
        }
      ],
      "stateMutability": "view",
      "type": "function"
    },
    {
      "inputs": [],
      "name": "renounceOwnership",
      "outputs": [],
      "stateMutability": "nonpayable",
      "type": "function"
    },
    {
      "inputs": [
        {
          "internalType": "uint256",
          "name": "",
          "type": "uint256"
        },
        {
          "internalType": "uint256",
          "name": "salePrice",
          "type": "uint256"
        }
      ],
      "name": "royaltyInfo",
      "outputs": [
        {
          "internalType": "address",
          "name": "",
          "type": "address"
        },
        {
          "internalType": "uint256",
          "name": "",
          "type": "uint256"
        }
      ],
      "stateMutability": "view",
      "type": "function"
    },
    {
      "inputs": [],
      "name": "royaltyPercentage",
      "outputs": [
        {
          "internalType": "uint256",
          "name": "",
          "type": "uint256"
        }
      ],
      "stateMutability": "view",
      "type": "function"
    },
    {
      "inputs": [],
      "name": "royaltyRecipient",
      "outputs": [
        {
          "internalType": "address",
          "name": "",
          "type": "address"
        }
      ],
      "stateMutability": "view",
      "type": "function"
    },
    {
      "inputs": [
        {
          "internalType": "address",
          "name": "from",
          "type": "address"
        },
        {
          "internalType": "address",
          "name": "to",
          "type": "address"
        },
        {
          "internalType": "uint256[]",
          "name": "ids",
          "type": "uint256[]"
        },
        {
          "internalType": "uint256[]",
          "name": "values",
          "type": "uint256[]"
        },
        {
          "internalType": "bytes",
          "name": "data",
          "type": "bytes"
        }
      ],
      "name": "safeBatchTransferFrom",
      "outputs": [],
      "stateMutability": "nonpayable",
      "type": "function"
    },
    {
      "inputs": [
        {
          "internalType": "address",
          "name": "from",
          "type": "address"
        },
        {
          "internalType": "address",
          "name": "to",
          "type": "address"
        },
        {
          "internalType": "uint256",
          "name": "id",
          "type": "uint256"
        },
        {
          "internalType": "uint256",
          "name": "value",
          "type": "uint256"
        },
        {
          "internalType": "bytes",
          "name": "data",
          "type": "bytes"
        }
      ],
      "name": "safeTransferFrom",
      "outputs": [],
      "stateMutability": "nonpayable",
      "type": "function"
    },
    {
      "inputs": [
        {
          "internalType": "address",
          "name": "operator",
          "type": "address"
        },
        {
          "internalType": "bool",
          "name": "approved",
          "type": "bool"
        }
      ],
      "name": "setApprovalForAll",
      "outputs": [],
      "stateMutability": "nonpayable",
      "type": "function"
    },
    {
      "inputs": [
        {
          "internalType": "address",
          "name": "recipient",
          "type": "address"
        },
        {
          "internalType": "uint256",
          "name": "percentage",
          "type": "uint256"
        }
      ],
      "name": "setRoyalty",
      "outputs": [],
      "stateMutability": "nonpayable",
      "type": "function"
    },
    {
      "inputs": [],
      "name": "stageCount",
      "outputs": [
        {
          "internalType": "uint256",
          "name": "",
          "type": "uint256"
        }
      ],
      "stateMutability": "view",
      "type": "function"
    },
    {
      "inputs": [
        {
          "internalType": "bytes4",
          "name": "interfaceId",
          "type": "bytes4"
        }
      ],
      "name": "supportsInterface",
      "outputs": [
        {
          "internalType": "bool",
          "name": "",
          "type": "bool"
        }
      ],
      "stateMutability": "view",
      "type": "function"
    },
    {
      "inputs": [
        {
          "internalType": "address",
          "name": "newOwner",
          "type": "address"
        }
      ],
      "name": "transferOwnership",
      "outputs": [],
      "stateMutability": "nonpayable",
      "type": "function"
    },
    {
      "inputs": [
        {
          "internalType": "uint256",
          "name": "",
          "type": "uint256"
        }
      ],
      "name": "uri",
      "outputs": [
        {
          "internalType": "string",
          "name": "",
          "type": "string"
        }
      ],
      "stateMutability": "view",
      "type": "function"
    }
  ],
  "bytecode": "0x608060405234801561001057600080fd5b50604051613f01380380613f018339818101604052810190610032919061045a565b33866100438161017860201b60201c565b50600073ffffffffffffffffffffffffffffffffffffffff168173ffffffffffffffffffffffffffffffffffffffff16036100b65760006040517f1e4fbdf70000000000000000000000000000000000000000000000000000000081526004016100ad9190610543565b60405180910390fd5b6100c58161018b60201b60201c565b5084600560006101000a81548173ffffffffffffffffffffffffffffffffffffffff021916908373ffffffffffffffffffffffffffffffffffffffff160217905550836006819055508260098190555081600a8190555080600b8190555033600760006101000a81548173ffffffffffffffffffffffffffffffffffffffff021916908373ffffffffffffffffffffffffffffffffffffffff160217905550600060088190555050505050505050610847565b80600290816101879190610775565b5050565b6000600360009054906101000a900473ffffffffffffffffffffffffffffffffffffffff16905081600360006101000a81548173ffffffffffffffffffffffffffffffffffffffff021916908373ffffffffffffffffffffffffffffffffffffffff1602179055508173ffffffffffffffffffffffffffffffffffffffff168173ffffffffffffffffffffffffffffffffffffffff167f8be0079c531659141344cd1fd0a4f28419497f9722a3daafe3b4186f6b6457e060405160405180910390a35050565b6000604051905090565b600080fd5b600080fd5b600080fd5b600080fd5b6000601f19601f8301169050919050565b7f4e487b7100000000000000000000000000000000000000000000000000000000600052604160045260246000fd5b6102b88261026f565b810181811067ffffffffffffffff821117156102d7576102d6610280565b5b80604052505050565b60006102ea610251565b90506102f682826102af565b919050565b600067ffffffffffffffff82111561031657610315610280565b5b61031f8261026f565b9050602081019050919050565b60005b8381101561034a57808201518184015260208101905061032f565b60008484015250505050565b6000610369610364846102fb565b6102e0565b9050828152602081018484840111156103855761038461026a565b5b61039084828561032c565b509392505050565b600082601f8301126103ad576103ac610265565b5b81516103bd848260208601610356565b91505092915050565b600073ffffffffffffffffffffffffffffffffffffffff82169050919050565b60006103f1826103c6565b9050919050565b610401816103e6565b811461040c57600080fd5b50565b60008151905061041e816103f8565b92915050565b6000819050919050565b61043781610424565b811461044257600080fd5b50565b6000815190506104548161042e565b92915050565b600080600080600080600060e0888a0312156104795761047861025b565b5b600088015167ffffffffffffffff81111561049757610496610260565b5b6104a38a828b01610398565b975050602088015167ffffffffffffffff8111156104c4576104c3610260565b5b6104d08a828b01610398565b96505060406104e18a828b0161040f565b95505060606104f28a828b01610445565b94505060806105038a828b01610445565b93505060a06105148a828b01610445565b92505060c06105258a828b01610445565b91505092959891949750929550565b61053d816103e6565b82525050565b60006020820190506105586000830184610534565b92915050565b600081519050919050565b7f4e487b7100000000000000000000000000000000000000000000000000000000600052602260045260246000fd5b600060028204905060018216806105b057607f821691505b6020821081036105c3576105c2610569565b5b50919050565b60008190508160005260206000209050919050565b60006020601f8301049050919050565b600082821b905092915050565b60006008830261062b7fffffffffffffffffffffffffffffffffffffffffffffffffffffffffffffffff826105ee565b61063586836105ee565b95508019841693508086168417925050509392505050565b6000819050919050565b600061067261066d61066884610424565b61064d565b610424565b9050919050565b6000819050919050565b61068c83610657565b6106a061069882610679565b8484546105fb565b825550505050565b600090565b6106b56106a8565b6106c0818484610683565b505050565b5b818110156106e4576106d96000826106ad565b6001810190506106c6565b5050565b601f821115610729576106fa816105c9565b610703846105de565b81016020851015610712578190505b61072661071e856105de565b8301826106c5565b50505b505050565b600082821c905092915050565b600061074c6000198460080261072e565b1980831691505092915050565b6000610765838361073b565b9150826002028217905092915050565b61077e8261055e565b67ffffffffffffffff81111561079757610796610280565b5b6107a18254610598565b6107ac8282856106e8565b600060209050601f8311600181146107df57600084156107cd578287015190505b6107d78582610759565b86555061083f565b601f1984166107ed866105c9565b60005b82811015610815578489015182556001820191506020850194506020810190506107f0565b86831015610832578489015161082e601f89168261073b565b8355505b6001600288020188555050505b505050505050565b6136ab806108566000396000f3fe60806040526004361061019b5760003560e01c80638da5cb5b116100ec578063d5abeb011161008a578063f242432a11610064578063f242432a1461060b578063f2fde38b14610634578063f33261ac1461065d578063f335eac9146106885761019b565b8063d5abeb0114610566578063e985e9c514610591578063f23a6e61146105ce5761019b565b8063b7adc9c7116100c6578063b7adc9c71461048f578063bc197c81146104ce578063c48283ff1461050b578063c49d91de1461053b5761019b565b80638da5cb5b14610410578063996517cf1461043b578063a22cb465146104665761019b565b80634adadddf116101595780636817c76c116101335780636817c76c1461037a578063699aa489146103a5578063715018a6146103ce5780638a71bb2d146103e55761019b565b80634adadddf146102e75780634c00de82146103125780634e1273f41461033d5761019b565b8062fdd58e146101a057806301ffc9a7146101dd5780630e89341c1461021a57806310fd332b146102575780632a55205a146102805780632eb2c2d6146102be575b600080fd5b3480156101ac57600080fd5b506101c760048036038101906101c29190612290565b6106c5565b6040516101d491906122df565b60405180910390f35b3480156101e957600080fd5b5061020460048036038101906101ff9190612352565b61071f565b604051610211919061239a565b60405180910390f35b34801561022657600080fd5b50610241600480360381019061023c91906123b5565b610801565b60405161024e9190612472565b60405180910390f35b34801561026357600080fd5b5061027e60048036038101906102799190612290565b610895565b005b34801561028c57600080fd5b506102a760048036038101906102a29190612494565b61092e565b6040516102b59291906124e3565b60405180910390f35b3480156102ca57600080fd5b506102e560048036038101906102e09190612709565b610980565b005b3480156102f357600080fd5b506102fc610a28565b60405161030991906122df565b60405180910390f35b34801561031e57600080fd5b50610327610a2e565b60405161033491906127d8565b60405180910390f35b34801561034957600080fd5b50610364600480360381019061035f91906128b6565b610a54565b60405161037191906129ec565b60405180910390f35b34801561038657600080fd5b5061038f610b5d565b60405161039c91906122df565b60405180910390f35b3480156103b157600080fd5b506103cc60048036038101906103c79190612a0e565b610b63565b005b3480156103da57600080fd5b506103e3610cda565b005b3480156103f157600080fd5b506103fa610cee565b60405161040791906122df565b60405180910390f35b34801561041c57600080fd5b50610425610cf4565b60405161043291906127d8565b60405180910390f35b34801561044757600080fd5b50610450610d1e565b60405161045d91906122df565b60405180910390f35b34801561047257600080fd5b5061048d60048036038101906104889190612ad1565b610d24565b005b34801561049b57600080fd5b506104b660048036038101906104b191906123b5565b610d3a565b6040516104c593929190612b11565b60405180910390f35b3480156104da57600080fd5b506104f560048036038101906104f09190612bf9565b610d64565b6040516105029190612ce4565b60405180910390f35b61052560048036038101906105209190612494565b610d7c565b60405161053291906122df565b60405180910390f35b34801561054757600080fd5b506105506110ff565b60405161055d91906127d8565b60405180910390f35b34801561057257600080fd5b5061057b611125565b60405161058891906122df565b60405180910390f35b34801561059d57600080fd5b506105b860048036038101906105b39190612cff565b61112b565b6040516105c5919061239a565b60405180910390f35b3480156105da57600080fd5b506105f560048036038101906105f09190612d3f565b6111bf565b6040516106029190612ce4565b60405180910390f35b34801561061757600080fd5b50610632600480360381019061062d9190612dd9565b6111d5565b005b34801561064057600080fd5b5061065b60048036038101906106569190612e70565b61127d565b005b34801561066957600080fd5b50610672611303565b60405161067f91906122df565b60405180910390f35b34801561069457600080fd5b506106af60048036038101906106aa9190612e70565b611309565b6040516106bc91906122df565b60405180910390f35b600080600083815260200190815260200160002060008473ffffffffffffffffffffffffffffffffffffffff1673ffffffffffffffffffffffffffffffffffffffff16815260200190815260200160002054905092915050565b60007f2a55205a000000000000000000000000000000000000000000000000000000007bffffffffffffffffffffffffffffffffffffffffffffffffffffffff1916827bffffffffffffffffffffffffffffffffffffffffffffffffffffffff191614806107ea57507f4e2312e0000000000000000000000000000000000000000000000000000000007bffffffffffffffffffffffffffffffffffffffffffffffffffffffff1916827bffffffffffffffffffffffffffffffffffffffffffffffffffffffff1916145b806107fa57506107f982611321565b5b9050919050565b60606002805461081090612ecc565b80601f016020809104026020016040519081016040528092919081815260200182805461083c90612ecc565b80156108895780601f1061085e57610100808354040283529160200191610889565b820191906000526020600020905b81548152906001019060200180831161086c57829003601f168201915b50505050509050919050565b61089d611403565b6127108111156108e2576040517f08c379a00000000000000000000000000000000000000000000000000000000081526004016108d990612f49565b60405180910390fd5b81600760006101000a81548173ffffffffffffffffffffffffffffffffffffffff021916908373ffffffffffffffffffffffffffffffffffffffff160217905550806008819055505050565b6000806000612710600854856109449190612f98565b61094e9190613009565b9050600760009054906101000a900473ffffffffffffffffffffffffffffffffffffffff168192509250509250929050565b600061098a61148a565b90508073ffffffffffffffffffffffffffffffffffffffff168673ffffffffffffffffffffffffffffffffffffffff16141580156109cf57506109cd868261112b565b155b15610a135780866040517fe237d922000000000000000000000000000000000000000000000000000000008152600401610a0a92919061303a565b60405180910390fd5b610a208686868686611492565b505050505050565b60065481565b600760009054906101000a900473ffffffffffffffffffffffffffffffffffffffff1681565b60608151835114610aa057815183516040517f5b059991000000000000000000000000000000000000000000000000000000008152600401610a97929190613063565b60405180910390fd5b6000835167ffffffffffffffff811115610abd57610abc612511565b5b604051908082528060200260200182016040528015610aeb5781602001602082028036833780820191505090505b50905060005b8451811015610b5257610b28610b10828761158a90919063ffffffff16565b610b23838761159e90919063ffffffff16565b6106c5565b828281518110610b3b57610b3a61308c565b5b602002602001018181525050806001019050610af1565b508091505092915050565b600b5481565b610b6b611403565b42831015610bae576040517f08c379a0000000000000000000000000000000000000000000000000000000008152600401610ba590613107565b60405180910390fd5b6000600c600087815260200190815260200160002090508481600001819055508381600101819055508284610be39190613127565b816002018190555060005b8251811015610c78576001826003016000858481518110610c1257610c1161308c565b5b602002602001015173ffffffffffffffffffffffffffffffffffffffff1673ffffffffffffffffffffffffffffffffffffffff16815260200190815260200160002060006101000a81548160ff0219169083151502179055508080600101915050610bee565b50600d6000815480929190610c8c9061315b565b91905055507fcca51bed1d4641815f454f3cf02c0cbefff574d771b903caf02243590b9190728686868460020154604051610cca94939291906131a3565b60405180910390a1505050505050565b610ce2611403565b610cec60006115b2565b565b60085481565b6000600360009054906101000a900473ffffffffffffffffffffffffffffffffffffffff16905090565b600a5481565b610d36610d2f61148a565b8383611678565b5050565b600c6020528060005260406000206000915090508060000154908060010154908060020154905083565b600063bc197c8160e01b905098975050505050505050565b600060095483600454610d8f9190613127565b1115610dd0576040517f08c379a0000000000000000000000000000000000000000000000000000000008152600401610dc790613234565b60405180910390fd5b600a5483600e60003373ffffffffffffffffffffffffffffffffffffffff1673ffffffffffffffffffffffffffffffffffffffff16815260200190815260200160002054610e1e9190613127565b1115610e5f576040517f08c379a0000000000000000000000000000000000000000000000000000000008152600401610e56906132a0565b60405180910390fd5b6000600c60008481526020019081526020016000209050600081600101541115610fbf5780600101544210158015610e9b575080600201544211155b610eda576040517f08c379a0000000000000000000000000000000000000000000000000000000008152600401610ed19061330c565b60405180910390fd5b8060030160003373ffffffffffffffffffffffffffffffffffffffff1673ffffffffffffffffffffffffffffffffffffffff16815260200190815260200160002060009054906101000a900460ff16610f68576040517f08c379a0000000000000000000000000000000000000000000000000000000008152600401610f5f90613378565b60405180910390fd5b838160000154610f789190612f98565b341015610fba576040517f08c379a0000000000000000000000000000000000000000000000000000000008152600401610fb1906133e4565b60405180910390fd5b611010565b83600b54610fcd9190612f98565b34101561100f576040517f08c379a000000000000000000000000000000000000000000000000000000000815260040161100690613450565b60405180910390fd5b5b61102c33600186604051806020016040528060008152506117e8565b836004600082825461103e9190613127565b9250508190555083600e60003373ffffffffffffffffffffffffffffffffffffffff1673ffffffffffffffffffffffffffffffffffffffff16815260200190815260200160002060008282546110949190613127565b925050819055503373ffffffffffffffffffffffffffffffffffffffff167fd35bb95e09c04b219e35047ce7b7b300e3384264ef84a40456943dbc0fc17c14856110de6001610801565b6040516110ec929190613470565b60405180910390a2600191505092915050565b600560009054906101000a900473ffffffffffffffffffffffffffffffffffffffff1681565b60095481565b6000600160008473ffffffffffffffffffffffffffffffffffffffff1673ffffffffffffffffffffffffffffffffffffffff16815260200190815260200160002060008373ffffffffffffffffffffffffffffffffffffffff1673ffffffffffffffffffffffffffffffffffffffff16815260200190815260200160002060009054906101000a900460ff16905092915050565b600063f23a6e6160e01b90509695505050505050565b60006111df61148a565b90508073ffffffffffffffffffffffffffffffffffffffff168673ffffffffffffffffffffffffffffffffffffffff16141580156112245750611222868261112b565b155b156112685780866040517fe237d92200000000000000000000000000000000000000000000000000000000815260040161125f92919061303a565b60405180910390fd5b6112758686868686611881565b505050505050565b611285611403565b600073ffffffffffffffffffffffffffffffffffffffff168173ffffffffffffffffffffffffffffffffffffffff16036112f75760006040517f1e4fbdf70000000000000000000000000000000000000000000000000000000081526004016112ee91906127d8565b60405180910390fd5b611300816115b2565b50565b600d5481565b600e6020528060005260406000206000915090505481565b60007fd9b67a26000000000000000000000000000000000000000000000000000000007bffffffffffffffffffffffffffffffffffffffffffffffffffffffff1916827bffffffffffffffffffffffffffffffffffffffffffffffffffffffff191614806113ec57507f0e89341c000000000000000000000000000000000000000000000000000000007bffffffffffffffffffffffffffffffffffffffffffffffffffffffff1916827bffffffffffffffffffffffffffffffffffffffffffffffffffffffff1916145b806113fc57506113fb8261198c565b5b9050919050565b61140b61148a565b73ffffffffffffffffffffffffffffffffffffffff16611429610cf4565b73ffffffffffffffffffffffffffffffffffffffff16146114885761144c61148a565b6040517f118cdaa700000000000000000000000000000000000000000000000000000000815260040161147f91906127d8565b60405180910390fd5b565b600033905090565b600073ffffffffffffffffffffffffffffffffffffffff168473ffffffffffffffffffffffffffffffffffffffff16036115045760006040517f57f447ce0000000000000000000000000000000000000000000000000000000081526004016114fb91906127d8565b60405180910390fd5b600073ffffffffffffffffffffffffffffffffffffffff168573ffffffffffffffffffffffffffffffffffffffff16036115765760006040517f01a8351400000000000000000000000000000000000000000000000000000000815260040161156d91906127d8565b60405180910390fd5b61158385858585856119f6565b5050505050565b600060208202602084010151905092915050565b600060208202602084010151905092915050565b6000600360009054906101000a900473ffffffffffffffffffffffffffffffffffffffff16905081600360006101000a81548173ffffffffffffffffffffffffffffffffffffffff021916908373ffffffffffffffffffffffffffffffffffffffff1602179055508173ffffffffffffffffffffffffffffffffffffffff168173ffffffffffffffffffffffffffffffffffffffff167f8be0079c531659141344cd1fd0a4f28419497f9722a3daafe3b4186f6b6457e060405160405180910390a35050565b600073ffffffffffffffffffffffffffffffffffffffff168273ffffffffffffffffffffffffffffffffffffffff16036116ea5760006040517fced3e1000000000000000000000000000000000000000000000000000000000081526004016116e191906127d8565b60405180910390fd5b80600160008573ffffffffffffffffffffffffffffffffffffffff1673ffffffffffffffffffffffffffffffffffffffff16815260200190815260200160002060008473ffffffffffffffffffffffffffffffffffffffff1673ffffffffffffffffffffffffffffffffffffffff16815260200190815260200160002060006101000a81548160ff0219169083151502179055508173ffffffffffffffffffffffffffffffffffffffff168373ffffffffffffffffffffffffffffffffffffffff167f17307eab39ab6107e8899845ad3d59bd9653f200f220920489ca2b5937696c31836040516117db919061239a565b60405180910390a3505050565b600073ffffffffffffffffffffffffffffffffffffffff168473ffffffffffffffffffffffffffffffffffffffff160361185a5760006040517f57f447ce00000000000000000000000000000000000000000000000000000000815260040161185191906127d8565b60405180910390fd5b6000806118678585611aa8565b915091506118796000878484876119f6565b505050505050565b600073ffffffffffffffffffffffffffffffffffffffff168473ffffffffffffffffffffffffffffffffffffffff16036118f35760006040517f57f447ce0000000000000000000000000000000000000000000000000000000081526004016118ea91906127d8565b60405180910390fd5b600073ffffffffffffffffffffffffffffffffffffffff168573ffffffffffffffffffffffffffffffffffffffff16036119655760006040517f01a8351400000000000000000000000000000000000000000000000000000000815260040161195c91906127d8565b60405180910390fd5b6000806119728585611aa8565b9150915061198387878484876119f6565b50505050505050565b60007f01ffc9a7000000000000000000000000000000000000000000000000000000007bffffffffffffffffffffffffffffffffffffffffffffffffffffffff1916827bffffffffffffffffffffffffffffffffffffffffffffffffffffffff1916149050919050565b611a0285858585611ad8565b600073ffffffffffffffffffffffffffffffffffffffff168473ffffffffffffffffffffffffffffffffffffffff1614611aa1576000611a4061148a565b90506001845103611a90576000611a6160008661159e90919063ffffffff16565b90506000611a7960008661159e90919063ffffffff16565b9050611a89838989858589611e80565b5050611a9f565b611a9e818787878787612034565b5b505b5050505050565b60608060405191506001825283602083015260408201905060018152826020820152604081016040529250929050565b8051825114611b2257815181516040517f5b059991000000000000000000000000000000000000000000000000000000008152600401611b19929190613063565b60405180910390fd5b6000611b2c61148a565b905060005b8351811015611d3b576000611b4f828661159e90919063ffffffff16565b90506000611b66838661159e90919063ffffffff16565b9050600073ffffffffffffffffffffffffffffffffffffffff168873ffffffffffffffffffffffffffffffffffffffff1614611c9357600080600084815260200190815260200160002060008a73ffffffffffffffffffffffffffffffffffffffff1673ffffffffffffffffffffffffffffffffffffffff16815260200190815260200160002054905081811015611c3b57888183856040517f03dee4c5000000000000000000000000000000000000000000000000000000008152600401611c3294939291906134a0565b60405180910390fd5b81810360008085815260200190815260200160002060008b73ffffffffffffffffffffffffffffffffffffffff1673ffffffffffffffffffffffffffffffffffffffff16815260200190815260200160002081905550505b600073ffffffffffffffffffffffffffffffffffffffff168773ffffffffffffffffffffffffffffffffffffffff1614611d2e578060008084815260200190815260200160002060008973ffffffffffffffffffffffffffffffffffffffff1673ffffffffffffffffffffffffffffffffffffffff1681526020019081526020016000206000828254611d269190613127565b925050819055505b5050806001019050611b31565b506001835103611dfa576000611d5b60008561159e90919063ffffffff16565b90506000611d7360008561159e90919063ffffffff16565b90508573ffffffffffffffffffffffffffffffffffffffff168773ffffffffffffffffffffffffffffffffffffffff168473ffffffffffffffffffffffffffffffffffffffff167fc3d58168c5ae7397731d063d5bbf3d657854427343f4c083240f7aacaa2d0f628585604051611deb929190613063565b60405180910390a45050611e79565b8373ffffffffffffffffffffffffffffffffffffffff168573ffffffffffffffffffffffffffffffffffffffff168273ffffffffffffffffffffffffffffffffffffffff167f4a39dc06d4c0dbc64b70af90fd698a233a518aa5d07e595d983b8c0526c8f7fb8686604051611e709291906134e5565b60405180910390a45b5050505050565b60008473ffffffffffffffffffffffffffffffffffffffff163b111561202c578373ffffffffffffffffffffffffffffffffffffffff1663f23a6e6187878686866040518663ffffffff1660e01b8152600401611ee1959493929190613571565b6020604051808303816000875af1925050508015611f1d57506040513d601f19601f82011682018060405250810190611f1a91906135e0565b60015b611fa1573d8060008114611f4d576040519150601f19603f3d011682016040523d82523d6000602084013e611f52565b606091505b506000815103611f9957846040517f57f447ce000000000000000000000000000000000000000000000000000000008152600401611f9091906127d8565b60405180910390fd5b805181602001fd5b63f23a6e6160e01b7bffffffffffffffffffffffffffffffffffffffffffffffffffffffff1916817bffffffffffffffffffffffffffffffffffffffffffffffffffffffff19161461202a57846040517f57f447ce00000000000000000000000000000000000000000000000000000000815260040161202191906127d8565b60405180910390fd5b505b505050505050565b60008473ffffffffffffffffffffffffffffffffffffffff163b11156121e0578373ffffffffffffffffffffffffffffffffffffffff1663bc197c8187878686866040518663ffffffff1660e01b815260040161209595949392919061360d565b6020604051808303816000875af19250505080156120d157506040513d601f19601f820116820180604052508101906120ce91906135e0565b60015b612155573d8060008114612101576040519150601f19603f3d011682016040523d82523d6000602084013e612106565b606091505b50600081510361214d57846040517f57f447ce00000000000000000000000000000000000000000000000000000000815260040161214491906127d8565b60405180910390fd5b805181602001fd5b63bc197c8160e01b7bffffffffffffffffffffffffffffffffffffffffffffffffffffffff1916817bffffffffffffffffffffffffffffffffffffffffffffffffffffffff1916146121de57846040517f57f447ce0000000000000000000000000000000000000000000000000000000081526004016121d591906127d8565b60405180910390fd5b505b505050505050565b6000604051905090565b600080fd5b600080fd5b600073ffffffffffffffffffffffffffffffffffffffff82169050919050565b6000612227826121fc565b9050919050565b6122378161221c565b811461224257600080fd5b50565b6000813590506122548161222e565b92915050565b6000819050919050565b61226d8161225a565b811461227857600080fd5b50565b60008135905061228a81612264565b92915050565b600080604083850312156122a7576122a66121f2565b5b60006122b585828601612245565b92505060206122c68582860161227b565b9150509250929050565b6122d98161225a565b82525050565b60006020820190506122f460008301846122d0565b92915050565b60007fffffffff0000000000000000000000000000000000000000000000000000000082169050919050565b61232f816122fa565b811461233a57600080fd5b50565b60008135905061234c81612326565b92915050565b600060208284031215612368576123676121f2565b5b60006123768482850161233d565b91505092915050565b60008115159050919050565b6123948161237f565b82525050565b60006020820190506123af600083018461238b565b92915050565b6000602082840312156123cb576123ca6121f2565b5b60006123d98482850161227b565b91505092915050565b600081519050919050565b600082825260208201905092915050565b60005b8381101561241c578082015181840152602081019050612401565b60008484015250505050565b6000601f19601f8301169050919050565b6000612444826123e2565b61244e81856123ed565b935061245e8185602086016123fe565b61246781612428565b840191505092915050565b6000602082019050818103600083015261248c8184612439565b905092915050565b600080604083850312156124ab576124aa6121f2565b5b60006124b98582860161227b565b92505060206124ca8582860161227b565b9150509250929050565b6124dd8161221c565b82525050565b60006040820190506124f860008301856124d4565b61250560208301846122d0565b9392505050565b600080fd5b7f4e487b7100000000000000000000000000000000000000000000000000000000600052604160045260246000fd5b61254982612428565b810181811067ffffffffffffffff8211171561256857612567612511565b5b80604052505050565b600061257b6121e8565b90506125878282612540565b919050565b600067ffffffffffffffff8211156125a7576125a6612511565b5b602082029050602081019050919050565b600080fd5b60006125d06125cb8461258c565b612571565b905080838252602082019050602084028301858111156125f3576125f26125b8565b5b835b8181101561261c5780612608888261227b565b8452602084019350506020810190506125f5565b5050509392505050565b600082601f83011261263b5761263a61250c565b5b813561264b8482602086016125bd565b91505092915050565b600080fd5b600067ffffffffffffffff82111561267457612673612511565b5b61267d82612428565b9050602081019050919050565b82818337600083830152505050565b60006126ac6126a784612659565b612571565b9050828152602081018484840111156126c8576126c7612654565b5b6126d384828561268a565b509392505050565b600082601f8301126126f0576126ef61250c565b5b8135612700848260208601612699565b91505092915050565b600080600080600060a08688031215612725576127246121f2565b5b600061273388828901612245565b955050602061274488828901612245565b945050604086013567ffffffffffffffff811115612765576127646121f7565b5b61277188828901612626565b935050606086013567ffffffffffffffff811115612792576127916121f7565b5b61279e88828901612626565b925050608086013567ffffffffffffffff8111156127bf576127be6121f7565b5b6127cb888289016126db565b9150509295509295909350565b60006020820190506127ed60008301846124d4565b92915050565b600067ffffffffffffffff82111561280e5761280d612511565b5b602082029050602081019050919050565b600061283261282d846127f3565b612571565b90508083825260208201905060208402830185811115612855576128546125b8565b5b835b8181101561287e578061286a8882612245565b845260208401935050602081019050612857565b5050509392505050565b600082601f83011261289d5761289c61250c565b5b81356128ad84826020860161281f565b91505092915050565b600080604083850312156128cd576128cc6121f2565b5b600083013567ffffffffffffffff8111156128eb576128ea6121f7565b5b6128f785828601612888565b925050602083013567ffffffffffffffff811115612918576129176121f7565b5b61292485828601612626565b9150509250929050565b600081519050919050565b600082825260208201905092915050565b6000819050602082019050919050565b6129638161225a565b82525050565b6000612975838361295a565b60208301905092915050565b6000602082019050919050565b60006129998261292e565b6129a38185612939565b93506129ae8361294a565b8060005b838110156129df5781516129c68882612969565b97506129d183612981565b9250506001810190506129b2565b5085935050505092915050565b60006020820190508181036000830152612a06818461298e565b905092915050565b600080600080600060a08688031215612a2a57612a296121f2565b5b6000612a388882890161227b565b9550506020612a498882890161227b565b9450506040612a5a8882890161227b565b9350506060612a6b8882890161227b565b925050608086013567ffffffffffffffff811115612a8c57612a8b6121f7565b5b612a9888828901612888565b9150509295509295909350565b612aae8161237f565b8114612ab957600080fd5b50565b600081359050612acb81612aa5565b92915050565b60008060408385031215612ae857612ae76121f2565b5b6000612af685828601612245565b9250506020612b0785828601612abc565b9150509250929050565b6000606082019050612b2660008301866122d0565b612b3360208301856122d0565b612b4060408301846122d0565b949350505050565b600080fd5b60008083601f840112612b6357612b6261250c565b5b8235905067ffffffffffffffff811115612b8057612b7f612b48565b5b602083019150836020820283011115612b9c57612b9b6125b8565b5b9250929050565b60008083601f840112612bb957612bb861250c565b5b8235905067ffffffffffffffff811115612bd657612bd5612b48565b5b602083019150836001820283011115612bf257612bf16125b8565b5b9250929050565b60008060008060008060008060a0898b031215612c1957612c186121f2565b5b6000612c278b828c01612245565b9850506020612c388b828c01612245565b975050604089013567ffffffffffffffff811115612c5957612c586121f7565b5b612c658b828c01612b4d565b9650965050606089013567ffffffffffffffff811115612c8857612c876121f7565b5b612c948b828c01612b4d565b9450945050608089013567ffffffffffffffff811115612cb757612cb66121f7565b5b612cc38b828c01612ba3565b92509250509295985092959890939650565b612cde816122fa565b82525050565b6000602082019050612cf96000830184612cd5565b92915050565b60008060408385031215612d1657612d156121f2565b5b6000612d2485828601612245565b9250506020612d3585828601612245565b9150509250929050565b60008060008060008060a08789031215612d5c57612d5b6121f2565b5b6000612d6a89828a01612245565b9650506020612d7b89828a01612245565b9550506040612d8c89828a0161227b565b9450506060612d9d89828a0161227b565b935050608087013567ffffffffffffffff811115612dbe57612dbd6121f7565b5b612dca89828a01612ba3565b92509250509295509295509295565b600080600080600060a08688031215612df557612df46121f2565b5b6000612e0388828901612245565b9550506020612e1488828901612245565b9450506040612e258882890161227b565b9350506060612e368882890161227b565b925050608086013567ffffffffffffffff811115612e5757612e566121f7565b5b612e63888289016126db565b9150509295509295909350565b600060208284031215612e8657612e856121f2565b5b6000612e9484828501612245565b91505092915050565b7f4e487b7100000000000000000000000000000000000000000000000000000000600052602260045260246000fd5b60006002820490506001821680612ee457607f821691505b602082108103612ef757612ef6612e9d565b5b50919050565b7f526f79616c747920746f6f206869676800000000000000000000000000000000600082015250565b6000612f336010836123ed565b9150612f3e82612efd565b602082019050919050565b60006020820190508181036000830152612f6281612f26565b9050919050565b7f4e487b7100000000000000000000000000000000000000000000000000000000600052601160045260246000fd5b6000612fa38261225a565b9150612fae8361225a565b9250828202612fbc8161225a565b91508282048414831517612fd357612fd2612f69565b5b5092915050565b7f4e487b7100000000000000000000000000000000000000000000000000000000600052601260045260246000fd5b60006130148261225a565b915061301f8361225a565b92508261302f5761302e612fda565b5b828204905092915050565b600060408201905061304f60008301856124d4565b61305c60208301846124d4565b9392505050565b600060408201905061307860008301856122d0565b61308560208301846122d0565b9392505050565b7f4e487b7100000000000000000000000000000000000000000000000000000000600052603260045260246000fd5b7f53746172742074696d65206d75737420626520696e2066757475726500000000600082015250565b60006130f1601c836123ed565b91506130fc826130bb565b602082019050919050565b60006020820190508181036000830152613120816130e4565b9050919050565b60006131328261225a565b915061313d8361225a565b925082820190508082111561315557613154612f69565b5b92915050565b60006131668261225a565b91507fffffffffffffffffffffffffffffffffffffffffffffffffffffffffffffffff820361319857613197612f69565b5b600182019050919050565b60006080820190506131b860008301876122d0565b6131c560208301866122d0565b6131d260408301856122d0565b6131df60608301846122d0565b95945050505050565b7f45786365656473206d617820737570706c790000000000000000000000000000600082015250565b600061321e6012836123ed565b9150613229826131e8565b602082019050919050565b6000602082019050818103600083015261324d81613211565b9050919050565b7f45786365656473206d696e74206c696d69740000000000000000000000000000600082015250565b600061328a6012836123ed565b915061329582613254565b602082019050919050565b600060208201905081810360008301526132b98161327d565b9050919050565b7f5374616765206e6f742061637469766500000000000000000000000000000000600082015250565b60006132f66010836123ed565b9150613301826132c0565b602082019050919050565b60006020820190508181036000830152613325816132e9565b9050919050565b7f4e6f7420696e20616c6c6f776c69737400000000000000000000000000000000600082015250565b60006133626010836123ed565b915061336d8261332c565b602082019050919050565b6000602082019050818103600083015261339181613355565b9050919050565b7f496e73756666696369656e74207061796d656e7420666f722073746167650000600082015250565b60006133ce601e836123ed565b91506133d982613398565b602082019050919050565b600060208201905081810360008301526133fd816133c1565b9050919050565b7f496e73756666696369656e74207061796d656e74000000000000000000000000600082015250565b600061343a6014836123ed565b915061344582613404565b602082019050919050565b600060208201905081810360008301526134698161342d565b9050919050565b600060408201905061348560008301856122d0565b81810360208301526134978184612439565b90509392505050565b60006080820190506134b560008301876124d4565b6134c260208301866122d0565b6134cf60408301856122d0565b6134dc60608301846122d0565b95945050505050565b600060408201905081810360008301526134ff818561298e565b90508181036020830152613513818461298e565b90509392505050565b600081519050919050565b600082825260208201905092915050565b60006135438261351c565b61354d8185613527565b935061355d8185602086016123fe565b61356681612428565b840191505092915050565b600060a08201905061358660008301886124d4565b61359360208301876124d4565b6135a060408301866122d0565b6135ad60608301856122d0565b81810360808301526135bf8184613538565b90509695505050505050565b6000815190506135da81612326565b92915050565b6000602082840312156135f6576135f56121f2565b5b6000613604848285016135cb565b91505092915050565b600060a08201905061362260008301886124d4565b61362f60208301876124d4565b8181036040830152613641818661298e565b90508181036060830152613655818561298e565b905081810360808301526136698184613538565b9050969550505050505056fea26469706673582212205dcc58f0f4fdf59fd6657cb35d5013fba5b3406bd74ea575ab6188fd0b72b32764736f6c634300081c0033",
  "linkReferences": {},
  "deployedLinkReferences": {}
}