{
  "_format": "hh-sol-artifact-1",
  "contractName": "NFTManager",
  "sourceName": "contracts/NFT.sol",
  "abi": [
    {
      "inputs": [
        {
          "internalType": "string",
          "name": "name",
          "type": "string"
        },
        {
          "internalType": "string",
          "name": "symbol",
          "type": "string"
        },
        {
          "internalType": "address",
          "name": "_feeRecipient",
          "type": "address"
        },
        {
          "internalType": "uint256",
          "name": "_feePercentage",
          "type": "uint256"
        }
      ],
      "stateMutability": "nonpayable",
      "type": "constructor"
    },
    {
      "inputs": [],
      "name": "ECDSAInvalidSignature",
      "type": "error"
    },
    {
      "inputs": [
        {
          "internalType": "uint256",
          "name": "length",
          "type": "uint256"
        }
      ],
      "name": "ECDSAInvalidSignatureLength",
      "type": "error"
    },
    {
      "inputs": [
        {
          "internalType": "bytes32",
          "name": "s",
          "type": "bytes32"
        }
      ],
      "name": "ECDSAInvalidSignatureS",
      "type": "error"
    },
    {
      "inputs": [
        {
          "internalType": "address",
          "name": "sender",
          "type": "address"
        },
        {
          "internalType": "uint256",
          "name": "tokenId",
          "type": "uint256"
        },
        {
          "internalType": "address",
          "name": "owner",
          "type": "address"
        }
      ],
      "name": "ERC721IncorrectOwner",
      "type": "error"
    },
    {
      "inputs": [
        {
          "internalType": "address",
          "name": "operator",
          "type": "address"
        },
        {
          "internalType": "uint256",
          "name": "tokenId",
          "type": "uint256"
        }
      ],
      "name": "ERC721InsufficientApproval",
      "type": "error"
    },
    {
      "inputs": [
        {
          "internalType": "address",
          "name": "approver",
          "type": "address"
        }
      ],
      "name": "ERC721InvalidApprover",
      "type": "error"
    },
    {
      "inputs": [
        {
          "internalType": "address",
          "name": "operator",
          "type": "address"
        }
      ],
      "name": "ERC721InvalidOperator",
      "type": "error"
    },
    {
      "inputs": [
        {
          "internalType": "address",
          "name": "owner",
          "type": "address"
        }
      ],
      "name": "ERC721InvalidOwner",
      "type": "error"
    },
    {
      "inputs": [
        {
          "internalType": "address",
          "name": "receiver",
          "type": "address"
        }
      ],
      "name": "ERC721InvalidReceiver",
      "type": "error"
    },
    {
      "inputs": [
        {
          "internalType": "address",
          "name": "sender",
          "type": "address"
        }
      ],
      "name": "ERC721InvalidSender",
      "type": "error"
    },
    {
      "inputs": [
        {
          "internalType": "uint256",
          "name": "tokenId",
          "type": "uint256"
        }
      ],
      "name": "ERC721NonexistentToken",
      "type": "error"
    },
    {
      "inputs": [
        {
          "internalType": "address",
          "name": "owner",
          "type": "address"
        }
      ],
      "name": "OwnableInvalidOwner",
      "type": "error"
    },
    {
      "inputs": [
        {
          "internalType": "address",
          "name": "account",
          "type": "address"
        }
      ],
      "name": "OwnableUnauthorizedAccount",
      "type": "error"
    },
    {
      "anonymous": false,
      "inputs": [
        {
          "indexed": true,
          "internalType": "address",
          "name": "owner",
          "type": "address"
        },
        {
          "indexed": true,
          "internalType": "address",
          "name": "approved",
          "type": "address"
        },
        {
          "indexed": true,
          "internalType": "uint256",
          "name": "tokenId",
          "type": "uint256"
        }
      ],
      "name": "Approval",
      "type": "event"
    },
    {
      "anonymous": false,
      "inputs": [
        {
          "indexed": true,
          "internalType": "address",
          "name": "owner",
          "type": "address"
        },
        {
          "indexed": true,
          "internalType": "address",
          "name": "operator",
          "type": "address"
        },
        {
          "indexed": false,
          "internalType": "bool",
          "name": "approved",
          "type": "bool"
        }
      ],
      "name": "ApprovalForAll",
      "type": "event"
    },
    {
      "anonymous": false,
      "inputs": [
        {
          "indexed": true,
          "internalType": "uint256",
          "name": "auctionId",
          "type": "uint256"
        },
        {
          "indexed": false,
          "internalType": "uint256",
          "name": "tokenId",
          "type": "uint256"
        },
        {
          "indexed": false,
          "internalType": "uint256",
          "name": "minBid",
          "type": "uint256"
        },
        {
          "indexed": false,
          "internalType": "uint256",
          "name": "endTime",
          "type": "uint256"
        }
      ],
      "name": "AuctionCreated",
      "type": "event"
    },
    {
      "anonymous": false,
      "inputs": [
        {
          "indexed": true,
          "internalType": "uint256",
          "name": "auctionId",
          "type": "uint256"
        },
        {
          "indexed": false,
          "internalType": "address",
          "name": "winner",
          "type": "address"
        },
        {
          "indexed": false,
          "internalType": "uint256",
          "name": "amount",
          "type": "uint256"
        }
      ],
      "name": "AuctionEnded",
      "type": "event"
    },
    {
      "anonymous": false,
      "inputs": [
        {
          "indexed": false,
          "internalType": "uint256",
          "name": "_fromTokenId",
          "type": "uint256"
        },
        {
          "indexed": false,
          "internalType": "uint256",
          "name": "_toTokenId",
          "type": "uint256"
        }
      ],
      "name": "BatchMetadataUpdate",
      "type": "event"
    },
    {
      "anonymous": false,
      "inputs": [
        {
          "indexed": true,
          "internalType": "uint256",
          "name": "auctionId",
          "type": "uint256"
        },
        {
          "indexed": false,
          "internalType": "address",
          "name": "bidder",
          "type": "address"
        },
        {
          "indexed": false,
          "internalType": "uint256",
          "name": "amount",
          "type": "uint256"
        }
      ],
      "name": "BidPlaced",
      "type": "event"
    },
    {
      "anonymous": false,
      "inputs": [
        {
          "indexed": true,
          "internalType": "uint256",
          "name": "tokenId",
          "type": "uint256"
        },
        {
          "indexed": false,
          "internalType": "address",
          "name": "buyer",
          "type": "address"
        },
        {
          "indexed": false,
          "internalType": "string",
          "name": "tokenURI",
          "type": "string"
        }
      ],
      "name": "LazyMinted",
      "type": "event"
    },
    {
      "anonymous": false,
      "inputs": [
        {
          "indexed": false,
          "internalType": "uint256",
          "name": "_tokenId",
          "type": "uint256"
        }
      ],
      "name": "MetadataUpdate",
      "type": "event"
    },
    {
      "anonymous": false,
      "inputs": [
        {
          "indexed": true,
          "internalType": "uint256",
          "name": "tokenId",
          "type": "uint256"
        },
        {
          "indexed": false,
          "internalType": "address",
          "name": "recipient",
          "type": "address"
        },
        {
          "indexed": false,
          "internalType": "string",
          "name": "tokenURI",
          "type": "string"
        }
      ],
      "name": "NFTMinted",
      "type": "event"
    },
    {
      "anonymous": false,
      "inputs": [
        {
          "indexed": true,
          "internalType": "address",
          "name": "previousOwner",
          "type": "address"
        },
        {
          "indexed": true,
          "internalType": "address",
          "name": "newOwner",
          "type": "address"
        }
      ],
      "name": "OwnershipTransferred",
      "type": "event"
    },
    {
      "anonymous": false,
      "inputs": [
        {
          "indexed": true,
          "internalType": "address",
          "name": "from",
          "type": "address"
        },
        {
          "indexed": true,
          "internalType": "address",
          "name": "to",
          "type": "address"
        },
        {
          "indexed": true,
          "internalType": "uint256",
          "name": "tokenId",
          "type": "uint256"
        }
      ],
      "name": "Transfer",
      "type": "event"
    },
    {
      "inputs": [
        {
          "internalType": "address",
          "name": "to",
          "type": "address"
        },
        {
          "internalType": "uint256",
          "name": "tokenId",
          "type": "uint256"
        }
      ],
      "name": "approve",
      "outputs": [],
      "stateMutability": "nonpayable",
      "type": "function"
    },
    {
      "inputs": [],
      "name": "auctionCount",
      "outputs": [
        {
          "internalType": "uint256",
          "name": "",
          "type": "uint256"
        }
      ],
      "stateMutability": "view",
      "type": "function"
    },
    {
      "inputs": [
        {
          "internalType": "uint256",
          "name": "",
          "type": "uint256"
        }
      ],
      "name": "auctions",
      "outputs": [
        {
          "internalType": "uint256",
          "name": "tokenId",
          "type": "uint256"
        },
        {
          "internalType": "address",
          "name": "seller",
          "type": "address"
        },
        {
          "internalType": "uint256",
          "name": "minBid",
          "type": "uint256"
        },
        {
          "internalType": "uint256",
          "name": "highestBid",
          "type": "uint256"
        },
        {
          "internalType": "address",
          "name": "highestBidder",
          "type": "address"
        },
        {
          "internalType": "uint256",
          "name": "endTime",
          "type": "uint256"
        },
        {
          "internalType": "bool",
          "name": "ended",
          "type": "bool"
        }
      ],
      "stateMutability": "view",
      "type": "function"
    },
    {
      "inputs": [
        {
          "internalType": "address",
          "name": "owner",
          "type": "address"
        }
      ],
      "name": "balanceOf",
      "outputs": [
        {
          "internalType": "uint256",
          "name": "",
          "type": "uint256"
        }
      ],
      "stateMutability": "view",
      "type": "function"
    },
    {
      "inputs": [
        {
          "internalType": "address",
          "name": "to",
          "type": "address"
        },
        {
          "internalType": "string[]",
          "name": "tokenURIs",
          "type": "string[]"
        }
      ],
      "name": "bulkMint",
      "outputs": [
        {
          "internalType": "uint256[]",
          "name": "",
          "type": "uint256[]"
        }
      ],
      "stateMutability": "nonpayable",
      "type": "function"
    },
    {
      "inputs": [
        {
          "internalType": "uint256",
          "name": "tokenId",
          "type": "uint256"
        },
        {
          "internalType": "uint256",
          "name": "minBid",
          "type": "uint256"
        },
        {
          "internalType": "uint256",
          "name": "duration",
          "type": "uint256"
        }
      ],
      "name": "createAuction",
      "outputs": [],
      "stateMutability": "nonpayable",
      "type": "function"
    },
    {
      "inputs": [
        {
          "internalType": "uint256",
          "name": "tokenId",
          "type": "uint256"
        }
      ],
      "name": "endAuction",
      "outputs": [],
      "stateMutability": "nonpayable",
      "type": "function"
    },
    {
      "inputs": [
        {
          "internalType": "uint256",
          "name": "tokenId",
          "type": "uint256"
        }
      ],
      "name": "getApproved",
      "outputs": [
        {
          "internalType": "address",
          "name": "",
          "type": "address"
        }
      ],
      "stateMutability": "view",
      "type": "function"
    },
    {
      "inputs": [
        {
          "internalType": "address",
          "name": "owner",
          "type": "address"
        },
        {
          "internalType": "address",
          "name": "operator",
          "type": "address"
        }
      ],
      "name": "isApprovedForAll",
      "outputs": [
        {
          "internalType": "bool",
          "name": "",
          "type": "bool"
        }
      ],
      "stateMutability": "view",
      "type": "function"
    },
    {
      "inputs": [
        {
          "internalType": "address",
          "name": "buyer",
          "type": "address"
        },
        {
          "internalType": "string",
          "name": "uri",
          "type": "string"
        },
        {
          "internalType": "uint256",
          "name": "royaltyPercentage",
          "type": "uint256"
        },
        {
          "internalType": "bytes",
          "name": "signature",
          "type": "bytes"
        }
      ],
      "name": "lazyMint",
      "outputs": [],
      "stateMutability": "payable",
      "type": "function"
    },
    {
      "inputs": [],
      "name": "marketplaceFeePercentage",
      "outputs": [
        {
          "internalType": "uint256",
          "name": "",
          "type": "uint256"
        }
      ],
      "stateMutability": "view",
      "type": "function"
    },
    {
      "inputs": [],
      "name": "marketplaceFeeRecipient",
      "outputs": [
        {
          "internalType": "address",
          "name": "",
          "type": "address"
        }
      ],
      "stateMutability": "view",
      "type": "function"
    },
    {
      "inputs": [
        {
          "internalType": "address",
          "name": "recipient",
          "type": "address"
        },
        {
          "internalType": "string",
          "name": "uri",
          "type": "string"
        }
      ],
      "name": "mintManual",
      "outputs": [
        {
          "internalType": "uint256",
          "name": "",
          "type": "uint256"
        }
      ],
      "stateMutability": "nonpayable",
      "type": "function"
    },
    {
      "inputs": [
        {
          "internalType": "string",
          "name": "uri",
          "type": "string"
        }
      ],
      "name": "mintNFT",
      "outputs": [
        {
          "internalType": "uint256",
          "name": "",
          "type": "uint256"
        }
      ],
      "stateMutability": "nonpayable",
      "type": "function"
    },
    {
      "inputs": [],
      "name": "name",
      "outputs": [
        {
          "internalType": "string",
          "name": "",
          "type": "string"
        }
      ],
      "stateMutability": "view",
      "type": "function"
    },
    {
      "inputs": [],
      "name": "owner",
      "outputs": [
        {
          "internalType": "address",
          "name": "",
          "type": "address"
        }
      ],
      "stateMutability": "view",
      "type": "function"
    },
    {
      "inputs": [
        {
          "internalType": "uint256",
          "name": "tokenId",
          "type": "uint256"
        }
      ],
      "name": "ownerOf",
      "outputs": [
        {
          "internalType": "address",
          "name": "",
          "type": "address"
        }
      ],
      "stateMutability": "view",
      "type": "function"
    },
    {
      "inputs": [
        {
          "internalType": "uint256",
          "name": "tokenId",
          "type": "uint256"
        }
      ],
      "name": "placeBid",
      "outputs": [],
      "stateMutability": "payable",
      "type": "function"
    },
    {
      "inputs": [],
      "name": "renounceOwnership",
      "outputs": [],
      "stateMutability": "nonpayable",
      "type": "function"
    },
    {
      "inputs": [
        {
          "internalType": "uint256",
          "name": "tokenId",
          "type": "uint256"
        },
        {
          "internalType": "uint256",
          "name": "salePrice",
          "type": "uint256"
        }
      ],
      "name": "royaltyInfo",
      "outputs": [
        {
          "internalType": "address",
          "name": "",
          "type": "address"
        },
        {
          "internalType": "uint256",
          "name": "",
          "type": "uint256"
        }
      ],
      "stateMutability": "view",
      "type": "function"
    },
    {
      "inputs": [
        {
          "internalType": "uint256",
          "name": "",
          "type": "uint256"
        }
      ],
      "name": "royaltyPercentages",
      "outputs": [
        {
          "internalType": "uint256",
          "name": "",
          "type": "uint256"
        }
      ],
      "stateMutability": "view",
      "type": "function"
    },
    {
      "inputs": [
        {
          "internalType": "uint256",
          "name": "",
          "type": "uint256"
        }
      ],
      "name": "royaltyRecipients",
      "outputs": [
        {
          "internalType": "address",
          "name": "",
          "type": "address"
        }
      ],
      "stateMutability": "view",
      "type": "function"
    },
    {
      "inputs": [
        {
          "internalType": "address",
          "name": "from",
          "type": "address"
        },
        {
          "internalType": "address",
          "name": "to",
          "type": "address"
        },
        {
          "internalType": "uint256",
          "name": "tokenId",
          "type": "uint256"
        }
      ],
      "name": "safeTransferFrom",
      "outputs": [],
      "stateMutability": "nonpayable",
      "type": "function"
    },
    {
      "inputs": [
        {
          "internalType": "address",
          "name": "from",
          "type": "address"
        },
        {
          "internalType": "address",
          "name": "to",
          "type": "address"
        },
        {
          "internalType": "uint256",
          "name": "tokenId",
          "type": "uint256"
        },
        {
          "internalType": "bytes",
          "name": "data",
          "type": "bytes"
        }
      ],
      "name": "safeTransferFrom",
      "outputs": [],
      "stateMutability": "nonpayable",
      "type": "function"
    },
    {
      "inputs": [
        {
          "internalType": "address",
          "name": "operator",
          "type": "address"
        },
        {
          "internalType": "bool",
          "name": "approved",
          "type": "bool"
        }
      ],
      "name": "setApprovalForAll",
      "outputs": [],
      "stateMutability": "nonpayable",
      "type": "function"
    },
    {
      "inputs": [
        {
          "internalType": "bytes4",
          "name": "interfaceId",
          "type": "bytes4"
        }
      ],
      "name": "supportsInterface",
      "outputs": [
        {
          "internalType": "bool",
          "name": "",
          "type": "bool"
        }
      ],
      "stateMutability": "view",
      "type": "function"
    },
    {
      "inputs": [],
      "name": "symbol",
      "outputs": [
        {
          "internalType": "string",
          "name": "",
          "type": "string"
        }
      ],
      "stateMutability": "view",
      "type": "function"
    },
    {
      "inputs": [
        {
          "internalType": "uint256",
          "name": "tokenId",
          "type": "uint256"
        }
      ],
      "name": "tokenURI",
      "outputs": [
        {
          "internalType": "string",
          "name": "",
          "type": "string"
        }
      ],
      "stateMutability": "view",
      "type": "function"
    },
    {
      "inputs": [
        {
          "internalType": "address",
          "name": "from",
          "type": "address"
        },
        {
          "internalType": "address",
          "name": "to",
          "type": "address"
        },
        {
          "internalType": "uint256",
          "name": "tokenId",
          "type": "uint256"
        }
      ],
      "name": "transferFrom",
      "outputs": [],
      "stateMutability": "nonpayable",
      "type": "function"
    },
    {
      "inputs": [
        {
          "internalType": "address",
          "name": "newOwner",
          "type": "address"
        }
      ],
      "name": "transferOwnership",
      "outputs": [],
      "stateMutability": "nonpayable",
      "type": "function"
    }
  ],
  "bytecode": "0x608060405234801561001057600080fd5b5060405161518f38038061518f83398181016040528101906100329190610401565b338484816000908161004491906106b7565b50806001908161005491906106b7565b505050600073ffffffffffffffffffffffffffffffffffffffff168173ffffffffffffffffffffffffffffffffffffffff16036100c95760006040517f1e4fbdf70000000000000000000000000000000000000000000000000000000081526004016100c09190610798565b60405180910390fd5b6100d88161013260201b60201c565b5081600960006101000a81548173ffffffffffffffffffffffffffffffffffffffff021916908373ffffffffffffffffffffffffffffffffffffffff16021790555080600a819055506001600881905550505050506107b3565b6000600760009054906101000a900473ffffffffffffffffffffffffffffffffffffffff16905081600760006101000a81548173ffffffffffffffffffffffffffffffffffffffff021916908373ffffffffffffffffffffffffffffffffffffffff1602179055508173ffffffffffffffffffffffffffffffffffffffff168173ffffffffffffffffffffffffffffffffffffffff167f8be0079c531659141344cd1fd0a4f28419497f9722a3daafe3b4186f6b6457e060405160405180910390a35050565b6000604051905090565b600080fd5b600080fd5b600080fd5b600080fd5b6000601f19601f8301169050919050565b7f4e487b7100000000000000000000000000000000000000000000000000000000600052604160045260246000fd5b61025f82610216565b810181811067ffffffffffffffff8211171561027e5761027d610227565b5b80604052505050565b60006102916101f8565b905061029d8282610256565b919050565b600067ffffffffffffffff8211156102bd576102bc610227565b5b6102c682610216565b9050602081019050919050565b60005b838110156102f15780820151818401526020810190506102d6565b60008484015250505050565b600061031061030b846102a2565b610287565b90508281526020810184848401111561032c5761032b610211565b5b6103378482856102d3565b509392505050565b600082601f8301126103545761035361020c565b5b81516103648482602086016102fd565b91505092915050565b600073ffffffffffffffffffffffffffffffffffffffff82169050919050565b60006103988261036d565b9050919050565b6103a88161038d565b81146103b357600080fd5b50565b6000815190506103c58161039f565b92915050565b6000819050919050565b6103de816103cb565b81146103e957600080fd5b50565b6000815190506103fb816103d5565b92915050565b6000806000806080858703121561041b5761041a610202565b5b600085015167ffffffffffffffff81111561043957610438610207565b5b6104458782880161033f565b945050602085015167ffffffffffffffff81111561046657610465610207565b5b6104728782880161033f565b9350506040610483878288016103b6565b9250506060610494878288016103ec565b91505092959194509250565b600081519050919050565b7f4e487b7100000000000000000000000000000000000000000000000000000000600052602260045260246000fd5b600060028204905060018216806104f257607f821691505b602082108103610505576105046104ab565b5b50919050565b60008190508160005260206000209050919050565b60006020601f8301049050919050565b600082821b905092915050565b60006008830261056d7fffffffffffffffffffffffffffffffffffffffffffffffffffffffffffffffff82610530565b6105778683610530565b95508019841693508086168417925050509392505050565b6000819050919050565b60006105b46105af6105aa846103cb565b61058f565b6103cb565b9050919050565b6000819050919050565b6105ce83610599565b6105e26105da826105bb565b84845461053d565b825550505050565b600090565b6105f76105ea565b6106028184846105c5565b505050565b5b818110156106265761061b6000826105ef565b600181019050610608565b5050565b601f82111561066b5761063c8161050b565b61064584610520565b81016020851015610654578190505b61066861066085610520565b830182610607565b50505b505050565b600082821c905092915050565b600061068e60001984600802610670565b1980831691505092915050565b60006106a7838361067d565b9150826002028217905092915050565b6106c0826104a0565b67ffffffffffffffff8111156106d9576106d8610227565b5b6106e382546104da565b6106ee82828561062a565b600060209050601f831160018114610721576000841561070f578287015190505b610719858261069b565b865550610781565b601f19841661072f8661050b565b60005b8281101561075757848901518255600182019150602085019450602081019050610732565b868310156107745784890151610770601f89168261067d565b8355505b6001600288020188555050505b505050505050565b6107928161038d565b82525050565b60006020820190506107ad6000830184610789565b92915050565b6149cd806107c26000396000f3fe6080604052600436106101cd5760003560e01c80638da5cb5b116100f7578063b9a2de3a11610095578063cda4beef11610064578063cda4beef146106bf578063e985e9c5146106e8578063f2fde38b14610725578063fb37e8831461074e576101cd565b8063b9a2de3a146105f1578063ba1f72f21461061a578063c49d91de14610657578063c87b56dd14610682576101cd565b80639aa864cf116100d15780639aa864cf14610525578063a0d7d89114610562578063a22cb4651461059f578063b88d4fde146105c8576101cd565b80638da5cb5b146104b357806395d89b41146104de5780639979ef4514610509576101cd565b80632ad715731161016f5780636352211e1161013e5780636352211e1461040657806370a0823114610443578063715018a6146104805780638c51735414610497576101cd565b80632ad715731461034457806342842e0e1461036f5780634adadddf14610398578063571a26a0146103c3576101cd565b8063095ea7b3116101ab578063095ea7b31461027757806323b872dd146102a0578063285b2a86146102c95780632a55205a14610306576101cd565b806301ffc9a7146101d257806306fdde031461020f578063081812fc1461023a575b600080fd5b3480156101de57600080fd5b506101f960048036038101906101f4919061338f565b61078b565b60405161020691906133d7565b60405180910390f35b34801561021b57600080fd5b50610224610805565b6040516102319190613482565b60405180910390f35b34801561024657600080fd5b50610261600480360381019061025c91906134da565b610897565b60405161026e9190613548565b60405180910390f35b34801561028357600080fd5b5061029e6004803603810190610299919061358f565b6108b3565b005b3480156102ac57600080fd5b506102c760048036038101906102c291906135cf565b6108c9565b005b3480156102d557600080fd5b506102f060048036038101906102eb9190613757565b6109cb565b6040516102fd91906137c2565b60405180910390f35b34801561031257600080fd5b5061032d600480360381019061032891906137dd565b610ab4565b60405161033b92919061381d565b60405180910390f35b34801561035057600080fd5b50610359610b28565b60405161036691906137c2565b60405180910390f35b34801561037b57600080fd5b50610396600480360381019061039191906135cf565b610b2e565b005b3480156103a457600080fd5b506103ad610b4e565b6040516103ba91906137c2565b60405180910390f35b3480156103cf57600080fd5b506103ea60048036038101906103e591906134da565b610b54565b6040516103fd9796959493929190613846565b60405180910390f35b34801561041257600080fd5b5061042d600480360381019061042891906134da565b610be3565b60405161043a9190613548565b60405180910390f35b34801561044f57600080fd5b5061046a600480360381019061046591906138b5565b610bf5565b60405161047791906137c2565b60405180910390f35b34801561048c57600080fd5b50610495610caf565b005b6104b160048036038101906104ac9190613983565b610cc3565b005b3480156104bf57600080fd5b506104c8610f0a565b6040516104d59190613548565b60405180910390f35b3480156104ea57600080fd5b506104f3610f34565b6040516105009190613482565b60405180910390f35b610523600480360381019061051e91906134da565b610fc6565b005b34801561053157600080fd5b5061054c600480360381019061054791906134da565b61121d565b60405161055991906137c2565b60405180910390f35b34801561056e57600080fd5b50610589600480360381019061058491906134da565b611235565b6040516105969190613548565b60405180910390f35b3480156105ab57600080fd5b506105c660048036038101906105c19190613a4e565b611268565b005b3480156105d457600080fd5b506105ef60048036038101906105ea9190613a8e565b61127e565b005b3480156105fd57600080fd5b50610618600480360381019061061391906134da565b6112a3565b005b34801561062657600080fd5b50610641600480360381019061063c9190613bf7565b611659565b60405161064e9190613d11565b60405180910390f35b34801561066357600080fd5b5061066c611803565b6040516106799190613548565b60405180910390f35b34801561068e57600080fd5b506106a960048036038101906106a491906134da565b611829565b6040516106b69190613482565b60405180910390f35b3480156106cb57600080fd5b506106e660048036038101906106e19190613d33565b61193c565b005b3480156106f457600080fd5b5061070f600480360381019061070a9190613d86565b611bd5565b60405161071c91906133d7565b60405180910390f35b34801561073157600080fd5b5061074c600480360381019061074791906138b5565b611c69565b005b34801561075a57600080fd5b5061077560048036038101906107709190613dc6565b611cef565b60405161078291906137c2565b60405180910390f35b60007f2a55205a000000000000000000000000000000000000000000000000000000007bffffffffffffffffffffffffffffffffffffffffffffffffffffffff1916827bffffffffffffffffffffffffffffffffffffffffffffffffffffffff191614806107fe57506107fd82611dce565b5b9050919050565b60606000805461081490613e3e565b80601f016020809104026020016040519081016040528092919081815260200182805461084090613e3e565b801561088d5780601f106108625761010080835404028352916020019161088d565b820191906000526020600020905b81548152906001019060200180831161087057829003601f168201915b5050505050905090565b60006108a282611e2f565b506108ac82611eb7565b9050919050565b6108c582826108c0611ef4565b611efc565b5050565b600073ffffffffffffffffffffffffffffffffffffffff168273ffffffffffffffffffffffffffffffffffffffff160361093b5760006040517f64a0ae920000000000000000000000000000000000000000000000000000000081526004016109329190613548565b60405180910390fd5b600061094f838361094a611ef4565b611f0e565b90508373ffffffffffffffffffffffffffffffffffffffff168173ffffffffffffffffffffffffffffffffffffffff16146109c5578382826040517f64283d7b0000000000000000000000000000000000000000000000000000000081526004016109bc93929190613e6f565b60405180910390fd5b50505050565b60006109d5612128565b6000600860008154809291906109ea90613ed5565b9190505590506109fa84826121af565b610a0481846121cd565b83600b600083815260200190815260200160002060006101000a81548173ffffffffffffffffffffffffffffffffffffffff021916908373ffffffffffffffffffffffffffffffffffffffff1602179055506103e8600c600083815260200190815260200160002081905550807f06becd955c918828f6e985541acbf49cc842c9e9bd569fffc7698e721ef135758585604051610aa2929190613f1d565b60405180910390a28091505092915050565b6000806000612710600c60008781526020019081526020016000205485610adb9190613f4d565b610ae59190613fbe565b9050600b600086815260200190815260200160002060009054906101000a900473ffffffffffffffffffffffffffffffffffffffff168192509250509250929050565b600e5481565b610b498383836040518060200160405280600081525061127e565b505050565b600a5481565b600d6020528060005260406000206000915090508060000154908060010160009054906101000a900473ffffffffffffffffffffffffffffffffffffffff16908060020154908060030154908060040160009054906101000a900473ffffffffffffffffffffffffffffffffffffffff16908060050154908060060160009054906101000a900460ff16905087565b6000610bee82611e2f565b9050919050565b60008073ffffffffffffffffffffffffffffffffffffffff168273ffffffffffffffffffffffffffffffffffffffff1603610c685760006040517f89c62b64000000000000000000000000000000000000000000000000000000008152600401610c5f9190613548565b60405180910390fd5b600360008373ffffffffffffffffffffffffffffffffffffffff1673ffffffffffffffffffffffffffffffffffffffff168152602001908152602001600020549050919050565b610cb7612128565b610cc16000612229565b565b610ccb612128565b6000848484604051602001610ce293929190614094565b6040516020818303038152906040528051906020012090506000610d05826122ef565b90506000610d138285612325565b9050610d1d610f0a565b73ffffffffffffffffffffffffffffffffffffffff168173ffffffffffffffffffffffffffffffffffffffff1614610d8a576040517f08c379a0000000000000000000000000000000000000000000000000000000008152600401610d8190614119565b60405180910390fd5b600f84604051610d9a9190614180565b908152602001604051809103902060009054906101000a900460ff1615610df6576040517f08c379a0000000000000000000000000000000000000000000000000000000008152600401610ded906141e3565b60405180910390fd5b6001600f85604051610e089190614180565b908152602001604051809103902060006101000a81548160ff021916908315150217905550600060086000815480929190610e4290613ed5565b919050559050610e5288826121af565b610e5c81886121cd565b81600b600083815260200190815260200160002060006101000a81548173ffffffffffffffffffffffffffffffffffffffff021916908373ffffffffffffffffffffffffffffffffffffffff16021790555085600c600083815260200190815260200160002081905550807f58e51c39e6aefe22250da82564c1454979ad8069dfdee50fa8fa247332fdee618989604051610ef8929190613f1d565b60405180910390a25050505050505050565b6000600760009054906101000a900473ffffffffffffffffffffffffffffffffffffffff16905090565b606060018054610f4390613e3e565b80601f0160208091040260200160405190810160405280929190818152602001828054610f6f90613e3e565b8015610fbc5780601f10610f9157610100808354040283529160200191610fbc565b820191906000526020600020905b815481529060010190602001808311610f9f57829003601f168201915b5050505050905090565b6000600d6000838152602001908152602001600020905080600501544210611023576040517f08c379a000000000000000000000000000000000000000000000000000000000815260040161101a9061424f565b60405180910390fd5b80600301543411801561103a575080600201543410155b611079576040517f08c379a0000000000000000000000000000000000000000000000000000000008152600401611070906142bb565b60405180910390fd5b8060060160009054906101000a900460ff16156110cb576040517f08c379a00000000000000000000000000000000000000000000000000000000081526004016110c290614327565b60405180910390fd5b600073ffffffffffffffffffffffffffffffffffffffff168160040160009054906101000a900473ffffffffffffffffffffffffffffffffffffffff1673ffffffffffffffffffffffffffffffffffffffff1614611193578060040160009054906101000a900473ffffffffffffffffffffffffffffffffffffffff1673ffffffffffffffffffffffffffffffffffffffff166108fc82600301549081150290604051600060405180830381858888f19350505050158015611191573d6000803e3d6000fd5b505b348160030181905550338160040160006101000a81548173ffffffffffffffffffffffffffffffffffffffff021916908373ffffffffffffffffffffffffffffffffffffffff160217905550817f0e54eff26401bf69b81b26f60bd85ef47f5d85275c1d268d84f68d6897431c47333460405161121192919061381d565b60405180910390a25050565b600c6020528060005260406000206000915090505481565b600b6020528060005260406000206000915054906101000a900473ffffffffffffffffffffffffffffffffffffffff1681565b61127a611273611ef4565b8383612351565b5050565b6112898484846108c9565b61129d611294611ef4565b858585856124c0565b50505050565b6000600d600083815260200190815260200160002090508060050154421015611301576040517f08c379a00000000000000000000000000000000000000000000000000000000081526004016112f890614393565b60405180910390fd5b8060060160009054906101000a900460ff1615611353576040517f08c379a000000000000000000000000000000000000000000000000000000000815260040161134a90614327565b60405180910390fd5b60018160060160006101000a81548160ff021916908315150217905550600073ffffffffffffffffffffffffffffffffffffffff168160040160009054906101000a900473ffffffffffffffffffffffffffffffffffffffff1673ffffffffffffffffffffffffffffffffffffffff1614611625576000612710600a5483600301546113df9190613f4d565b6113e99190613fbe565b90506000612710600c60008681526020019081526020016000205484600301546114139190613f4d565b61141d9190613fbe565b905060008183856003015461143291906143b3565b61143c91906143b3565b9050600960009054906101000a900473ffffffffffffffffffffffffffffffffffffffff1673ffffffffffffffffffffffffffffffffffffffff166108fc849081150290604051600060405180830381858888f193505050501580156114a6573d6000803e3d6000fd5b50600b600086815260200190815260200160002060009054906101000a900473ffffffffffffffffffffffffffffffffffffffff1673ffffffffffffffffffffffffffffffffffffffff166108fc839081150290604051600060405180830381858888f19350505050158015611520573d6000803e3d6000fd5b508360010160009054906101000a900473ffffffffffffffffffffffffffffffffffffffff1673ffffffffffffffffffffffffffffffffffffffff166108fc829081150290604051600060405180830381858888f1935050505015801561158b573d6000803e3d6000fd5b506115bb308560040160009054906101000a900473ffffffffffffffffffffffffffffffffffffffff1687612671565b847fd2aa34a4fdbbc6dff6a3e56f46e0f3ae2a31d7785ff3487aa5c95c642acea5018560040160009054906101000a900473ffffffffffffffffffffffffffffffffffffffff16866003015460405161161592919061381d565b60405180910390a2505050611655565b611654308260010160009054906101000a900473ffffffffffffffffffffffffffffffffffffffff1684612671565b5b5050565b6060611663612128565b6000825167ffffffffffffffff8111156116805761167f61362c565b5b6040519080825280602002602001820160405280156116ae5781602001602082028036833780820191505090505b50905060005b83518110156117f857600860008154809291906116d090613ed5565b9190505550600060085490506116e686826121af565b61170a818684815181106116fd576116fc6143e7565b5b60200260200101516121cd565b85600b600083815260200190815260200160002060006101000a81548173ffffffffffffffffffffffffffffffffffffffff021916908373ffffffffffffffffffffffffffffffffffffffff1602179055506103e8600c6000838152602001908152602001600020819055508083838151811061178a576117896143e7565b5b602002602001018181525050807f06becd955c918828f6e985541acbf49cc842c9e9bd569fffc7698e721ef13575878785815181106117cc576117cb6143e7565b5b60200260200101516040516117e2929190613f1d565b60405180910390a25080806001019150506116b4565b508091505092915050565b600960009054906101000a900473ffffffffffffffffffffffffffffffffffffffff1681565b606061183482611e2f565b50600060066000848152602001908152602001600020805461185590613e3e565b80601f016020809104026020016040519081016040528092919081815260200182805461188190613e3e565b80156118ce5780601f106118a3576101008083540402835291602001916118ce565b820191906000526020600020905b8154815290600101906020018083116118b157829003601f168201915b5050505050905060006118df6127de565b905060008151036118f4578192505050611937565b600082511115611929578082604051602001611911929190614416565b60405160208183030381529060405292505050611937565b611932846127f5565b925050505b919050565b3373ffffffffffffffffffffffffffffffffffffffff1661195c84610be3565b73ffffffffffffffffffffffffffffffffffffffff16146119b2576040517f08c379a00000000000000000000000000000000000000000000000000000000081526004016119a990614486565b60405180910390fd5b6000600d60008581526020019081526020016000206005015414611a0b576040517f08c379a0000000000000000000000000000000000000000000000000000000008152600401611a02906144f2565b60405180910390fd5b611a16333085612671565b6040518060e001604052808481526020013373ffffffffffffffffffffffffffffffffffffffff16815260200183815260200160008152602001600073ffffffffffffffffffffffffffffffffffffffff1681526020018242611a799190614512565b815260200160001515815250600d60008581526020019081526020016000206000820151816000015560208201518160010160006101000a81548173ffffffffffffffffffffffffffffffffffffffff021916908373ffffffffffffffffffffffffffffffffffffffff160217905550604082015181600201556060820151816003015560808201518160040160006101000a81548173ffffffffffffffffffffffffffffffffffffffff021916908373ffffffffffffffffffffffffffffffffffffffff16021790555060a0820151816005015560c08201518160060160006101000a81548160ff021916908315150217905550905050600e6000815480929190611b8490613ed5565b9190505550827fa9c8dfcda5664a5a124c713e386da27de87432d5b668e79458501eb296389ba784848442611bb99190614512565b604051611bc893929190614546565b60405180910390a2505050565b6000600560008473ffffffffffffffffffffffffffffffffffffffff1673ffffffffffffffffffffffffffffffffffffffff16815260200190815260200160002060008373ffffffffffffffffffffffffffffffffffffffff1673ffffffffffffffffffffffffffffffffffffffff16815260200190815260200160002060009054906101000a900460ff16905092915050565b611c71612128565b600073ffffffffffffffffffffffffffffffffffffffff168173ffffffffffffffffffffffffffffffffffffffff1603611ce35760006040517f1e4fbdf7000000000000000000000000000000000000000000000000000000008152600401611cda9190613548565b60405180910390fd5b611cec81612229565b50565b60008060086000815480929190611d0590613ed5565b919050559050611d1533826121af565b611d1f81846121cd565b33600b600083815260200190815260200160002060006101000a81548173ffffffffffffffffffffffffffffffffffffffff021916908373ffffffffffffffffffffffffffffffffffffffff1602179055506103e8600c600083815260200190815260200160002081905550807f06becd955c918828f6e985541acbf49cc842c9e9bd569fffc7698e721ef135753385604051611dbd929190613f1d565b60405180910390a280915050919050565b6000634906490660e01b7bffffffffffffffffffffffffffffffffffffffffffffffffffffffff1916827bffffffffffffffffffffffffffffffffffffffffffffffffffffffff19161480611e285750611e278261285e565b5b9050919050565b600080611e3b83612940565b9050600073ffffffffffffffffffffffffffffffffffffffff168173ffffffffffffffffffffffffffffffffffffffff1603611eae57826040517f7e273289000000000000000000000000000000000000000000000000000000008152600401611ea591906137c2565b60405180910390fd5b80915050919050565b60006004600083815260200190815260200160002060009054906101000a900473ffffffffffffffffffffffffffffffffffffffff169050919050565b600033905090565b611f09838383600161297d565b505050565b600080611f1a84612940565b9050600073ffffffffffffffffffffffffffffffffffffffff168373ffffffffffffffffffffffffffffffffffffffff1614611f5c57611f5b818486612b42565b5b600073ffffffffffffffffffffffffffffffffffffffff168173ffffffffffffffffffffffffffffffffffffffff1614611fed57611f9e60008560008061297d565b6001600360008373ffffffffffffffffffffffffffffffffffffffff1673ffffffffffffffffffffffffffffffffffffffff168152602001908152602001600020600082825403925050819055505b600073ffffffffffffffffffffffffffffffffffffffff168573ffffffffffffffffffffffffffffffffffffffff1614612070576001600360008773ffffffffffffffffffffffffffffffffffffffff1673ffffffffffffffffffffffffffffffffffffffff168152602001908152602001600020600082825401925050819055505b846002600086815260200190815260200160002060006101000a81548173ffffffffffffffffffffffffffffffffffffffff021916908373ffffffffffffffffffffffffffffffffffffffff160217905550838573ffffffffffffffffffffffffffffffffffffffff168273ffffffffffffffffffffffffffffffffffffffff167fddf252ad1be2c89b69c2b068fc378daa952ba7f163c4a11628f55a4df523b3ef60405160405180910390a4809150509392505050565b612130611ef4565b73ffffffffffffffffffffffffffffffffffffffff1661214e610f0a565b73ffffffffffffffffffffffffffffffffffffffff16146121ad57612171611ef4565b6040517f118cdaa70000000000000000000000000000000000000000000000000000000081526004016121a49190613548565b60405180910390fd5b565b6121c9828260405180602001604052806000815250612c06565b5050565b806006600084815260200190815260200160002090816121ed9190614729565b507ff8e1a15aba9398e019f0b49df1a4fde98ee17ae345cb5f6b5e2c27f5033e8ce78260405161221d91906137c2565b60405180910390a15050565b6000600760009054906101000a900473ffffffffffffffffffffffffffffffffffffffff16905081600760006101000a81548173ffffffffffffffffffffffffffffffffffffffff021916908373ffffffffffffffffffffffffffffffffffffffff1602179055508173ffffffffffffffffffffffffffffffffffffffff168173ffffffffffffffffffffffffffffffffffffffff167f8be0079c531659141344cd1fd0a4f28419497f9722a3daafe3b4186f6b6457e060405160405180910390a35050565b60007f19457468657265756d205369676e6564204d6573736167653a0a33320000000060005281601c52603c6000209050919050565b6000806000806123358686612c2a565b9250925092506123458282612c86565b82935050505092915050565b600073ffffffffffffffffffffffffffffffffffffffff168273ffffffffffffffffffffffffffffffffffffffff16036123c257816040517f5b08ba180000000000000000000000000000000000000000000000000000000081526004016123b99190613548565b60405180910390fd5b80600560008573ffffffffffffffffffffffffffffffffffffffff1673ffffffffffffffffffffffffffffffffffffffff16815260200190815260200160002060008473ffffffffffffffffffffffffffffffffffffffff1673ffffffffffffffffffffffffffffffffffffffff16815260200190815260200160002060006101000a81548160ff0219169083151502179055508173ffffffffffffffffffffffffffffffffffffffff168373ffffffffffffffffffffffffffffffffffffffff167f17307eab39ab6107e8899845ad3d59bd9653f200f220920489ca2b5937696c31836040516124b391906133d7565b60405180910390a3505050565b60008373ffffffffffffffffffffffffffffffffffffffff163b111561266a578273ffffffffffffffffffffffffffffffffffffffff1663150b7a02868685856040518563ffffffff1660e01b815260040161251f9493929190614845565b6020604051808303816000875af192505050801561255b57506040513d601f19601f8201168201806040525081019061255891906148a6565b60015b6125df573d806000811461258b576040519150601f19603f3d011682016040523d82523d6000602084013e612590565b606091505b5060008151036125d757836040517f64a0ae920000000000000000000000000000000000000000000000000000000081526004016125ce9190613548565b60405180910390fd5b805181602001fd5b63150b7a0260e01b7bffffffffffffffffffffffffffffffffffffffffffffffffffffffff1916817bffffffffffffffffffffffffffffffffffffffffffffffffffffffff19161461266857836040517f64a0ae9200000000000000000000000000000000000000000000000000000000815260040161265f9190613548565b60405180910390fd5b505b5050505050565b600073ffffffffffffffffffffffffffffffffffffffff168273ffffffffffffffffffffffffffffffffffffffff16036126e35760006040517f64a0ae920000000000000000000000000000000000000000000000000000000081526004016126da9190613548565b60405180910390fd5b60006126f183836000611f0e565b9050600073ffffffffffffffffffffffffffffffffffffffff168173ffffffffffffffffffffffffffffffffffffffff160361276457816040517f7e27328900000000000000000000000000000000000000000000000000000000815260040161275b91906137c2565b60405180910390fd5b8373ffffffffffffffffffffffffffffffffffffffff168173ffffffffffffffffffffffffffffffffffffffff16146127d8578382826040517f64283d7b0000000000000000000000000000000000000000000000000000000081526004016127cf93929190613e6f565b60405180910390fd5b50505050565b606060405180602001604052806000815250905090565b606061280082611e2f565b50600061280b6127de565b9050600081511161282b5760405180602001604052806000815250612856565b8061283584612dea565b604051602001612846929190614416565b6040516020818303038152906040525b915050919050565b60007f80ac58cd000000000000000000000000000000000000000000000000000000007bffffffffffffffffffffffffffffffffffffffffffffffffffffffff1916827bffffffffffffffffffffffffffffffffffffffffffffffffffffffff1916148061292957507f5b5e139f000000000000000000000000000000000000000000000000000000007bffffffffffffffffffffffffffffffffffffffffffffffffffffffff1916827bffffffffffffffffffffffffffffffffffffffffffffffffffffffff1916145b80612939575061293882612eb8565b5b9050919050565b60006002600083815260200190815260200160002060009054906101000a900473ffffffffffffffffffffffffffffffffffffffff169050919050565b80806129b65750600073ffffffffffffffffffffffffffffffffffffffff168273ffffffffffffffffffffffffffffffffffffffff1614155b15612aea5760006129c684611e2f565b9050600073ffffffffffffffffffffffffffffffffffffffff168373ffffffffffffffffffffffffffffffffffffffff1614158015612a3157508273ffffffffffffffffffffffffffffffffffffffff168173ffffffffffffffffffffffffffffffffffffffff1614155b8015612a445750612a428184611bd5565b155b15612a8657826040517fa9fbf51f000000000000000000000000000000000000000000000000000000008152600401612a7d9190613548565b60405180910390fd5b8115612ae857838573ffffffffffffffffffffffffffffffffffffffff168273ffffffffffffffffffffffffffffffffffffffff167f8c5be1e5ebec7d5bd14f71427d1e84f3dd0314c0f7b2291e5b200ac8c7c3b92560405160405180910390a45b505b836004600085815260200190815260200160002060006101000a81548173ffffffffffffffffffffffffffffffffffffffff021916908373ffffffffffffffffffffffffffffffffffffffff16021790555050505050565b612b4d838383612f22565b612c0157600073ffffffffffffffffffffffffffffffffffffffff168373ffffffffffffffffffffffffffffffffffffffff1603612bc257806040517f7e273289000000000000000000000000000000000000000000000000000000008152600401612bb991906137c2565b60405180910390fd5b81816040517f177e802f000000000000000000000000000000000000000000000000000000008152600401612bf892919061381d565b60405180910390fd5b505050565b612c108383612fe3565b612c25612c1b611ef4565b60008585856124c0565b505050565b60008060006041845103612c6f5760008060006020870151925060408701519150606087015160001a9050612c61888285856130dc565b955095509550505050612c7f565b60006002855160001b9250925092505b9250925092565b60006003811115612c9a57612c996148d3565b5b826003811115612cad57612cac6148d3565b5b0315612de65760016003811115612cc757612cc66148d3565b5b826003811115612cda57612cd96148d3565b5b03612d11576040517ff645eedf00000000000000000000000000000000000000000000000000000000815260040160405180910390fd5b60026003811115612d2557612d246148d3565b5b826003811115612d3857612d376148d3565b5b03612d7d578060001c6040517ffce698f7000000000000000000000000000000000000000000000000000000008152600401612d7491906137c2565b60405180910390fd5b600380811115612d9057612d8f6148d3565b5b826003811115612da357612da26148d3565b5b03612de557806040517fd78bce0c000000000000000000000000000000000000000000000000000000008152600401612ddc919061491b565b60405180910390fd5b5b5050565b606060006001612df9846131d0565b01905060008167ffffffffffffffff811115612e1857612e1761362c565b5b6040519080825280601f01601f191660200182016040528015612e4a5781602001600182028036833780820191505090505b509050600082602001820190505b600115612ead578080600190039150507f3031323334353637383961626364656600000000000000000000000000000000600a86061a8153600a8581612ea157612ea0613f8f565b5b04945060008503612e58575b819350505050919050565b60007f01ffc9a7000000000000000000000000000000000000000000000000000000007bffffffffffffffffffffffffffffffffffffffffffffffffffffffff1916827bffffffffffffffffffffffffffffffffffffffffffffffffffffffff1916149050919050565b60008073ffffffffffffffffffffffffffffffffffffffff168373ffffffffffffffffffffffffffffffffffffffff1614158015612fda57508273ffffffffffffffffffffffffffffffffffffffff168473ffffffffffffffffffffffffffffffffffffffff161480612f9b5750612f9a8484611bd5565b5b80612fd957508273ffffffffffffffffffffffffffffffffffffffff16612fc183611eb7565b73ffffffffffffffffffffffffffffffffffffffff16145b5b90509392505050565b600073ffffffffffffffffffffffffffffffffffffffff168273ffffffffffffffffffffffffffffffffffffffff16036130555760006040517f64a0ae9200000000000000000000000000000000000000000000000000000000815260040161304c9190613548565b60405180910390fd5b600061306383836000611f0e565b9050600073ffffffffffffffffffffffffffffffffffffffff168173ffffffffffffffffffffffffffffffffffffffff16146130d75760006040517f73c6ac6e0000000000000000000000000000000000000000000000000000000081526004016130ce9190613548565b60405180910390fd5b505050565b60008060007f7fffffffffffffffffffffffffffffff5d576e7357a4501ddfe92f46681b20a08460001c111561311c5760006003859250925092506131c6565b6000600188888888604051600081526020016040526040516131419493929190614952565b6020604051602081039080840390855afa158015613163573d6000803e3d6000fd5b505050602060405103519050600073ffffffffffffffffffffffffffffffffffffffff168173ffffffffffffffffffffffffffffffffffffffff16036131b757600060016000801b935093509350506131c6565b8060008060001b935093509350505b9450945094915050565b600080600090507a184f03e93ff9f4daa797ed6e38ed64bf6a1f010000000000000000831061322e577a184f03e93ff9f4daa797ed6e38ed64bf6a1f010000000000000000838161322457613223613f8f565b5b0492506040810190505b6d04ee2d6d415b85acef8100000000831061326b576d04ee2d6d415b85acef8100000000838161326157613260613f8f565b5b0492506020810190505b662386f26fc10000831061329a57662386f26fc1000083816132905761328f613f8f565b5b0492506010810190505b6305f5e10083106132c3576305f5e10083816132b9576132b8613f8f565b5b0492506008810190505b61271083106132e85761271083816132de576132dd613f8f565b5b0492506004810190505b6064831061330b576064838161330157613300613f8f565b5b0492506002810190505b600a831061331a576001810190505b80915050919050565b6000604051905090565b600080fd5b600080fd5b60007fffffffff0000000000000000000000000000000000000000000000000000000082169050919050565b61336c81613337565b811461337757600080fd5b50565b60008135905061338981613363565b92915050565b6000602082840312156133a5576133a461332d565b5b60006133b38482850161337a565b91505092915050565b60008115159050919050565b6133d1816133bc565b82525050565b60006020820190506133ec60008301846133c8565b92915050565b600081519050919050565b600082825260208201905092915050565b60005b8381101561342c578082015181840152602081019050613411565b60008484015250505050565b6000601f19601f8301169050919050565b6000613454826133f2565b61345e81856133fd565b935061346e81856020860161340e565b61347781613438565b840191505092915050565b6000602082019050818103600083015261349c8184613449565b905092915050565b6000819050919050565b6134b7816134a4565b81146134c257600080fd5b50565b6000813590506134d4816134ae565b92915050565b6000602082840312156134f0576134ef61332d565b5b60006134fe848285016134c5565b91505092915050565b600073ffffffffffffffffffffffffffffffffffffffff82169050919050565b600061353282613507565b9050919050565b61354281613527565b82525050565b600060208201905061355d6000830184613539565b92915050565b61356c81613527565b811461357757600080fd5b50565b60008135905061358981613563565b92915050565b600080604083850312156135a6576135a561332d565b5b60006135b48582860161357a565b92505060206135c5858286016134c5565b9150509250929050565b6000806000606084860312156135e8576135e761332d565b5b60006135f68682870161357a565b93505060206136078682870161357a565b9250506040613618868287016134c5565b9150509250925092565b600080fd5b600080fd5b7f4e487b7100000000000000000000000000000000000000000000000000000000600052604160045260246000fd5b61366482613438565b810181811067ffffffffffffffff821117156136835761368261362c565b5b80604052505050565b6000613696613323565b90506136a2828261365b565b919050565b600067ffffffffffffffff8211156136c2576136c161362c565b5b6136cb82613438565b9050602081019050919050565b82818337600083830152505050565b60006136fa6136f5846136a7565b61368c565b90508281526020810184848401111561371657613715613627565b5b6137218482856136d8565b509392505050565b600082601f83011261373e5761373d613622565b5b813561374e8482602086016136e7565b91505092915050565b6000806040838503121561376e5761376d61332d565b5b600061377c8582860161357a565b925050602083013567ffffffffffffffff81111561379d5761379c613332565b5b6137a985828601613729565b9150509250929050565b6137bc816134a4565b82525050565b60006020820190506137d760008301846137b3565b92915050565b600080604083850312156137f4576137f361332d565b5b6000613802858286016134c5565b9250506020613813858286016134c5565b9150509250929050565b60006040820190506138326000830185613539565b61383f60208301846137b3565b9392505050565b600060e08201905061385b600083018a6137b3565b6138686020830189613539565b61387560408301886137b3565b61388260608301876137b3565b61388f6080830186613539565b61389c60a08301856137b3565b6138a960c08301846133c8565b98975050505050505050565b6000602082840312156138cb576138ca61332d565b5b60006138d98482850161357a565b91505092915050565b600067ffffffffffffffff8211156138fd576138fc61362c565b5b61390682613438565b9050602081019050919050565b6000613926613921846138e2565b61368c565b90508281526020810184848401111561394257613941613627565b5b61394d8482856136d8565b509392505050565b600082601f83011261396a57613969613622565b5b813561397a848260208601613913565b91505092915050565b6000806000806080858703121561399d5761399c61332d565b5b60006139ab8782880161357a565b945050602085013567ffffffffffffffff8111156139cc576139cb613332565b5b6139d887828801613729565b93505060406139e9878288016134c5565b925050606085013567ffffffffffffffff811115613a0a57613a09613332565b5b613a1687828801613955565b91505092959194509250565b613a2b816133bc565b8114613a3657600080fd5b50565b600081359050613a4881613a22565b92915050565b60008060408385031215613a6557613a6461332d565b5b6000613a738582860161357a565b9250506020613a8485828601613a39565b9150509250929050565b60008060008060808587031215613aa857613aa761332d565b5b6000613ab68782880161357a565b9450506020613ac78782880161357a565b9350506040613ad8878288016134c5565b925050606085013567ffffffffffffffff811115613af957613af8613332565b5b613b0587828801613955565b91505092959194509250565b600067ffffffffffffffff821115613b2c57613b2b61362c565b5b602082029050602081019050919050565b600080fd5b6000613b55613b5084613b11565b61368c565b90508083825260208201905060208402830185811115613b7857613b77613b3d565b5b835b81811015613bbf57803567ffffffffffffffff811115613b9d57613b9c613622565b5b808601613baa8982613729565b85526020850194505050602081019050613b7a565b5050509392505050565b600082601f830112613bde57613bdd613622565b5b8135613bee848260208601613b42565b91505092915050565b60008060408385031215613c0e57613c0d61332d565b5b6000613c1c8582860161357a565b925050602083013567ffffffffffffffff811115613c3d57613c3c613332565b5b613c4985828601613bc9565b9150509250929050565b600081519050919050565b600082825260208201905092915050565b6000819050602082019050919050565b613c88816134a4565b82525050565b6000613c9a8383613c7f565b60208301905092915050565b6000602082019050919050565b6000613cbe82613c53565b613cc88185613c5e565b9350613cd383613c6f565b8060005b83811015613d04578151613ceb8882613c8e565b9750613cf683613ca6565b925050600181019050613cd7565b5085935050505092915050565b60006020820190508181036000830152613d2b8184613cb3565b905092915050565b600080600060608486031215613d4c57613d4b61332d565b5b6000613d5a868287016134c5565b9350506020613d6b868287016134c5565b9250506040613d7c868287016134c5565b9150509250925092565b60008060408385031215613d9d57613d9c61332d565b5b6000613dab8582860161357a565b9250506020613dbc8582860161357a565b9150509250929050565b600060208284031215613ddc57613ddb61332d565b5b600082013567ffffffffffffffff811115613dfa57613df9613332565b5b613e0684828501613729565b91505092915050565b7f4e487b7100000000000000000000000000000000000000000000000000000000600052602260045260246000fd5b60006002820490506001821680613e5657607f821691505b602082108103613e6957613e68613e0f565b5b50919050565b6000606082019050613e846000830186613539565b613e9160208301856137b3565b613e9e6040830184613539565b949350505050565b7f4e487b7100000000000000000000000000000000000000000000000000000000600052601160045260246000fd5b6000613ee0826134a4565b91507fffffffffffffffffffffffffffffffffffffffffffffffffffffffffffffffff8203613f1257613f11613ea6565b5b600182019050919050565b6000604082019050613f326000830185613539565b8181036020830152613f448184613449565b90509392505050565b6000613f58826134a4565b9150613f63836134a4565b9250828202613f71816134a4565b91508282048414831517613f8857613f87613ea6565b5b5092915050565b7f4e487b7100000000000000000000000000000000000000000000000000000000600052601260045260246000fd5b6000613fc9826134a4565b9150613fd4836134a4565b925082613fe457613fe3613f8f565b5b828204905092915050565b60008160601b9050919050565b600061400782613fef565b9050919050565b600061401982613ffc565b9050919050565b61403161402c82613527565b61400e565b82525050565b600081905092915050565b600061404d826133f2565b6140578185614037565b935061406781856020860161340e565b80840191505092915050565b6000819050919050565b61408e614089826134a4565b614073565b82525050565b60006140a08286614020565b6014820191506140b08285614042565b91506140bc828461407d565b602082019150819050949350505050565b7f496e76616c6964207369676e6174757265000000000000000000000000000000600082015250565b60006141036011836133fd565b915061410e826140cd565b602082019050919050565b60006020820190508181036000830152614132816140f6565b9050919050565b600081519050919050565b600081905092915050565b600061415a82614139565b6141648185614144565b935061417481856020860161340e565b80840191505092915050565b600061418c828461414f565b915081905092915050565b7f5369676e617475726520616c7265616479207573656400000000000000000000600082015250565b60006141cd6016836133fd565b91506141d882614197565b602082019050919050565b600060208201905081810360008301526141fc816141c0565b9050919050565b7f41756374696f6e20656e64656400000000000000000000000000000000000000600082015250565b6000614239600d836133fd565b915061424482614203565b602082019050919050565b600060208201905081810360008301526142688161422c565b9050919050565b7f42696420746f6f206c6f77000000000000000000000000000000000000000000600082015250565b60006142a5600b836133fd565b91506142b08261426f565b602082019050919050565b600060208201905081810360008301526142d481614298565b9050919050565b7f41756374696f6e20616c726561647920656e6465640000000000000000000000600082015250565b60006143116015836133fd565b915061431c826142db565b602082019050919050565b6000602082019050818103600083015261434081614304565b9050919050565b7f41756374696f6e206e6f742079657420656e6465640000000000000000000000600082015250565b600061437d6015836133fd565b915061438882614347565b602082019050919050565b600060208201905081810360008301526143ac81614370565b9050919050565b60006143be826134a4565b91506143c9836134a4565b92508282039050818111156143e1576143e0613ea6565b5b92915050565b7f4e487b7100000000000000000000000000000000000000000000000000000000600052603260045260246000fd5b60006144228285614042565b915061442e8284614042565b91508190509392505050565b7f4e6f74206f776e65720000000000000000000000000000000000000000000000600082015250565b60006144706009836133fd565b915061447b8261443a565b602082019050919050565b6000602082019050818103600083015261449f81614463565b9050919050565b7f41756374696f6e20616c72656164792065786973747300000000000000000000600082015250565b60006144dc6016836133fd565b91506144e7826144a6565b602082019050919050565b6000602082019050818103600083015261450b816144cf565b9050919050565b600061451d826134a4565b9150614528836134a4565b92508282019050808211156145405761453f613ea6565b5b92915050565b600060608201905061455b60008301866137b3565b61456860208301856137b3565b61457560408301846137b3565b949350505050565b60008190508160005260206000209050919050565b60006020601f8301049050919050565b600082821b905092915050565b6000600883026145df7fffffffffffffffffffffffffffffffffffffffffffffffffffffffffffffffff826145a2565b6145e986836145a2565b95508019841693508086168417925050509392505050565b6000819050919050565b600061462661462161461c846134a4565b614601565b6134a4565b9050919050565b6000819050919050565b6146408361460b565b61465461464c8261462d565b8484546145af565b825550505050565b600090565b61466961465c565b614674818484614637565b505050565b5b818110156146985761468d600082614661565b60018101905061467a565b5050565b601f8211156146dd576146ae8161457d565b6146b784614592565b810160208510156146c6578190505b6146da6146d285614592565b830182614679565b50505b505050565b600082821c905092915050565b6000614700600019846008026146e2565b1980831691505092915050565b600061471983836146ef565b9150826002028217905092915050565b614732826133f2565b67ffffffffffffffff81111561474b5761474a61362c565b5b6147558254613e3e565b61476082828561469c565b600060209050601f8311600181146147935760008415614781578287015190505b61478b858261470d565b8655506147f3565b601f1984166147a18661457d565b60005b828110156147c9578489015182556001820191506020850194506020810190506147a4565b868310156147e657848901516147e2601f8916826146ef565b8355505b6001600288020188555050505b505050505050565b600082825260208201905092915050565b600061481782614139565b61482181856147fb565b935061483181856020860161340e565b61483a81613438565b840191505092915050565b600060808201905061485a6000830187613539565b6148676020830186613539565b61487460408301856137b3565b8181036060830152614886818461480c565b905095945050505050565b6000815190506148a081613363565b92915050565b6000602082840312156148bc576148bb61332d565b5b60006148ca84828501614891565b91505092915050565b7f4e487b7100000000000000000000000000000000000000000000000000000000600052602160045260246000fd5b6000819050919050565b61491581614902565b82525050565b6000602082019050614930600083018461490c565b92915050565b600060ff82169050919050565b61494c81614936565b82525050565b6000608082019050614967600083018761490c565b6149746020830186614943565b614981604083018561490c565b61498e606083018461490c565b9594505050505056fea2646970667358221220df7a9993bbe470b2cca856284e610707a10657b7b917b267dfe860cc1a808c6f64736f6c634300081c0033",
  "linkReferences": {},
  "deployedLinkReferences": {}
}