{
  "_format": "hh-sol-artifact-1",
  "contractName": "NFTManager",
  "sourceName": "contracts/NFT.sol",
  "abi": [
    {
      "inputs": [
        {
          "internalType": "string",
          "name": "name",
          "type": "string"
        },
        {
          "internalType": "string",
          "name": "symbol",
          "type": "string"
        },
        {
          "internalType": "address",
          "name": "_feeRecipient",
          "type": "address"
        },
        {
          "internalType": "uint256",
          "name": "_feePercentage",
          "type": "uint256"
        },
        {
          "internalType": "uint256",
          "name": "_maxSupply",
          "type": "uint256"
        },
        {
          "internalType": "uint256",
          "name": "_mintLimit",
          "type": "uint256"
        },
        {
          "internalType": "uint256",
          "name": "_mintPrice",
          "type": "uint256"
        }
      ],
      "stateMutability": "nonpayable",
      "type": "constructor"
    },
    {
      "inputs": [],
      "name": "ECDSAInvalidSignature",
      "type": "error"
    },
    {
      "inputs": [
        {
          "internalType": "uint256",
          "name": "length",
          "type": "uint256"
        }
      ],
      "name": "ECDSAInvalidSignatureLength",
      "type": "error"
    },
    {
      "inputs": [
        {
          "internalType": "bytes32",
          "name": "s",
          "type": "bytes32"
        }
      ],
      "name": "ECDSAInvalidSignatureS",
      "type": "error"
    },
    {
      "inputs": [
        {
          "internalType": "address",
          "name": "sender",
          "type": "address"
        },
        {
          "internalType": "uint256",
          "name": "tokenId",
          "type": "uint256"
        },
        {
          "internalType": "address",
          "name": "owner",
          "type": "address"
        }
      ],
      "name": "ERC721IncorrectOwner",
      "type": "error"
    },
    {
      "inputs": [
        {
          "internalType": "address",
          "name": "operator",
          "type": "address"
        },
        {
          "internalType": "uint256",
          "name": "tokenId",
          "type": "uint256"
        }
      ],
      "name": "ERC721InsufficientApproval",
      "type": "error"
    },
    {
      "inputs": [
        {
          "internalType": "address",
          "name": "approver",
          "type": "address"
        }
      ],
      "name": "ERC721InvalidApprover",
      "type": "error"
    },
    {
      "inputs": [
        {
          "internalType": "address",
          "name": "operator",
          "type": "address"
        }
      ],
      "name": "ERC721InvalidOperator",
      "type": "error"
    },
    {
      "inputs": [
        {
          "internalType": "address",
          "name": "owner",
          "type": "address"
        }
      ],
      "name": "ERC721InvalidOwner",
      "type": "error"
    },
    {
      "inputs": [
        {
          "internalType": "address",
          "name": "receiver",
          "type": "address"
        }
      ],
      "name": "ERC721InvalidReceiver",
      "type": "error"
    },
    {
      "inputs": [
        {
          "internalType": "address",
          "name": "sender",
          "type": "address"
        }
      ],
      "name": "ERC721InvalidSender",
      "type": "error"
    },
    {
      "inputs": [
        {
          "internalType": "uint256",
          "name": "tokenId",
          "type": "uint256"
        }
      ],
      "name": "ERC721NonexistentToken",
      "type": "error"
    },
    {
      "inputs": [
        {
          "internalType": "address",
          "name": "owner",
          "type": "address"
        }
      ],
      "name": "OwnableInvalidOwner",
      "type": "error"
    },
    {
      "inputs": [
        {
          "internalType": "address",
          "name": "account",
          "type": "address"
        }
      ],
      "name": "OwnableUnauthorizedAccount",
      "type": "error"
    },
    {
      "anonymous": false,
      "inputs": [
        {
          "indexed": true,
          "internalType": "address",
          "name": "owner",
          "type": "address"
        },
        {
          "indexed": true,
          "internalType": "address",
          "name": "approved",
          "type": "address"
        },
        {
          "indexed": true,
          "internalType": "uint256",
          "name": "tokenId",
          "type": "uint256"
        }
      ],
      "name": "Approval",
      "type": "event"
    },
    {
      "anonymous": false,
      "inputs": [
        {
          "indexed": true,
          "internalType": "address",
          "name": "owner",
          "type": "address"
        },
        {
          "indexed": true,
          "internalType": "address",
          "name": "operator",
          "type": "address"
        },
        {
          "indexed": false,
          "internalType": "bool",
          "name": "approved",
          "type": "bool"
        }
      ],
      "name": "ApprovalForAll",
      "type": "event"
    },
    {
      "anonymous": false,
      "inputs": [
        {
          "indexed": true,
          "internalType": "uint256",
          "name": "auctionId",
          "type": "uint256"
        },
        {
          "indexed": false,
          "internalType": "uint256",
          "name": "tokenId",
          "type": "uint256"
        },
        {
          "indexed": false,
          "internalType": "uint256",
          "name": "minBid",
          "type": "uint256"
        },
        {
          "indexed": false,
          "internalType": "uint256",
          "name": "endTime",
          "type": "uint256"
        }
      ],
      "name": "AuctionCreated",
      "type": "event"
    },
    {
      "anonymous": false,
      "inputs": [
        {
          "indexed": true,
          "internalType": "uint256",
          "name": "auctionId",
          "type": "uint256"
        },
        {
          "indexed": false,
          "internalType": "address",
          "name": "winner",
          "type": "address"
        },
        {
          "indexed": false,
          "internalType": "uint256",
          "name": "amount",
          "type": "uint256"
        }
      ],
      "name": "AuctionEnded",
      "type": "event"
    },
    {
      "anonymous": false,
      "inputs": [
        {
          "indexed": false,
          "internalType": "uint256",
          "name": "_fromTokenId",
          "type": "uint256"
        },
        {
          "indexed": false,
          "internalType": "uint256",
          "name": "_toTokenId",
          "type": "uint256"
        }
      ],
      "name": "BatchMetadataUpdate",
      "type": "event"
    },
    {
      "anonymous": false,
      "inputs": [
        {
          "indexed": true,
          "internalType": "uint256",
          "name": "auctionId",
          "type": "uint256"
        },
        {
          "indexed": false,
          "internalType": "address",
          "name": "bidder",
          "type": "address"
        },
        {
          "indexed": false,
          "internalType": "uint256",
          "name": "amount",
          "type": "uint256"
        }
      ],
      "name": "BidPlaced",
      "type": "event"
    },
    {
      "anonymous": false,
      "inputs": [
        {
          "indexed": true,
          "internalType": "uint256",
          "name": "tokenId",
          "type": "uint256"
        },
        {
          "indexed": false,
          "internalType": "address",
          "name": "buyer",
          "type": "address"
        },
        {
          "indexed": false,
          "internalType": "string",
          "name": "tokenURI",
          "type": "string"
        }
      ],
      "name": "LazyMinted",
      "type": "event"
    },
    {
      "anonymous": false,
      "inputs": [
        {
          "indexed": false,
          "internalType": "uint256",
          "name": "_tokenId",
          "type": "uint256"
        }
      ],
      "name": "MetadataUpdate",
      "type": "event"
    },
    {
      "anonymous": false,
      "inputs": [
        {
          "indexed": true,
          "internalType": "uint256",
          "name": "tokenId",
          "type": "uint256"
        },
        {
          "indexed": false,
          "internalType": "address",
          "name": "recipient",
          "type": "address"
        },
        {
          "indexed": false,
          "internalType": "string",
          "name": "tokenURI",
          "type": "string"
        }
      ],
      "name": "NFTMinted",
      "type": "event"
    },
    {
      "anonymous": false,
      "inputs": [
        {
          "indexed": true,
          "internalType": "address",
          "name": "previousOwner",
          "type": "address"
        },
        {
          "indexed": true,
          "internalType": "address",
          "name": "newOwner",
          "type": "address"
        }
      ],
      "name": "OwnershipTransferred",
      "type": "event"
    },
    {
      "anonymous": false,
      "inputs": [
        {
          "indexed": true,
          "internalType": "address",
          "name": "from",
          "type": "address"
        },
        {
          "indexed": true,
          "internalType": "address",
          "name": "to",
          "type": "address"
        },
        {
          "indexed": true,
          "internalType": "uint256",
          "name": "tokenId",
          "type": "uint256"
        }
      ],
      "name": "Transfer",
      "type": "event"
    },
    {
      "inputs": [
        {
          "internalType": "address",
          "name": "to",
          "type": "address"
        },
        {
          "internalType": "uint256",
          "name": "tokenId",
          "type": "uint256"
        }
      ],
      "name": "approve",
      "outputs": [],
      "stateMutability": "nonpayable",
      "type": "function"
    },
    {
      "inputs": [],
      "name": "auctionCount",
      "outputs": [
        {
          "internalType": "uint256",
          "name": "",
          "type": "uint256"
        }
      ],
      "stateMutability": "view",
      "type": "function"
    },
    {
      "inputs": [
        {
          "internalType": "uint256",
          "name": "",
          "type": "uint256"
        }
      ],
      "name": "auctions",
      "outputs": [
        {
          "internalType": "uint256",
          "name": "tokenId",
          "type": "uint256"
        },
        {
          "internalType": "address",
          "name": "seller",
          "type": "address"
        },
        {
          "internalType": "uint256",
          "name": "minBid",
          "type": "uint256"
        },
        {
          "internalType": "uint256",
          "name": "highestBid",
          "type": "uint256"
        },
        {
          "internalType": "address",
          "name": "highestBidder",
          "type": "address"
        },
        {
          "internalType": "uint256",
          "name": "endTime",
          "type": "uint256"
        },
        {
          "internalType": "bool",
          "name": "ended",
          "type": "bool"
        }
      ],
      "stateMutability": "view",
      "type": "function"
    },
    {
      "inputs": [
        {
          "internalType": "address",
          "name": "owner",
          "type": "address"
        }
      ],
      "name": "balanceOf",
      "outputs": [
        {
          "internalType": "uint256",
          "name": "",
          "type": "uint256"
        }
      ],
      "stateMutability": "view",
      "type": "function"
    },
    {
      "inputs": [
        {
          "internalType": "address",
          "name": "to",
          "type": "address"
        },
        {
          "internalType": "string[]",
          "name": "tokenURIs",
          "type": "string[]"
        }
      ],
      "name": "bulkMint",
      "outputs": [
        {
          "internalType": "uint256[]",
          "name": "",
          "type": "uint256[]"
        }
      ],
      "stateMutability": "nonpayable",
      "type": "function"
    },
    {
      "inputs": [
        {
          "internalType": "uint256",
          "name": "tokenId",
          "type": "uint256"
        },
        {
          "internalType": "uint256",
          "name": "minBid",
          "type": "uint256"
        },
        {
          "internalType": "uint256",
          "name": "duration",
          "type": "uint256"
        }
      ],
      "name": "createAuction",
      "outputs": [],
      "stateMutability": "nonpayable",
      "type": "function"
    },
    {
      "inputs": [
        {
          "internalType": "uint256",
          "name": "tokenId",
          "type": "uint256"
        }
      ],
      "name": "endAuction",
      "outputs": [],
      "stateMutability": "nonpayable",
      "type": "function"
    },
    {
      "inputs": [
        {
          "internalType": "uint256",
          "name": "tokenId",
          "type": "uint256"
        }
      ],
      "name": "getApproved",
      "outputs": [
        {
          "internalType": "address",
          "name": "",
          "type": "address"
        }
      ],
      "stateMutability": "view",
      "type": "function"
    },
    {
      "inputs": [
        {
          "internalType": "address",
          "name": "owner",
          "type": "address"
        },
        {
          "internalType": "address",
          "name": "operator",
          "type": "address"
        }
      ],
      "name": "isApprovedForAll",
      "outputs": [
        {
          "internalType": "bool",
          "name": "",
          "type": "bool"
        }
      ],
      "stateMutability": "view",
      "type": "function"
    },
    {
      "inputs": [
        {
          "internalType": "address",
          "name": "buyer",
          "type": "address"
        },
        {
          "internalType": "string",
          "name": "uri",
          "type": "string"
        },
        {
          "internalType": "uint256",
          "name": "royaltyPercentage",
          "type": "uint256"
        },
        {
          "internalType": "bytes",
          "name": "signature",
          "type": "bytes"
        }
      ],
      "name": "lazyMint",
      "outputs": [],
      "stateMutability": "payable",
      "type": "function"
    },
    {
      "inputs": [],
      "name": "marketplaceFeePercentage",
      "outputs": [
        {
          "internalType": "uint256",
          "name": "",
          "type": "uint256"
        }
      ],
      "stateMutability": "view",
      "type": "function"
    },
    {
      "inputs": [],
      "name": "marketplaceFeeRecipient",
      "outputs": [
        {
          "internalType": "address",
          "name": "",
          "type": "address"
        }
      ],
      "stateMutability": "view",
      "type": "function"
    },
    {
      "inputs": [],
      "name": "maxSupply",
      "outputs": [
        {
          "internalType": "uint256",
          "name": "",
          "type": "uint256"
        }
      ],
      "stateMutability": "view",
      "type": "function"
    },
    {
      "inputs": [
        {
          "internalType": "address",
          "name": "",
          "type": "address"
        }
      ],
      "name": "mintCountPerWallet",
      "outputs": [
        {
          "internalType": "uint256",
          "name": "",
          "type": "uint256"
        }
      ],
      "stateMutability": "view",
      "type": "function"
    },
    {
      "inputs": [],
      "name": "mintLimit",
      "outputs": [
        {
          "internalType": "uint256",
          "name": "",
          "type": "uint256"
        }
      ],
      "stateMutability": "view",
      "type": "function"
    },
    {
      "inputs": [
        {
          "internalType": "address",
          "name": "recipient",
          "type": "address"
        },
        {
          "internalType": "string",
          "name": "uri",
          "type": "string"
        },
        {
          "internalType": "uint256",
          "name": "royaltyPercentage",
          "type": "uint256"
        }
      ],
      "name": "mintManual",
      "outputs": [
        {
          "internalType": "uint256",
          "name": "",
          "type": "uint256"
        }
      ],
      "stateMutability": "nonpayable",
      "type": "function"
    },
    {
      "inputs": [
        {
          "internalType": "string",
          "name": "uri",
          "type": "string"
        }
      ],
      "name": "mintNFT",
      "outputs": [
        {
          "internalType": "uint256",
          "name": "",
          "type": "uint256"
        }
      ],
      "stateMutability": "payable",
      "type": "function"
    },
    {
      "inputs": [],
      "name": "mintPrice",
      "outputs": [
        {
          "internalType": "uint256",
          "name": "",
          "type": "uint256"
        }
      ],
      "stateMutability": "view",
      "type": "function"
    },
    {
      "inputs": [],
      "name": "name",
      "outputs": [
        {
          "internalType": "string",
          "name": "",
          "type": "string"
        }
      ],
      "stateMutability": "view",
      "type": "function"
    },
    {
      "inputs": [],
      "name": "owner",
      "outputs": [
        {
          "internalType": "address",
          "name": "",
          "type": "address"
        }
      ],
      "stateMutability": "view",
      "type": "function"
    },
    {
      "inputs": [
        {
          "internalType": "uint256",
          "name": "tokenId",
          "type": "uint256"
        }
      ],
      "name": "ownerOf",
      "outputs": [
        {
          "internalType": "address",
          "name": "",
          "type": "address"
        }
      ],
      "stateMutability": "view",
      "type": "function"
    },
    {
      "inputs": [
        {
          "internalType": "uint256",
          "name": "tokenId",
          "type": "uint256"
        }
      ],
      "name": "placeBid",
      "outputs": [],
      "stateMutability": "payable",
      "type": "function"
    },
    {
      "inputs": [],
      "name": "renounceOwnership",
      "outputs": [],
      "stateMutability": "nonpayable",
      "type": "function"
    },
    {
      "inputs": [
        {
          "internalType": "uint256",
          "name": "tokenId",
          "type": "uint256"
        },
        {
          "internalType": "uint256",
          "name": "salePrice",
          "type": "uint256"
        }
      ],
      "name": "royaltyInfo",
      "outputs": [
        {
          "internalType": "address",
          "name": "",
          "type": "address"
        },
        {
          "internalType": "uint256",
          "name": "",
          "type": "uint256"
        }
      ],
      "stateMutability": "view",
      "type": "function"
    },
    {
      "inputs": [
        {
          "internalType": "uint256",
          "name": "",
          "type": "uint256"
        }
      ],
      "name": "royaltyPercentages",
      "outputs": [
        {
          "internalType": "uint256",
          "name": "",
          "type": "uint256"
        }
      ],
      "stateMutability": "view",
      "type": "function"
    },
    {
      "inputs": [
        {
          "internalType": "uint256",
          "name": "",
          "type": "uint256"
        }
      ],
      "name": "royaltyRecipients",
      "outputs": [
        {
          "internalType": "address",
          "name": "",
          "type": "address"
        }
      ],
      "stateMutability": "view",
      "type": "function"
    },
    {
      "inputs": [
        {
          "internalType": "address",
          "name": "from",
          "type": "address"
        },
        {
          "internalType": "address",
          "name": "to",
          "type": "address"
        },
        {
          "internalType": "uint256",
          "name": "tokenId",
          "type": "uint256"
        }
      ],
      "name": "safeTransferFrom",
      "outputs": [],
      "stateMutability": "nonpayable",
      "type": "function"
    },
    {
      "inputs": [
        {
          "internalType": "address",
          "name": "from",
          "type": "address"
        },
        {
          "internalType": "address",
          "name": "to",
          "type": "address"
        },
        {
          "internalType": "uint256",
          "name": "tokenId",
          "type": "uint256"
        },
        {
          "internalType": "bytes",
          "name": "data",
          "type": "bytes"
        }
      ],
      "name": "safeTransferFrom",
      "outputs": [],
      "stateMutability": "nonpayable",
      "type": "function"
    },
    {
      "inputs": [
        {
          "internalType": "address",
          "name": "operator",
          "type": "address"
        },
        {
          "internalType": "bool",
          "name": "approved",
          "type": "bool"
        }
      ],
      "name": "setApprovalForAll",
      "outputs": [],
      "stateMutability": "nonpayable",
      "type": "function"
    },
    {
      "inputs": [
        {
          "internalType": "uint256",
          "name": "tokenId",
          "type": "uint256"
        },
        {
          "internalType": "uint256",
          "name": "percentage",
          "type": "uint256"
        }
      ],
      "name": "setRoyalty",
      "outputs": [],
      "stateMutability": "nonpayable",
      "type": "function"
    },
    {
      "inputs": [
        {
          "internalType": "bytes4",
          "name": "interfaceId",
          "type": "bytes4"
        }
      ],
      "name": "supportsInterface",
      "outputs": [
        {
          "internalType": "bool",
          "name": "",
          "type": "bool"
        }
      ],
      "stateMutability": "view",
      "type": "function"
    },
    {
      "inputs": [],
      "name": "symbol",
      "outputs": [
        {
          "internalType": "string",
          "name": "",
          "type": "string"
        }
      ],
      "stateMutability": "view",
      "type": "function"
    },
    {
      "inputs": [
        {
          "internalType": "uint256",
          "name": "tokenId",
          "type": "uint256"
        }
      ],
      "name": "tokenURI",
      "outputs": [
        {
          "internalType": "string",
          "name": "",
          "type": "string"
        }
      ],
      "stateMutability": "view",
      "type": "function"
    },
    {
      "inputs": [
        {
          "internalType": "address",
          "name": "from",
          "type": "address"
        },
        {
          "internalType": "address",
          "name": "to",
          "type": "address"
        },
        {
          "internalType": "uint256",
          "name": "tokenId",
          "type": "uint256"
        }
      ],
      "name": "transferFrom",
      "outputs": [],
      "stateMutability": "nonpayable",
      "type": "function"
    },
    {
      "inputs": [
        {
          "internalType": "address",
          "name": "newOwner",
          "type": "address"
        }
      ],
      "name": "transferOwnership",
      "outputs": [],
      "stateMutability": "nonpayable",
      "type": "function"
    }
  ],
  "bytecode": "0x608060405234801561001057600080fd5b5060405161578738038061578783398181016040528101906100329190610419565b3387878160009081610044919061070a565b508060019081610054919061070a565b505050600073ffffffffffffffffffffffffffffffffffffffff168173ffffffffffffffffffffffffffffffffffffffff16036100c95760006040517f1e4fbdf70000000000000000000000000000000000000000000000000000000081526004016100c091906107eb565b60405180910390fd5b6100d88161014a60201b60201c565b5084600960006101000a81548173ffffffffffffffffffffffffffffffffffffffff021916908373ffffffffffffffffffffffffffffffffffffffff16021790555083600a8190555082600d8190555081600e8190555080600f81905550600060088190555050505050505050610806565b6000600760009054906101000a900473ffffffffffffffffffffffffffffffffffffffff16905081600760006101000a81548173ffffffffffffffffffffffffffffffffffffffff021916908373ffffffffffffffffffffffffffffffffffffffff1602179055508173ffffffffffffffffffffffffffffffffffffffff168173ffffffffffffffffffffffffffffffffffffffff167f8be0079c531659141344cd1fd0a4f28419497f9722a3daafe3b4186f6b6457e060405160405180910390a35050565b6000604051905090565b600080fd5b600080fd5b600080fd5b600080fd5b6000601f19601f8301169050919050565b7f4e487b7100000000000000000000000000000000000000000000000000000000600052604160045260246000fd5b6102778261022e565b810181811067ffffffffffffffff821117156102965761029561023f565b5b80604052505050565b60006102a9610210565b90506102b5828261026e565b919050565b600067ffffffffffffffff8211156102d5576102d461023f565b5b6102de8261022e565b9050602081019050919050565b60005b838110156103095780820151818401526020810190506102ee565b60008484015250505050565b6000610328610323846102ba565b61029f565b90508281526020810184848401111561034457610343610229565b5b61034f8482856102eb565b509392505050565b600082601f83011261036c5761036b610224565b5b815161037c848260208601610315565b91505092915050565b600073ffffffffffffffffffffffffffffffffffffffff82169050919050565b60006103b082610385565b9050919050565b6103c0816103a5565b81146103cb57600080fd5b50565b6000815190506103dd816103b7565b92915050565b6000819050919050565b6103f6816103e3565b811461040157600080fd5b50565b600081519050610413816103ed565b92915050565b600080600080600080600060e0888a0312156104385761043761021a565b5b600088015167ffffffffffffffff8111156104565761045561021f565b5b6104628a828b01610357565b975050602088015167ffffffffffffffff8111156104835761048261021f565b5b61048f8a828b01610357565b96505060406104a08a828b016103ce565b95505060606104b18a828b01610404565b94505060806104c28a828b01610404565b93505060a06104d38a828b01610404565b92505060c06104e48a828b01610404565b91505092959891949750929550565b600081519050919050565b7f4e487b7100000000000000000000000000000000000000000000000000000000600052602260045260246000fd5b6000600282049050600182168061054557607f821691505b602082108103610558576105576104fe565b5b50919050565b60008190508160005260206000209050919050565b60006020601f8301049050919050565b600082821b905092915050565b6000600883026105c07fffffffffffffffffffffffffffffffffffffffffffffffffffffffffffffffff82610583565b6105ca8683610583565b95508019841693508086168417925050509392505050565b6000819050919050565b60006106076106026105fd846103e3565b6105e2565b6103e3565b9050919050565b6000819050919050565b610621836105ec565b61063561062d8261060e565b848454610590565b825550505050565b600090565b61064a61063d565b610655818484610618565b505050565b5b818110156106795761066e600082610642565b60018101905061065b565b5050565b601f8211156106be5761068f8161055e565b61069884610573565b810160208510156106a7578190505b6106bb6106b385610573565b83018261065a565b50505b505050565b600082821c905092915050565b60006106e1600019846008026106c3565b1980831691505092915050565b60006106fa83836106d0565b9150826002028217905092915050565b610713826104f3565b67ffffffffffffffff81111561072c5761072b61023f565b5b610736825461052d565b61074182828561067d565b600060209050601f8311600181146107745760008415610762578287015190505b61076c85826106ee565b8655506107d4565b601f1984166107828661055e565b60005b828110156107aa57848901518255600182019150602085019450602081019050610785565b868310156107c757848901516107c3601f8916826106d0565b8355505b6001600288020188555050505b505050505050565b6107e5816103a5565b82525050565b600060208201905061080060008301846107dc565b92915050565b614f72806108156000396000f3fe6080604052600436106102045760003560e01c8063933a6f0d11610118578063ba1f72f2116100a0578063d5abeb011161006f578063d5abeb011461079e578063e985e9c5146107c9578063f2fde38b14610806578063f335eac91461082f578063fb37e8831461086c57610204565b8063ba1f72f2146106d0578063c49d91de1461070d578063c87b56dd14610738578063cda4beef1461077557610204565b80639aa864cf116100e75780639aa864cf146105db578063a0d7d89114610618578063a22cb46514610655578063b88d4fde1461067e578063b9a2de3a146106a757610204565b8063933a6f0d1461054057806395d89b4114610569578063996517cf146105945780639979ef45146105bf57610204565b80634adadddf1161019b5780636817c76c1161016a5780636817c76c1461047a57806370a08231146104a5578063715018a6146104e25780638c517354146104f95780638da5cb5b1461051557610204565b80634adadddf14610392578063571a26a0146103bd5780636352211e1461040057806367ffecd01461043d57610204565b806323b872dd116101d757806323b872dd146102d75780632a55205a146103005780632ad715731461033e57806342842e0e1461036957610204565b806301ffc9a71461020957806306fdde0314610246578063081812fc14610271578063095ea7b3146102ae575b600080fd5b34801561021557600080fd5b50610230600480360381019061022b9190613771565b61089c565b60405161023d91906137b9565b60405180910390f35b34801561025257600080fd5b5061025b610916565b6040516102689190613864565b60405180910390f35b34801561027d57600080fd5b50610298600480360381019061029391906138bc565b6109a8565b6040516102a5919061392a565b60405180910390f35b3480156102ba57600080fd5b506102d560048036038101906102d09190613971565b6109c4565b005b3480156102e357600080fd5b506102fe60048036038101906102f991906139b1565b6109da565b005b34801561030c57600080fd5b5061032760048036038101906103229190613a04565b610adc565b604051610335929190613a53565b60405180910390f35b34801561034a57600080fd5b50610353610b50565b6040516103609190613a7c565b60405180910390f35b34801561037557600080fd5b50610390600480360381019061038b91906139b1565b610b56565b005b34801561039e57600080fd5b506103a7610b76565b6040516103b49190613a7c565b60405180910390f35b3480156103c957600080fd5b506103e460048036038101906103df91906138bc565b610b7c565b6040516103f79796959493929190613a97565b60405180910390f35b34801561040c57600080fd5b50610427600480360381019061042291906138bc565b610c0b565b604051610434919061392a565b60405180910390f35b34801561044957600080fd5b50610464600480360381019061045f9190613c3b565b610c1d565b6040516104719190613a7c565b60405180910390f35b34801561048657600080fd5b5061048f610d4b565b60405161049c9190613a7c565b60405180910390f35b3480156104b157600080fd5b506104cc60048036038101906104c79190613caa565b610d51565b6040516104d99190613a7c565b60405180910390f35b3480156104ee57600080fd5b506104f7610e0b565b005b610513600480360381019061050e9190613d78565b610e1f565b005b34801561052157600080fd5b5061052a6110ac565b604051610537919061392a565b60405180910390f35b34801561054c57600080fd5b5061056760048036038101906105629190613a04565b6110d6565b005b34801561057557600080fd5b5061057e61113f565b60405161058b9190613864565b60405180910390f35b3480156105a057600080fd5b506105a96111d1565b6040516105b69190613a7c565b60405180910390f35b6105d960048036038101906105d491906138bc565b6111d7565b005b3480156105e757600080fd5b5061060260048036038101906105fd91906138bc565b61142e565b60405161060f9190613a7c565b60405180910390f35b34801561062457600080fd5b5061063f600480360381019061063a91906138bc565b611446565b60405161064c919061392a565b60405180910390f35b34801561066157600080fd5b5061067c60048036038101906106779190613e43565b611479565b005b34801561068a57600080fd5b506106a560048036038101906106a09190613e83565b61148f565b005b3480156106b357600080fd5b506106ce60048036038101906106c991906138bc565b6114b4565b005b3480156106dc57600080fd5b506106f760048036038101906106f29190613fec565b61186a565b6040516107049190614106565b60405180910390f35b34801561071957600080fd5b50610722611a63565b60405161072f919061392a565b60405180910390f35b34801561074457600080fd5b5061075f600480360381019061075a91906138bc565b611a89565b60405161076c9190613864565b60405180910390f35b34801561078157600080fd5b5061079c60048036038101906107979190614128565b611b9c565b005b3480156107aa57600080fd5b506107b3611e35565b6040516107c09190613a7c565b60405180910390f35b3480156107d557600080fd5b506107f060048036038101906107eb919061417b565b611e3b565b6040516107fd91906137b9565b60405180910390f35b34801561081257600080fd5b5061082d60048036038101906108289190613caa565b611ecf565b005b34801561083b57600080fd5b5061085660048036038101906108519190613caa565b611f55565b6040516108639190613a7c565b60405180910390f35b610886600480360381019061088191906141bb565b611f6d565b6040516108939190613a7c565b60405180910390f35b60007f2a55205a000000000000000000000000000000000000000000000000000000007bffffffffffffffffffffffffffffffffffffffffffffffffffffffff1916827bffffffffffffffffffffffffffffffffffffffffffffffffffffffff1916148061090f575061090e826121b0565b5b9050919050565b60606000805461092590614233565b80601f016020809104026020016040519081016040528092919081815260200182805461095190614233565b801561099e5780601f106109735761010080835404028352916020019161099e565b820191906000526020600020905b81548152906001019060200180831161098157829003601f168201915b5050505050905090565b60006109b382612211565b506109bd82612299565b9050919050565b6109d682826109d16122d6565b6122de565b5050565b600073ffffffffffffffffffffffffffffffffffffffff168273ffffffffffffffffffffffffffffffffffffffff1603610a4c5760006040517f64a0ae92000000000000000000000000000000000000000000000000000000008152600401610a43919061392a565b60405180910390fd5b6000610a608383610a5b6122d6565b6122f0565b90508373ffffffffffffffffffffffffffffffffffffffff168173ffffffffffffffffffffffffffffffffffffffff1614610ad6578382826040517f64283d7b000000000000000000000000000000000000000000000000000000008152600401610acd93929190614264565b60405180910390fd5b50505050565b6000806000612710600c60008781526020019081526020016000205485610b0391906142ca565b610b0d919061433b565b9050600b600086815260200190815260200160002060009054906101000a900473ffffffffffffffffffffffffffffffffffffffff168192509250509250929050565b60125481565b610b718383836040518060200160405280600081525061148f565b505050565b600a5481565b60116020528060005260406000206000915090508060000154908060010160009054906101000a900473ffffffffffffffffffffffffffffffffffffffff16908060020154908060030154908060040160009054906101000a900473ffffffffffffffffffffffffffffffffffffffff16908060050154908060060160009054906101000a900460ff16905087565b6000610c1682612211565b9050919050565b6000610c2761250a565b600d5460085410610c6d576040517f08c379a0000000000000000000000000000000000000000000000000000000008152600401610c64906143b8565b60405180910390fd5b600060086000815480929190610c82906143d8565b919050559050610c928582612591565b610c9c81856125af565b84600b600083815260200190815260200160002060006101000a81548173ffffffffffffffffffffffffffffffffffffffff021916908373ffffffffffffffffffffffffffffffffffffffff16021790555082600c600083815260200190815260200160002081905550807f06becd955c918828f6e985541acbf49cc842c9e9bd569fffc7698e721ef135758686604051610d38929190614420565b60405180910390a2809150509392505050565b600f5481565b60008073ffffffffffffffffffffffffffffffffffffffff168273ffffffffffffffffffffffffffffffffffffffff1603610dc45760006040517f89c62b64000000000000000000000000000000000000000000000000000000008152600401610dbb919061392a565b60405180910390fd5b600360008373ffffffffffffffffffffffffffffffffffffffff1673ffffffffffffffffffffffffffffffffffffffff168152602001908152602001600020549050919050565b610e1361250a565b610e1d600061260b565b565b610e2761250a565b600d5460085410610e6d576040517f08c379a0000000000000000000000000000000000000000000000000000000008152600401610e64906143b8565b60405180910390fd5b6000848484604051602001610e84939291906144f5565b6040516020818303038152906040528051906020012090506000610ea7826126d1565b90506000610eb58285612707565b9050610ebf6110ac565b73ffffffffffffffffffffffffffffffffffffffff168173ffffffffffffffffffffffffffffffffffffffff1614610f2c576040517f08c379a0000000000000000000000000000000000000000000000000000000008152600401610f239061457a565b60405180910390fd5b601384604051610f3c91906145e1565b908152602001604051809103902060009054906101000a900460ff1615610f98576040517f08c379a0000000000000000000000000000000000000000000000000000000008152600401610f8f90614644565b60405180910390fd5b6001601385604051610faa91906145e1565b908152602001604051809103902060006101000a81548160ff021916908315150217905550600060086000815480929190610fe4906143d8565b919050559050610ff48882612591565b610ffe81886125af565b81600b600083815260200190815260200160002060006101000a81548173ffffffffffffffffffffffffffffffffffffffff021916908373ffffffffffffffffffffffffffffffffffffffff16021790555085600c600083815260200190815260200160002081905550807f58e51c39e6aefe22250da82564c1454979ad8069dfdee50fa8fa247332fdee61898960405161109a929190614420565b60405180910390a25050505050505050565b6000600760009054906101000a900473ffffffffffffffffffffffffffffffffffffffff16905090565b6110de61250a565b612710811115611123576040517f08c379a000000000000000000000000000000000000000000000000000000000815260040161111a906146b0565b60405180910390fd5b80600c6000848152602001908152602001600020819055505050565b60606001805461114e90614233565b80601f016020809104026020016040519081016040528092919081815260200182805461117a90614233565b80156111c75780601f1061119c576101008083540402835291602001916111c7565b820191906000526020600020905b8154815290600101906020018083116111aa57829003601f168201915b5050505050905090565b600e5481565b600060116000838152602001908152602001600020905080600501544210611234576040517f08c379a000000000000000000000000000000000000000000000000000000000815260040161122b9061471c565b60405180910390fd5b80600301543411801561124b575080600201543410155b61128a576040517f08c379a000000000000000000000000000000000000000000000000000000000815260040161128190614788565b60405180910390fd5b8060060160009054906101000a900460ff16156112dc576040517f08c379a00000000000000000000000000000000000000000000000000000000081526004016112d3906147f4565b60405180910390fd5b600073ffffffffffffffffffffffffffffffffffffffff168160040160009054906101000a900473ffffffffffffffffffffffffffffffffffffffff1673ffffffffffffffffffffffffffffffffffffffff16146113a4578060040160009054906101000a900473ffffffffffffffffffffffffffffffffffffffff1673ffffffffffffffffffffffffffffffffffffffff166108fc82600301549081150290604051600060405180830381858888f193505050501580156113a2573d6000803e3d6000fd5b505b348160030181905550338160040160006101000a81548173ffffffffffffffffffffffffffffffffffffffff021916908373ffffffffffffffffffffffffffffffffffffffff160217905550817f0e54eff26401bf69b81b26f60bd85ef47f5d85275c1d268d84f68d6897431c473334604051611422929190613a53565b60405180910390a25050565b600c6020528060005260406000206000915090505481565b600b6020528060005260406000206000915054906101000a900473ffffffffffffffffffffffffffffffffffffffff1681565b61148b6114846122d6565b8383612733565b5050565b61149a8484846109da565b6114ae6114a56122d6565b858585856128a2565b50505050565b60006011600083815260200190815260200160002090508060050154421015611512576040517f08c379a000000000000000000000000000000000000000000000000000000000815260040161150990614860565b60405180910390fd5b8060060160009054906101000a900460ff1615611564576040517f08c379a000000000000000000000000000000000000000000000000000000000815260040161155b906147f4565b60405180910390fd5b60018160060160006101000a81548160ff021916908315150217905550600073ffffffffffffffffffffffffffffffffffffffff168160040160009054906101000a900473ffffffffffffffffffffffffffffffffffffffff1673ffffffffffffffffffffffffffffffffffffffff1614611836576000612710600a5483600301546115f091906142ca565b6115fa919061433b565b90506000612710600c600086815260200190815260200160002054846003015461162491906142ca565b61162e919061433b565b90506000818385600301546116439190614880565b61164d9190614880565b9050600960009054906101000a900473ffffffffffffffffffffffffffffffffffffffff1673ffffffffffffffffffffffffffffffffffffffff166108fc849081150290604051600060405180830381858888f193505050501580156116b7573d6000803e3d6000fd5b50600b600086815260200190815260200160002060009054906101000a900473ffffffffffffffffffffffffffffffffffffffff1673ffffffffffffffffffffffffffffffffffffffff166108fc839081150290604051600060405180830381858888f19350505050158015611731573d6000803e3d6000fd5b508360010160009054906101000a900473ffffffffffffffffffffffffffffffffffffffff1673ffffffffffffffffffffffffffffffffffffffff166108fc829081150290604051600060405180830381858888f1935050505015801561179c573d6000803e3d6000fd5b506117cc308560040160009054906101000a900473ffffffffffffffffffffffffffffffffffffffff1687612a53565b847fd2aa34a4fdbbc6dff6a3e56f46e0f3ae2a31d7785ff3487aa5c95c642acea5018560040160009054906101000a900473ffffffffffffffffffffffffffffffffffffffff168660030154604051611826929190613a53565b60405180910390a2505050611866565b611865308260010160009054906101000a900473ffffffffffffffffffffffffffffffffffffffff1684612a53565b5b5050565b606061187461250a565b600d54825160085461188691906148b4565b11156118c7576040517f08c379a00000000000000000000000000000000000000000000000000000000081526004016118be906143b8565b60405180910390fd5b6000825167ffffffffffffffff8111156118e4576118e3613b10565b5b6040519080825280602002602001820160405280156119125781602001602082028036833780820191505090505b50905060005b8351811015611a5857600060086000815480929190611936906143d8565b9190505590506119468682612591565b61196a8186848151811061195d5761195c6148e8565b5b60200260200101516125af565b85600b600083815260200190815260200160002060006101000a81548173ffffffffffffffffffffffffffffffffffffffff021916908373ffffffffffffffffffffffffffffffffffffffff1602179055506103e8600c600083815260200190815260200160002081905550808383815181106119ea576119e96148e8565b5b602002602001018181525050807f06becd955c918828f6e985541acbf49cc842c9e9bd569fffc7698e721ef1357587878581518110611a2c57611a2b6148e8565b5b6020026020010151604051611a42929190614420565b60405180910390a2508080600101915050611918565b508091505092915050565b600960009054906101000a900473ffffffffffffffffffffffffffffffffffffffff1681565b6060611a9482612211565b506000600660008481526020019081526020016000208054611ab590614233565b80601f0160208091040260200160405190810160405280929190818152602001828054611ae190614233565b8015611b2e5780601f10611b0357610100808354040283529160200191611b2e565b820191906000526020600020905b815481529060010190602001808311611b1157829003601f168201915b505050505090506000611b3f612bc0565b90506000815103611b54578192505050611b97565b600082511115611b89578082604051602001611b71929190614917565b60405160208183030381529060405292505050611b97565b611b9284612bd7565b925050505b919050565b3373ffffffffffffffffffffffffffffffffffffffff16611bbc84610c0b565b73ffffffffffffffffffffffffffffffffffffffff1614611c12576040517f08c379a0000000000000000000000000000000000000000000000000000000008152600401611c0990614987565b60405180910390fd5b6000601160008581526020019081526020016000206005015414611c6b576040517f08c379a0000000000000000000000000000000000000000000000000000000008152600401611c62906149f3565b60405180910390fd5b611c76333085612a53565b6040518060e001604052808481526020013373ffffffffffffffffffffffffffffffffffffffff16815260200183815260200160008152602001600073ffffffffffffffffffffffffffffffffffffffff1681526020018242611cd991906148b4565b815260200160001515815250601160008581526020019081526020016000206000820151816000015560208201518160010160006101000a81548173ffffffffffffffffffffffffffffffffffffffff021916908373ffffffffffffffffffffffffffffffffffffffff160217905550604082015181600201556060820151816003015560808201518160040160006101000a81548173ffffffffffffffffffffffffffffffffffffffff021916908373ffffffffffffffffffffffffffffffffffffffff16021790555060a0820151816005015560c08201518160060160006101000a81548160ff02191690831515021790555090505060126000815480929190611de4906143d8565b9190505550827fa9c8dfcda5664a5a124c713e386da27de87432d5b668e79458501eb296389ba784848442611e1991906148b4565b604051611e2893929190614a13565b60405180910390a2505050565b600d5481565b6000600560008473ffffffffffffffffffffffffffffffffffffffff1673ffffffffffffffffffffffffffffffffffffffff16815260200190815260200160002060008373ffffffffffffffffffffffffffffffffffffffff1673ffffffffffffffffffffffffffffffffffffffff16815260200190815260200160002060009054906101000a900460ff16905092915050565b611ed761250a565b600073ffffffffffffffffffffffffffffffffffffffff168173ffffffffffffffffffffffffffffffffffffffff1603611f495760006040517f1e4fbdf7000000000000000000000000000000000000000000000000000000008152600401611f40919061392a565b60405180910390fd5b611f528161260b565b50565b60106020528060005260406000206000915090505481565b6000600d5460085410611fb5576040517f08c379a0000000000000000000000000000000000000000000000000000000008152600401611fac906143b8565b60405180910390fd5b600f54341015611ffa576040517f08c379a0000000000000000000000000000000000000000000000000000000008152600401611ff190614a96565b60405180910390fd5b600e54601060003373ffffffffffffffffffffffffffffffffffffffff1673ffffffffffffffffffffffffffffffffffffffff168152602001908152602001600020541061207d576040517f08c379a000000000000000000000000000000000000000000000000000000000815260040161207490614b02565b60405180910390fd5b600060086000815480929190612092906143d8565b9190505590506120a23382612591565b6120ac81846125af565b33600b600083815260200190815260200160002060006101000a81548173ffffffffffffffffffffffffffffffffffffffff021916908373ffffffffffffffffffffffffffffffffffffffff1602179055506103e8600c600083815260200190815260200160002081905550601060003373ffffffffffffffffffffffffffffffffffffffff1673ffffffffffffffffffffffffffffffffffffffff1681526020019081526020016000206000815480929190612168906143d8565b9190505550807f06becd955c918828f6e985541acbf49cc842c9e9bd569fffc7698e721ef13575338560405161219f929190614420565b60405180910390a280915050919050565b6000634906490660e01b7bffffffffffffffffffffffffffffffffffffffffffffffffffffffff1916827bffffffffffffffffffffffffffffffffffffffffffffffffffffffff1916148061220a575061220982612c40565b5b9050919050565b60008061221d83612d22565b9050600073ffffffffffffffffffffffffffffffffffffffff168173ffffffffffffffffffffffffffffffffffffffff160361229057826040517f7e2732890000000000000000000000000000000000000000000000000000000081526004016122879190613a7c565b60405180910390fd5b80915050919050565b60006004600083815260200190815260200160002060009054906101000a900473ffffffffffffffffffffffffffffffffffffffff169050919050565b600033905090565b6122eb8383836001612d5f565b505050565b6000806122fc84612d22565b9050600073ffffffffffffffffffffffffffffffffffffffff168373ffffffffffffffffffffffffffffffffffffffff161461233e5761233d818486612f24565b5b600073ffffffffffffffffffffffffffffffffffffffff168173ffffffffffffffffffffffffffffffffffffffff16146123cf57612380600085600080612d5f565b6001600360008373ffffffffffffffffffffffffffffffffffffffff1673ffffffffffffffffffffffffffffffffffffffff168152602001908152602001600020600082825403925050819055505b600073ffffffffffffffffffffffffffffffffffffffff168573ffffffffffffffffffffffffffffffffffffffff1614612452576001600360008773ffffffffffffffffffffffffffffffffffffffff1673ffffffffffffffffffffffffffffffffffffffff168152602001908152602001600020600082825401925050819055505b846002600086815260200190815260200160002060006101000a81548173ffffffffffffffffffffffffffffffffffffffff021916908373ffffffffffffffffffffffffffffffffffffffff160217905550838573ffffffffffffffffffffffffffffffffffffffff168273ffffffffffffffffffffffffffffffffffffffff167fddf252ad1be2c89b69c2b068fc378daa952ba7f163c4a11628f55a4df523b3ef60405160405180910390a4809150509392505050565b6125126122d6565b73ffffffffffffffffffffffffffffffffffffffff166125306110ac565b73ffffffffffffffffffffffffffffffffffffffff161461258f576125536122d6565b6040517f118cdaa7000000000000000000000000000000000000000000000000000000008152600401612586919061392a565b60405180910390fd5b565b6125ab828260405180602001604052806000815250612fe8565b5050565b806006600084815260200190815260200160002090816125cf9190614cce565b507ff8e1a15aba9398e019f0b49df1a4fde98ee17ae345cb5f6b5e2c27f5033e8ce7826040516125ff9190613a7c565b60405180910390a15050565b6000600760009054906101000a900473ffffffffffffffffffffffffffffffffffffffff16905081600760006101000a81548173ffffffffffffffffffffffffffffffffffffffff021916908373ffffffffffffffffffffffffffffffffffffffff1602179055508173ffffffffffffffffffffffffffffffffffffffff168173ffffffffffffffffffffffffffffffffffffffff167f8be0079c531659141344cd1fd0a4f28419497f9722a3daafe3b4186f6b6457e060405160405180910390a35050565b60007f19457468657265756d205369676e6564204d6573736167653a0a33320000000060005281601c52603c6000209050919050565b600080600080612717868661300c565b9250925092506127278282613068565b82935050505092915050565b600073ffffffffffffffffffffffffffffffffffffffff168273ffffffffffffffffffffffffffffffffffffffff16036127a457816040517f5b08ba1800000000000000000000000000000000000000000000000000000000815260040161279b919061392a565b60405180910390fd5b80600560008573ffffffffffffffffffffffffffffffffffffffff1673ffffffffffffffffffffffffffffffffffffffff16815260200190815260200160002060008473ffffffffffffffffffffffffffffffffffffffff1673ffffffffffffffffffffffffffffffffffffffff16815260200190815260200160002060006101000a81548160ff0219169083151502179055508173ffffffffffffffffffffffffffffffffffffffff168373ffffffffffffffffffffffffffffffffffffffff167f17307eab39ab6107e8899845ad3d59bd9653f200f220920489ca2b5937696c318360405161289591906137b9565b60405180910390a3505050565b60008373ffffffffffffffffffffffffffffffffffffffff163b1115612a4c578273ffffffffffffffffffffffffffffffffffffffff1663150b7a02868685856040518563ffffffff1660e01b81526004016129019493929190614dea565b6020604051808303816000875af192505050801561293d57506040513d601f19601f8201168201806040525081019061293a9190614e4b565b60015b6129c1573d806000811461296d576040519150601f19603f3d011682016040523d82523d6000602084013e612972565b606091505b5060008151036129b957836040517f64a0ae920000000000000000000000000000000000000000000000000000000081526004016129b0919061392a565b60405180910390fd5b805181602001fd5b63150b7a0260e01b7bffffffffffffffffffffffffffffffffffffffffffffffffffffffff1916817bffffffffffffffffffffffffffffffffffffffffffffffffffffffff191614612a4a57836040517f64a0ae92000000000000000000000000000000000000000000000000000000008152600401612a41919061392a565b60405180910390fd5b505b5050505050565b600073ffffffffffffffffffffffffffffffffffffffff168273ffffffffffffffffffffffffffffffffffffffff1603612ac55760006040517f64a0ae92000000000000000000000000000000000000000000000000000000008152600401612abc919061392a565b60405180910390fd5b6000612ad3838360006122f0565b9050600073ffffffffffffffffffffffffffffffffffffffff168173ffffffffffffffffffffffffffffffffffffffff1603612b4657816040517f7e273289000000000000000000000000000000000000000000000000000000008152600401612b3d9190613a7c565b60405180910390fd5b8373ffffffffffffffffffffffffffffffffffffffff168173ffffffffffffffffffffffffffffffffffffffff1614612bba578382826040517f64283d7b000000000000000000000000000000000000000000000000000000008152600401612bb193929190614264565b60405180910390fd5b50505050565b606060405180602001604052806000815250905090565b6060612be282612211565b506000612bed612bc0565b90506000815111612c0d5760405180602001604052806000815250612c38565b80612c17846131cc565b604051602001612c28929190614917565b6040516020818303038152906040525b915050919050565b60007f80ac58cd000000000000000000000000000000000000000000000000000000007bffffffffffffffffffffffffffffffffffffffffffffffffffffffff1916827bffffffffffffffffffffffffffffffffffffffffffffffffffffffff19161480612d0b57507f5b5e139f000000000000000000000000000000000000000000000000000000007bffffffffffffffffffffffffffffffffffffffffffffffffffffffff1916827bffffffffffffffffffffffffffffffffffffffffffffffffffffffff1916145b80612d1b5750612d1a8261329a565b5b9050919050565b60006002600083815260200190815260200160002060009054906101000a900473ffffffffffffffffffffffffffffffffffffffff169050919050565b8080612d985750600073ffffffffffffffffffffffffffffffffffffffff168273ffffffffffffffffffffffffffffffffffffffff1614155b15612ecc576000612da884612211565b9050600073ffffffffffffffffffffffffffffffffffffffff168373ffffffffffffffffffffffffffffffffffffffff1614158015612e1357508273ffffffffffffffffffffffffffffffffffffffff168173ffffffffffffffffffffffffffffffffffffffff1614155b8015612e265750612e248184611e3b565b155b15612e6857826040517fa9fbf51f000000000000000000000000000000000000000000000000000000008152600401612e5f919061392a565b60405180910390fd5b8115612eca57838573ffffffffffffffffffffffffffffffffffffffff168273ffffffffffffffffffffffffffffffffffffffff167f8c5be1e5ebec7d5bd14f71427d1e84f3dd0314c0f7b2291e5b200ac8c7c3b92560405160405180910390a45b505b836004600085815260200190815260200160002060006101000a81548173ffffffffffffffffffffffffffffffffffffffff021916908373ffffffffffffffffffffffffffffffffffffffff16021790555050505050565b612f2f838383613304565b612fe357600073ffffffffffffffffffffffffffffffffffffffff168373ffffffffffffffffffffffffffffffffffffffff1603612fa457806040517f7e273289000000000000000000000000000000000000000000000000000000008152600401612f9b9190613a7c565b60405180910390fd5b81816040517f177e802f000000000000000000000000000000000000000000000000000000008152600401612fda929190613a53565b60405180910390fd5b505050565b612ff283836133c5565b613007612ffd6122d6565b60008585856128a2565b505050565b600080600060418451036130515760008060006020870151925060408701519150606087015160001a9050613043888285856134be565b955095509550505050613061565b60006002855160001b9250925092505b9250925092565b6000600381111561307c5761307b614e78565b5b82600381111561308f5761308e614e78565b5b03156131c857600160038111156130a9576130a8614e78565b5b8260038111156130bc576130bb614e78565b5b036130f3576040517ff645eedf00000000000000000000000000000000000000000000000000000000815260040160405180910390fd5b6002600381111561310757613106614e78565b5b82600381111561311a57613119614e78565b5b0361315f578060001c6040517ffce698f70000000000000000000000000000000000000000000000000000000081526004016131569190613a7c565b60405180910390fd5b60038081111561317257613171614e78565b5b82600381111561318557613184614e78565b5b036131c757806040517fd78bce0c0000000000000000000000000000000000000000000000000000000081526004016131be9190614ec0565b60405180910390fd5b5b5050565b6060600060016131db846135b2565b01905060008167ffffffffffffffff8111156131fa576131f9613b10565b5b6040519080825280601f01601f19166020018201604052801561322c5781602001600182028036833780820191505090505b509050600082602001820190505b60011561328f578080600190039150507f3031323334353637383961626364656600000000000000000000000000000000600a86061a8153600a85816132835761328261430c565b5b0494506000850361323a575b819350505050919050565b60007f01ffc9a7000000000000000000000000000000000000000000000000000000007bffffffffffffffffffffffffffffffffffffffffffffffffffffffff1916827bffffffffffffffffffffffffffffffffffffffffffffffffffffffff1916149050919050565b60008073ffffffffffffffffffffffffffffffffffffffff168373ffffffffffffffffffffffffffffffffffffffff16141580156133bc57508273ffffffffffffffffffffffffffffffffffffffff168473ffffffffffffffffffffffffffffffffffffffff16148061337d575061337c8484611e3b565b5b806133bb57508273ffffffffffffffffffffffffffffffffffffffff166133a383612299565b73ffffffffffffffffffffffffffffffffffffffff16145b5b90509392505050565b600073ffffffffffffffffffffffffffffffffffffffff168273ffffffffffffffffffffffffffffffffffffffff16036134375760006040517f64a0ae9200000000000000000000000000000000000000000000000000000000815260040161342e919061392a565b60405180910390fd5b6000613445838360006122f0565b9050600073ffffffffffffffffffffffffffffffffffffffff168173ffffffffffffffffffffffffffffffffffffffff16146134b95760006040517f73c6ac6e0000000000000000000000000000000000000000000000000000000081526004016134b0919061392a565b60405180910390fd5b505050565b60008060007f7fffffffffffffffffffffffffffffff5d576e7357a4501ddfe92f46681b20a08460001c11156134fe5760006003859250925092506135a8565b6000600188888888604051600081526020016040526040516135239493929190614ef7565b6020604051602081039080840390855afa158015613545573d6000803e3d6000fd5b505050602060405103519050600073ffffffffffffffffffffffffffffffffffffffff168173ffffffffffffffffffffffffffffffffffffffff160361359957600060016000801b935093509350506135a8565b8060008060001b935093509350505b9450945094915050565b600080600090507a184f03e93ff9f4daa797ed6e38ed64bf6a1f0100000000000000008310613610577a184f03e93ff9f4daa797ed6e38ed64bf6a1f01000000000000000083816136065761360561430c565b5b0492506040810190505b6d04ee2d6d415b85acef8100000000831061364d576d04ee2d6d415b85acef810000000083816136435761364261430c565b5b0492506020810190505b662386f26fc10000831061367c57662386f26fc1000083816136725761367161430c565b5b0492506010810190505b6305f5e10083106136a5576305f5e100838161369b5761369a61430c565b5b0492506008810190505b61271083106136ca5761271083816136c0576136bf61430c565b5b0492506004810190505b606483106136ed57606483816136e3576136e261430c565b5b0492506002810190505b600a83106136fc576001810190505b80915050919050565b6000604051905090565b600080fd5b600080fd5b60007fffffffff0000000000000000000000000000000000000000000000000000000082169050919050565b61374e81613719565b811461375957600080fd5b50565b60008135905061376b81613745565b92915050565b6000602082840312156137875761378661370f565b5b60006137958482850161375c565b91505092915050565b60008115159050919050565b6137b38161379e565b82525050565b60006020820190506137ce60008301846137aa565b92915050565b600081519050919050565b600082825260208201905092915050565b60005b8381101561380e5780820151818401526020810190506137f3565b60008484015250505050565b6000601f19601f8301169050919050565b6000613836826137d4565b61384081856137df565b93506138508185602086016137f0565b6138598161381a565b840191505092915050565b6000602082019050818103600083015261387e818461382b565b905092915050565b6000819050919050565b61389981613886565b81146138a457600080fd5b50565b6000813590506138b681613890565b92915050565b6000602082840312156138d2576138d161370f565b5b60006138e0848285016138a7565b91505092915050565b600073ffffffffffffffffffffffffffffffffffffffff82169050919050565b6000613914826138e9565b9050919050565b61392481613909565b82525050565b600060208201905061393f600083018461391b565b92915050565b61394e81613909565b811461395957600080fd5b50565b60008135905061396b81613945565b92915050565b600080604083850312156139885761398761370f565b5b60006139968582860161395c565b92505060206139a7858286016138a7565b9150509250929050565b6000806000606084860312156139ca576139c961370f565b5b60006139d88682870161395c565b93505060206139e98682870161395c565b92505060406139fa868287016138a7565b9150509250925092565b60008060408385031215613a1b57613a1a61370f565b5b6000613a29858286016138a7565b9250506020613a3a858286016138a7565b9150509250929050565b613a4d81613886565b82525050565b6000604082019050613a68600083018561391b565b613a756020830184613a44565b9392505050565b6000602082019050613a916000830184613a44565b92915050565b600060e082019050613aac600083018a613a44565b613ab9602083018961391b565b613ac66040830188613a44565b613ad36060830187613a44565b613ae0608083018661391b565b613aed60a0830185613a44565b613afa60c08301846137aa565b98975050505050505050565b600080fd5b600080fd5b7f4e487b7100000000000000000000000000000000000000000000000000000000600052604160045260246000fd5b613b488261381a565b810181811067ffffffffffffffff82111715613b6757613b66613b10565b5b80604052505050565b6000613b7a613705565b9050613b868282613b3f565b919050565b600067ffffffffffffffff821115613ba657613ba5613b10565b5b613baf8261381a565b9050602081019050919050565b82818337600083830152505050565b6000613bde613bd984613b8b565b613b70565b905082815260208101848484011115613bfa57613bf9613b0b565b5b613c05848285613bbc565b509392505050565b600082601f830112613c2257613c21613b06565b5b8135613c32848260208601613bcb565b91505092915050565b600080600060608486031215613c5457613c5361370f565b5b6000613c628682870161395c565b935050602084013567ffffffffffffffff811115613c8357613c82613714565b5b613c8f86828701613c0d565b9250506040613ca0868287016138a7565b9150509250925092565b600060208284031215613cc057613cbf61370f565b5b6000613cce8482850161395c565b91505092915050565b600067ffffffffffffffff821115613cf257613cf1613b10565b5b613cfb8261381a565b9050602081019050919050565b6000613d1b613d1684613cd7565b613b70565b905082815260208101848484011115613d3757613d36613b0b565b5b613d42848285613bbc565b509392505050565b600082601f830112613d5f57613d5e613b06565b5b8135613d6f848260208601613d08565b91505092915050565b60008060008060808587031215613d9257613d9161370f565b5b6000613da08782880161395c565b945050602085013567ffffffffffffffff811115613dc157613dc0613714565b5b613dcd87828801613c0d565b9350506040613dde878288016138a7565b925050606085013567ffffffffffffffff811115613dff57613dfe613714565b5b613e0b87828801613d4a565b91505092959194509250565b613e208161379e565b8114613e2b57600080fd5b50565b600081359050613e3d81613e17565b92915050565b60008060408385031215613e5a57613e5961370f565b5b6000613e688582860161395c565b9250506020613e7985828601613e2e565b9150509250929050565b60008060008060808587031215613e9d57613e9c61370f565b5b6000613eab8782880161395c565b9450506020613ebc8782880161395c565b9350506040613ecd878288016138a7565b925050606085013567ffffffffffffffff811115613eee57613eed613714565b5b613efa87828801613d4a565b91505092959194509250565b600067ffffffffffffffff821115613f2157613f20613b10565b5b602082029050602081019050919050565b600080fd5b6000613f4a613f4584613f06565b613b70565b90508083825260208201905060208402830185811115613f6d57613f6c613f32565b5b835b81811015613fb457803567ffffffffffffffff811115613f9257613f91613b06565b5b808601613f9f8982613c0d565b85526020850194505050602081019050613f6f565b5050509392505050565b600082601f830112613fd357613fd2613b06565b5b8135613fe3848260208601613f37565b91505092915050565b600080604083850312156140035761400261370f565b5b60006140118582860161395c565b925050602083013567ffffffffffffffff81111561403257614031613714565b5b61403e85828601613fbe565b9150509250929050565b600081519050919050565b600082825260208201905092915050565b6000819050602082019050919050565b61407d81613886565b82525050565b600061408f8383614074565b60208301905092915050565b6000602082019050919050565b60006140b382614048565b6140bd8185614053565b93506140c883614064565b8060005b838110156140f95781516140e08882614083565b97506140eb8361409b565b9250506001810190506140cc565b5085935050505092915050565b6000602082019050818103600083015261412081846140a8565b905092915050565b6000806000606084860312156141415761414061370f565b5b600061414f868287016138a7565b9350506020614160868287016138a7565b9250506040614171868287016138a7565b9150509250925092565b600080604083850312156141925761419161370f565b5b60006141a08582860161395c565b92505060206141b18582860161395c565b9150509250929050565b6000602082840312156141d1576141d061370f565b5b600082013567ffffffffffffffff8111156141ef576141ee613714565b5b6141fb84828501613c0d565b91505092915050565b7f4e487b7100000000000000000000000000000000000000000000000000000000600052602260045260246000fd5b6000600282049050600182168061424b57607f821691505b60208210810361425e5761425d614204565b5b50919050565b6000606082019050614279600083018661391b565b6142866020830185613a44565b614293604083018461391b565b949350505050565b7f4e487b7100000000000000000000000000000000000000000000000000000000600052601160045260246000fd5b60006142d582613886565b91506142e083613886565b92508282026142ee81613886565b915082820484148315176143055761430461429b565b5b5092915050565b7f4e487b7100000000000000000000000000000000000000000000000000000000600052601260045260246000fd5b600061434682613886565b915061435183613886565b9250826143615761436061430c565b5b828204905092915050565b7f45786365656473206d617820737570706c790000000000000000000000000000600082015250565b60006143a26012836137df565b91506143ad8261436c565b602082019050919050565b600060208201905081810360008301526143d181614395565b9050919050565b60006143e382613886565b91507fffffffffffffffffffffffffffffffffffffffffffffffffffffffffffffffff82036144155761441461429b565b5b600182019050919050565b6000604082019050614435600083018561391b565b8181036020830152614447818461382b565b90509392505050565b60008160601b9050919050565b600061446882614450565b9050919050565b600061447a8261445d565b9050919050565b61449261448d82613909565b61446f565b82525050565b600081905092915050565b60006144ae826137d4565b6144b88185614498565b93506144c88185602086016137f0565b80840191505092915050565b6000819050919050565b6144ef6144ea82613886565b6144d4565b82525050565b60006145018286614481565b60148201915061451182856144a3565b915061451d82846144de565b602082019150819050949350505050565b7f496e76616c6964207369676e6174757265000000000000000000000000000000600082015250565b60006145646011836137df565b915061456f8261452e565b602082019050919050565b6000602082019050818103600083015261459381614557565b9050919050565b600081519050919050565b600081905092915050565b60006145bb8261459a565b6145c581856145a5565b93506145d58185602086016137f0565b80840191505092915050565b60006145ed82846145b0565b915081905092915050565b7f5369676e617475726520616c7265616479207573656400000000000000000000600082015250565b600061462e6016836137df565b9150614639826145f8565b602082019050919050565b6000602082019050818103600083015261465d81614621565b9050919050565b7f526f79616c747920746f6f206869676800000000000000000000000000000000600082015250565b600061469a6010836137df565b91506146a582614664565b602082019050919050565b600060208201905081810360008301526146c98161468d565b9050919050565b7f41756374696f6e20656e64656400000000000000000000000000000000000000600082015250565b6000614706600d836137df565b9150614711826146d0565b602082019050919050565b60006020820190508181036000830152614735816146f9565b9050919050565b7f42696420746f6f206c6f77000000000000000000000000000000000000000000600082015250565b6000614772600b836137df565b915061477d8261473c565b602082019050919050565b600060208201905081810360008301526147a181614765565b9050919050565b7f41756374696f6e20616c726561647920656e6465640000000000000000000000600082015250565b60006147de6015836137df565b91506147e9826147a8565b602082019050919050565b6000602082019050818103600083015261480d816147d1565b9050919050565b7f41756374696f6e206e6f742079657420656e6465640000000000000000000000600082015250565b600061484a6015836137df565b915061485582614814565b602082019050919050565b600060208201905081810360008301526148798161483d565b9050919050565b600061488b82613886565b915061489683613886565b92508282039050818111156148ae576148ad61429b565b5b92915050565b60006148bf82613886565b91506148ca83613886565b92508282019050808211156148e2576148e161429b565b5b92915050565b7f4e487b7100000000000000000000000000000000000000000000000000000000600052603260045260246000fd5b600061492382856144a3565b915061492f82846144a3565b91508190509392505050565b7f4e6f74206f776e65720000000000000000000000000000000000000000000000600082015250565b60006149716009836137df565b915061497c8261493b565b602082019050919050565b600060208201905081810360008301526149a081614964565b9050919050565b7f41756374696f6e20616c72656164792065786973747300000000000000000000600082015250565b60006149dd6016836137df565b91506149e8826149a7565b602082019050919050565b60006020820190508181036000830152614a0c816149d0565b9050919050565b6000606082019050614a286000830186613a44565b614a356020830185613a44565b614a426040830184613a44565b949350505050565b7f496e73756666696369656e74207061796d656e74000000000000000000000000600082015250565b6000614a806014836137df565b9150614a8b82614a4a565b602082019050919050565b60006020820190508181036000830152614aaf81614a73565b9050919050565b7f45786365656473206d696e74206c696d6974207065722077616c6c6574000000600082015250565b6000614aec601d836137df565b9150614af782614ab6565b602082019050919050565b60006020820190508181036000830152614b1b81614adf565b9050919050565b60008190508160005260206000209050919050565b60006020601f8301049050919050565b600082821b905092915050565b600060088302614b847fffffffffffffffffffffffffffffffffffffffffffffffffffffffffffffffff82614b47565b614b8e8683614b47565b95508019841693508086168417925050509392505050565b6000819050919050565b6000614bcb614bc6614bc184613886565b614ba6565b613886565b9050919050565b6000819050919050565b614be583614bb0565b614bf9614bf182614bd2565b848454614b54565b825550505050565b600090565b614c0e614c01565b614c19818484614bdc565b505050565b5b81811015614c3d57614c32600082614c06565b600181019050614c1f565b5050565b601f821115614c8257614c5381614b22565b614c5c84614b37565b81016020851015614c6b578190505b614c7f614c7785614b37565b830182614c1e565b50505b505050565b600082821c905092915050565b6000614ca560001984600802614c87565b1980831691505092915050565b6000614cbe8383614c94565b9150826002028217905092915050565b614cd7826137d4565b67ffffffffffffffff811115614cf057614cef613b10565b5b614cfa8254614233565b614d05828285614c41565b600060209050601f831160018114614d385760008415614d26578287015190505b614d308582614cb2565b865550614d98565b601f198416614d4686614b22565b60005b82811015614d6e57848901518255600182019150602085019450602081019050614d49565b86831015614d8b5784890151614d87601f891682614c94565b8355505b6001600288020188555050505b505050505050565b600082825260208201905092915050565b6000614dbc8261459a565b614dc68185614da0565b9350614dd68185602086016137f0565b614ddf8161381a565b840191505092915050565b6000608082019050614dff600083018761391b565b614e0c602083018661391b565b614e196040830185613a44565b8181036060830152614e2b8184614db1565b905095945050505050565b600081519050614e4581613745565b92915050565b600060208284031215614e6157614e6061370f565b5b6000614e6f84828501614e36565b91505092915050565b7f4e487b7100000000000000000000000000000000000000000000000000000000600052602160045260246000fd5b6000819050919050565b614eba81614ea7565b82525050565b6000602082019050614ed56000830184614eb1565b92915050565b600060ff82169050919050565b614ef181614edb565b82525050565b6000608082019050614f0c6000830187614eb1565b614f196020830186614ee8565b614f266040830185614eb1565b614f336060830184614eb1565b9594505050505056fea264697066735822122007d7ef2a2ab43229f5ab13075c4d2b71203babee012175b6902f685cd271eaf564736f6c634300081c0033",
  "linkReferences": {},
  "deployedLinkReferences": {}
}